:020000040800F2
:100000004848002009020008C50B00081302000838
:10001000C10B0008090500084D0F00080000000092
:10002000000000000000000000000000490100087E
:10003000CB05000800000000A5010008270C0008FF
:1000400023020008230200082302000823020008FC
:1000500023020008230200082302000823020008EC
:1000600023020008230200082302000823020008DC
:1000700023020008230200082302000823020008CC
:1000800023020008230200082302000823020008BC
:1000900023020008230200082302000823020008AC
:1000A000230200082302000823020008230200089C
:1000B00023020008E10C000823020008A50700083D
:1000C000F5060008090A000859090008230200087B
:1000D00023020008210E0008010F00082302000877
:1000E000230200082302000823020008230200085C
:1000F000230200082302000823020008230200084C
:10010000230200082302000823020008230200083B
:10011000230200082302000823020008230200082B
:10012000230200082302000823020008230200081B
:10013000DFF810D000F02AF900480047A129000894
:10014000AFF30080484800202C4B19680868B0E8DD
:10015000F04F80F30988BFF36F8F4FF0000080F3FA
:10016000118870470000000008480068006880F3AC
:1001700008884FF0000080F3148862B661B6BFF3C0
:100180004F8FBFF36F8F00DF00BF00BF08ED00E0AF
:10019000DFF80C00016841F470010160704700BF96
:1001A00088ED00E0EFF30980BFF36F8F134B1A68FF
:1001B0001EF0100F08BF20ED108A20E9F04F1060EC
:1001C00009B44FF0200080F31188BFF34F8FBFF3C5
:1001D0006F8F04F09FFD4FF0000080F3118809BC81
:1001E00019680868B0E8F04F1EF0100F08BFB0ECB7
:1001F000108A80F30988BFF36F8F7047B800002022
:10020000EFF3058070470000064880470648004726
:10021000FEE7FEE7FEE7FEE7FEE7FEE7FEE7FEE7B6
:10022000FEE7FEE7390C00083101000840EA01034F
:100230009B0703D009E008C9121F08C0042AFAD29C
:1002400003E011F8013B00F8013B521EF9D2704760
:10025000D2B201E000F8012B491EFBD27047002208
:10026000F6E710B513460A4604461946FFF7F0FFB5
:10027000204610BD421C10F8011B0029FBD1801A3A
:10028000704710B5002200E0521C835C8C5CA342D6
:1002900001D1002BF8D1D8B2E1B2401A10BD70B52F
:1002A000064600F065FE046805460A220021304635
:1002B00000F033F82C6070BD2DE9F05F054600209A
:1002C00092469B4688460646814640241BE02846C7
:1002D00041464746224600F07AF853465A46C01A2D
:1002E000914110D311461846224600F061F82D1AAC
:1002F00067EB01084F4622460120002100F058F824
:1003000017EB00094E41201EA4F10104DFDC484632
:1003100031462A464346BDE8F09F2DE9F047914615
:100320000F4680460446002614F8015B2DB100F00C
:100330005FF80068405DC007F6D12B2D02D02D2D4F
:1003400018D0641E4A463946204600F055F827B1B9
:100350003968A14201D1C7F8008071054FF002044D
:100360000BD54042002803DD00F002FE0460A00728
:10037000BDE8F08746F48066E4E70028F8DA00F08C
:10038000F7FD04606FF00040F2E70000064C074DF7
:1003900006E0E06840F0010394E807009847103455
:1003A000AC42F6D3FFF7C8FE7862000898620008F6
:1003B000202A04DB203A00FA02F100207047914025
:1003C000C2F1200320FA03F3194390407047202A1A
:1003D00004DB203A21FA02F00021704721FA02F3EF
:1003E000D040C2F1200291400843194670470000F6
:1003F00000487047CC5F00082DE9F05F8246007826
:10040000002715468B460AF10104B946302801D071
:100410009DB113E014F8010B0127782803D0582868
:1004200001D045B10AE00DB1102D07D100271025EC
:1004300014F8010B02E0082500E00A250026B0466A
:100440000EE005FB080005FB06F1012701EB104655
:100450001FFA80F8B6F5803F00D3B94614F8010BB7
:10046000294600F018F80028EBDABBF1000F05D0A0
:100470000FB1641E00E05446CBF80040B9F1000F04
:1004800006D000F075FD02210160C81EBDE8F09F96
:1004900048EA0640FAE73A2800D2303820F0200235
:1004A000412A01D3A2F13700884201D34FF0FF3037
:1004B000704770B58C1810F8015B15F0070301D177
:1004C00010F8013B2A1106D110F8012B03E010F8B7
:1004D000016B01F8016B5B1EF9D12B0705D40023DA
:1004E000521E0DD401F8013BFAE710F8013BCB1A7C
:1004F000921C03E013F8015B01F8015B521EF9D571
:10050000A142D8D3002070BD00BFFEE770B50446FD
:10051000204601F039FB216B088C03F0FBFB216BBB
:10052000C88B03F0F7FB4FF4C06003F0F3FB256BBF
:100530006A7C297CD5E9020301F038FE256B6A7FCD
:10054000297FD5E9050301F031FE206B406A20B117
:10055000216B486A012101F087FE206803F00EFF3D
:10056000226B1168206803F0B7FE0021206803F0B9
:10057000D4FF0021206803F0C0FF0021206803F0B1
:10058000ACFF0021206803F05DFF0021206803F02C
:1005900051FF0421206803F0A8FF0821206803F020
:1005A000B4FF206803F032FF236B9A7959791879E8
:1005B00002F09AFA40F20531206803F058FF40F249
:1005C0000631206803F053FF70BD7047014648882C
:1005D00008B9012070470020FCE702800023438017
:1005E00041608B1883604368C36043680361704750
:1005F00030B502460B46508808B9002030BD00BF18
:100600002024EFF3118084F31188BFF34F8FBFF3E1
:100610006F8F00BF01461469601C1061207818704C
:1006200094681069A04201D3506810615088401E40
:10063000508000BF81F3118800BF0120DEE730B594
:1006400002460B4650881488A04201DB002030BDD2
:1006500000BF2024EFF3118084F31188BFF34F8F84
:10066000BFF36F8F00BF0146D468601CD060237059
:10067000D2E90240A04201D35068D0605088401CAB
:10068000508000BF81F3118800BF0120DFE72DE912
:10069000F04104460E46174601F084FC40F2053056
:1006A00001F0E8FB4FF4417001F0E4FB40F202304E
:1006B00001F0E0FB25464FF0000813E056F8281043
:1006C000284601F091FC08F101082D1D40F205308B
:1006D00001F0D0FB4FF4417001F0CCFB40F202304E
:1006E00001F0C8FBE019A842E8D801F0D3FB0120D3
:1006F000BDE8F08110B52349234802F093F818B102
:100700002049214802F078F820491F4802F08AF871
:1007100018B11E491C4802F06FF81D491A4802F032
:1007200081F818B11A49184802F066F819491648B4
:1007300002F078F818B11749134802F05DF816492D
:10074000114802F06FF818B113490F4802F054F83D
:1007500012490D4802F066F818B110490A4802F033
:100760004BF80F49084802F05DF818B10C490648EB
:1007700002F042F8044801F0CDFF034801F00EFFFB
:1007800010BD000008010A050054004008010F05D3
:1007900008010E0508010B050801090508010805F7
:1007A00008010C0510B54E494E4802F03BF8C0B1A7
:1007B0004B494C4802F020F800204B490871C1F821
:1007C0000700484800F028FA4749D1F80720D1F837
:1007D0000710491C444BC3F8071003F10B01885460
:1007E0007CE042493F4802F01DF878B13D4801F0F5
:1007F00089FF3D49D1F80720D1F80710491C3A4B31
:10080000C3F8071003F10B01885467E038493548F5
:1008100002F008F8002861D0324801F09BFF32480E
:10082000D0F80700012804D800202F49C1F807009C
:1008300010BD30480068002850D02F4800680028BC
:100840004CD02948007B00F0040050B91320264901
:1008500008600023294A2848006804F0D1FE0446B5
:1008600009E01320204908600023244A2148006839
:1008700004F0C6FE044600201B49C1F807001F48CB
:10088000006838B14FF080501D490860BFF34F8FAA
:10089000BFF36F8F002C21D11A48006800281DDBA0
:1008A000002030B1012808D002280AD0032810D136
:1008B0000BE015A000F04CFB0CE016A000F048FB8C
:1008C00008E017A000F044FB04E018A000F040FB93
:1008D00000E000BF00BF18A000F03AFB00BFA7E790
:1008E00009010105005400405104002009010605DA
:1008F000090104053400002030000020AC00002075
:1009000004ED00E0000000205B452F4442475D20DD
:10091000000000005B572F4442475D2000000000AC
:100920005B492F4442475D20000000005B442F4498
:1009300042475D20000000006969632078517565B9
:10094000756553656E6446726F6D495352206661DA
:10095000696C65642100000010B52349234801F04B
:1009600061FF18B12049214801F046FF20491F4886
:1009700001F058FF18B11E491C4801F03DFF1D4908
:100980001A4801F04FFF18B11A49184801F034FF16
:100990001949164801F046FF18B11749134801F0EC
:1009A0002BFF1649114801F03DFF18B113490F48BC
:1009B00001F022FF12490D4801F034FF18B110492F
:1009C0000A4801F019FF0F49084801F02BFF18B140
:1009D0000C49064801F010FF044801F09BFE034853
:1009E00001F0DCFD10BD000008010A0500580040C0
:1009F00008010F0508010E0508010B05080109058E
:100A00000801080508010C0510B54F494F4801F0D1
:100A100009FFC8B14C494D4801F0EEFE01204C4998
:100A200008710020C1F80700484800F0F5F848496F
:100A3000D1F80720D1F80710491C454BC3F807101F
:100A400003F10B0188547CE04249404801F0EAFE82
:100A500078B13E4801F056FE3D49D1F80720D1F863
:100A60000710491C3A4BC3F8071003F10B018854D7
:100A700067E03949354801F0D5FE002861D0334898
:100A800001F068FE3248D0F80700012804D80020A1
:100A90002F49C1F8070010BD30480068002850D029
:100AA0002F48006800284CD02948007B00F0040043
:100AB00050B913202649086000232A4A28480068B4
:100AC00004F09EFD044609E013202149086000233C
:100AD000244A2248006804F093FD044600201C4983
:100AE000C1F807001F48006838B14FF080501E4918
:100AF0000860BFF34F8FBFF36F8F002C21D11B48CD
:100B0000006800281DDB002030B1012808D0022831
:100B10000AD0032810D10BE015A000F019FA0CE060
:100B200016A000F015FA08E017A000F011FA04E092
:100B300018A000F00DFA00E000BF00BF18A000F000
:100B400007FA00BFA7E700000901010500580040AF
:100B500051040020090106050901040534000020A4
:100B600030000020B000002004ED00E00000002074
:100B70005B452F4442475D20000000005B572F4437
:100B800042475D20000000005B492F4442475D2042
:100B9000000000005B442F4442475D20000000003D
:100BA0006969632078517565756553656E64467231
:100BB0006F6D495352206661696C656421000000C5
:100BC00000BFFEE77047000010B5002807DA0A07EB
:100BD000140E054A00F00F031B1FD45403E00A074C
:100BE000130E024A135410BD18ED00E000E400E0BB
:100BF000BFF34F8F0648006800F4E06005490843E2
:100C0000001D03490860BFF34F8F00BFFEE70000DF
:100C10000CED00E00000FA0510B50446032003F0D7
:100C2000B7FAC0B210BD10B504F0AAFE012801D079
:100C300004F050FB10BD000008B52648006840F4E1
:100C40007000244908602448006840F001002249EF
:100C5000086000BF2048006800F002000028F9D0BA
:100C600000BF1D48406840F080001B4948600020DC
:100C7000009002E00098401C009000985028F9D3A2
:100C80001548406840F090001349486000200090EB
:100C900002E00098401C009000985028F9D300BF53
:100CA0000D48406820F003000B4948600846006882
:100CB0000A490840084908604FF41F008860084648
:100CC000006820F48020086000204860C86203F0BB
:100CD00025F908BD88ED00E000100240FFFFF6FE98
:100CE00010B50121074803F020F9012808D1064872
:100CF0000068401C044908600121024803F012F911
:100D000010BD0000000400403800002010B54FF472
:100D1000FA7207490748FFF760FC32220649054886
:100D20001430FFF75AFC03480838FFF7EFFB10BDFB
:100D300040010020480000203403002010B532227A
:100D400007490848FFF749FC322207490548143093
:100D5000FFF743FC03480838FFF7D8FB10BD00003D
:100D6000ED030020800000201F04002010B5FFF7D5
:100D7000CDFFFFF7E3FF10BD70B505460E462846D0
:100D800000F0E8FE04460CB9002070BD314604F1C5
:100D90000800FFF754FC08B90020F6E76068012856
:100DA00003D0211D284600F01AF80120EDE72DE9B7
:100DB000F04107460D461646002400BF0BE0295DB2
:100DC000384603F0D6FA00BF0721384603F023FB6C
:100DD0000028F9D0641CB442F1DBBDE8F08138B5DD
:100DE00005460C46201DFFF7F1FB28B1206820F0D6
:100DF00001002060002038BD2068012803D0206851
:100E000040F0010020606946201DFFF7F1FB01283A
:100E100004D19DF80010284603F0ABFA0120EAE760
:100E200070B52E492E4803F03CFBF8B12C4803F076
:100E30009BFAC4B22B4908684FF4417103F017FBC9
:100E40002649274803F020FB072027490870084659
:100E500041784078401C244A5070901C4454801EB5
:100E60004078852802D90020114648701F491C4847
:100E700003F017FB10B31B4908684FF4417103F0EE
:100E8000E9FA19484078C8B11948006898B10023B8
:100E9000184A15491648006804F0B2FB0546154883
:100EA000006838B14FF0805013490860BFF34F8F8E
:100EB000BFF36F8F00BF00200B4948700F490848EF
:100EC00003F0EFFA40B10D49054803F0DDFA05499A
:100ED000091D0348FFF783FF70BD000005030500EF
:100EE0000038014040000020660300200403040095
:100EF0001C0000207400002004ED00E00603060042
:100F000010B50E490E4803F0CCFA40B10C4803F07E
:100F10002BFAC4B209490A4803F0B6FA00BF0949DE
:100F2000074803F0BEFA38B10649054803F0ACFAA9
:100F300005490348FFF753FF10BD000005030500F6
:100F400000440040060306007C00002000BFFEE7CE
:100F50000FB4054B10B503A9044A029800F01CF821
:100F600010BC5DF814FB0000A12000082C0100203B
:100F7000004870473001002002E008C8121F08C175
:100F8000002AFAD170477047002001E001C1121F0A
:100F9000002AFBD1704700002DE9FF4F8DB00F46AE
:100FA0000546002606E025280BD0DDE90F12904704
:100FB0006D1C761C28780028F5D111B03046BDE8AC
:100FC000F08F0024A246A1460122E94900E0044333
:100FD00015F8013F203B02FA03F00842F7D12878C8
:100FE0002A2810D06FF02F022878A0F130010929AB
:100FF00014D80AEB8A0102EB410144F0020400EB31
:10100000010A6D1CF0E701CF5FEA000A03D544F442
:101010000054CAF1000A44F002046D1C28782E28FE
:1010200017D115F8010F44F004042A280ED06FF0F0
:101030002F022878A0F1300109290AD809EB89018B
:1010400002EB410100EB01096D1CF2E757F8049B2C
:101050006D1C28786C280FD006DC4C2817D0682827
:101060000DD06A2814D104E0742810D07A280FD14A
:101070000DE044F400140AE044F4801401E044F468
:1010800040146978814202D104F580146D1C6D1CF6
:1010900028786E281ED00CDC632830D004DC0028B1
:1010A0008BD0582811D19FE0642867D069280CD1D3
:1010B00064E073282DD004DC6F2872D0702804D12E
:1010C00094E075286ED078286DD0DDE90F12904736
:1010D000761C4BE1C4F30250022806D0032809D045
:1010E000042801CF09D0066040E101CFF117C0E923
:1010F00000613BE101CF068038E1067036E117F868
:10110000040B8DF8000000208DF80100EB46012053
:1011100003E057F804BB4FF0FF3061074FF00001C8
:1011200002D40DE008F10101884649450FDA8045F7
:10113000F8DB1BF808100029F4D108E008F10101E0
:1011400088468142FADB1BF808100029F6D1DDE958
:101150000F23AAEB08008146214600F031F9304404
:1011600000EB080604E0DDE90F121BF8010B9047C5
:10117000B8F10108F7D221464846F2E00A21C4F34B
:1011800002524FF0000B0891022A04D001CFC11780
:10119000032A09D00AE0FF1D27F00707F7E802013C
:1011A00008E02CE01EE01FE000B2C117042A01D1C4
:1011B00040B2C117021E71F1000206DA0023D0EB23
:1011C000030063EB01012D2202E0220504D52B224E
:1011D0008DF82420012203E0E20701D02022F7E766
:1011E000904653E00A210BE0102109E010214FF056
:1011F000000B44F004044FF00809089103E00821B3
:101200004FF0000B0891C4F30252022A04D001CF20
:101210000021032A06D006E0FF1D27F00707F7E8A4
:10122000020103E080B2042A00D1C0B24FF00008EE
:1012300022072BD52A78702A07D0DDF820C08CF041
:10124000100C5CEA0B0C05D00EE040228DF8242037
:10125000012208E050EA010306D030238DF8243043
:101260008DF8252002229046089B83F0080353EA5C
:101270000B030BD150EA010201D1620706D53022DF
:101280008DF824204FF00108A9F101092A78582A85
:1012900004D038A20B9208AA0A920BE03AA2F9E70E
:1012A0005B46089AFFF708F80B9B9B5C0A9A521E54
:1012B0000A92137050EA0102F2D10A98ADEB0000D5
:1012C00000F1200B600702D524F4803401E04FF0D8
:1012D0000109D94502DDA9EB0B0000E0002000EB7D
:1012E0000B0141440890AAEB010AE00306D4DDE9B2
:1012F0000F232146504600F063F806444FF00009E2
:1013000008E009A911F80900DDE90F12904709F179
:101310000109761CC145F4DBE0030CD5DDE90F23A0
:101320002146504600F04CF8064404E0DDE90F1277
:1013300030209047761C0899481E08900029F5DC5B
:1013400008E00A980A990078491C0A91DDE90F1211
:101350009047761CBBF10001ABF1010BF1DC21469B
:101360005046DDE90F2300F019F806446D1C21E614
:10137000092801003031323334353637383961626B
:10138000636465660000000030313233343536372F
:101390003839414243444546000000002DE9F04100
:1013A000044600251E461746880404D405E0394645
:1013B0002020B0476D1C641EF9D52846BDE8F08199
:1013C0002DE9F041044600251E469046C80301D58C
:1013D000302700E02027880404D505E04146384640
:1013E000B0476D1C641EF9D52846BDE8F0810000A9
:1013F000014600200B2909DB2A2907DCA1F10B0299
:10140000084B03EB8202B2F8400C09E0012907DB2C
:101410000A2905DC4A1E034B03EB8202B2F8040CD6
:1014200070470000006000400B2809DB2A2807DC19
:10143000A0F10B02084B03EB8202A2F8401C09E06A
:10144000012807DB0A2805DC421E034B03EB82025E
:10145000A2F8041C7047000000600040BEB00022EB
:101460006F21032003F050FF2449086045E04FF04E
:10147000FF3222A92148006804F04AF99DF88C0047
:101480008DF800009DF88F008DF801009DF8012077
:101490000DF193010DF10200FEF7C8FE00BF00231D
:1014A00032220DF193011648006803F0BFFF044695
:1014B0001448006800281EDB002030B1012808D045
:1014C00002280AD0032810D10BE00FA0FFF740FD3F
:1014D0000CE010A0FFF73CFD08E011A0FFF738FD7D
:1014E00004E012A0FFF734FD00E000BF00BF21467A
:1014F00011A0FFF72DFD002CD1D0B8E7300000205F
:101500001C000020000000205B452F4442475D2066
:10151000000000005B572F4442475D2000000000A0
:101520005B492F4442475D20000000005B442F448C
:1015300042475D2000000000626F6F745F493263B4
:10154000466F72776172645461736B3120466F72BB
:1015500077617264206D7367206661696C656420D1
:101560003A202564200D0A00BEB000226F2103201E
:1015700003F0CAFE2449086045E04FF0FF3222A97B
:101580002148006804F0C4F89DF88C008DF8000034
:101590009DF88F008DF801009DF801200DF1930159
:1015A0000DF10200FEF742FE00BF002332220DF1D2
:1015B00093011648006803F039FF04461448006898
:1015C00000281EDB002030B1012808D002280AD0F4
:1015D000032810D10BE00FA0FFF7BAFC0CE010A01D
:1015E000FFF7B6FC08E011A0FFF7B2FC04E012A080
:1015F000FFF7AEFC00E000BF00BF214611A0FFF7DF
:10160000A7FC002CD1D0B8E7340000201C0000203B
:10161000000000205B452F4442475D200000000091
:101620005B572F4442475D20000000005B492F4478
:1016300042475D20000000005B442F4442475D208C
:1016400000000000626F6F745F493263466F72770B
:101650006172645461736B3220466F727761726499
:10166000206D7367206661696C6564203A2025648B
:10167000200D0A002DE9F0410746BC1C00206F49EF
:1016800008602078512873D00CDC042871D004DC69
:10169000012810D003286DD1B1E018286BD0412863
:1016A000F9D1BBE0552867D061286ED071286DD084
:1016B0007528F0D1A4E0B4F883308022E11C6048A2
:1016C000007800F0D9F90546B5B95E4800780128E0
:1016D00012D1B4F883305A49097881F00100802290
:1016E000E11C00F0C9F9054605B9A2E054480078AC
:1016F00080F00100524908702DB9152000F014F94E
:101700000420BDE8F0814F480078012807D13878DF
:101710004D4908604D4800F035F900F0CDF84C48CF
:101720000078401CC0B26178884201D00420E8E70C
:10173000607847490870607828B94648006800F525
:101740008070444908606078424909680844401E36
:10175000414901EBC01641480068032829DB0320FA
:1017600058B101280DD0022811D0032817D112E05A
:101770003DE032E05CE038E043E039A0FFF7E8FB11
:101780000EE03AA0FFF7E4FB0AE046E02EE03AA0C4
:10179000FFF7DEFB04E03BA0FFF7DAFB00E000BF51
:1017A00000BF60782B4909684218314638A0FFF71E
:1017B000CFFB06F180003F49884204D9152000F094
:1017C000B3F804209DE7062000F0AEF88022E11C6B
:1017D0003046FEF75CFF022093E7062000F0A4F8F5
:1017E00000201C49086003208BE700BF00BF0620D3
:1017F00000F09AF8002017490860052081E700BF33
:1018000000BF1048007808B901207AE70D48007839
:10181000022801D1052074E70BE000BF09480078D9
:1018200018B108480078012801D1032069E700E0D9
:1018300000BF00BF0348007863E7000024000020D9
:101840001800002020000020140000200044004068
:101850002C0000202800002000800008000000204C
:101860005B452F4442475D20000000005B572F443A
:1018700042475D20000000005B492F4442475D2045
:10188000000000005B442F4442475D200000000040
:101890007570646174652061646472203D20252345
:1018A000582C2070616765204E756D203D202564A1
:1018B000200D0A000000020870B5102430252946CA
:1018C000204600F049FA012070BD00001CB500F070
:1018D00069FF00200F2103464FF48272CDE900100A
:1018E00007A10B4804F01AF80020102103464FF41A
:1018F0008272CDE9001007A10A4804F00FF81CBD60
:10190000466F72776172645461736B31000000003E
:101910005D140008466F72776172645461736B32B4
:1019200000000000691500083EB505461348006830
:1019300007280BD12946124802F01BFD00BF0721E2
:101940000F4802F068FD0028F9D016E000240120BD
:10195000FFF762F92246641C0DF802005A22214664
:10196000641C0DF801202146641C0DF8015022462C
:101970006946012000F0DAFF00BF3EBD14000020E0
:101980000038014001490860704700000400002051
:10199000A2B000228721012003F0B6FC1E49086096
:1019A00008460068002821D11C48006800281DDB7B
:1019B000002030B1012808D002280AD0032810D115
:1019C0000BE017A0FFF7C4FA0CE018A0FFF7C0FA6D
:1019D00008E019A0FFF7BCFA04E01AA0FFF7B8FA74
:1019E00000E000BF00BF1AA0FFF7B2FA13E04FF00B
:1019F000FF3269460848006803F08AFE1C48006808
:101A000003F0FAF86846FFF735FE1A4908701848DF
:101A1000006803F045F8EAE71C0000200000002001
:101A20005B452F4442475D20000000005B572F4478
:101A300042475D20000000005B492F4442475D2083
:101A4000000000005B442F4442475D20000000007E
:101A50007570646174654461744D73675F51756539
:101A600075652063726561746520455252210000DE
:101A70000800002020000020F0B505460C46164660
:101A80000021012D28D1002216E014F801CB82EAB2
:101A90000C2200210EE002F4004028B141F22100A6
:101AA00080EA420082B203E04FF6FF7000EA420291
:101AB000481CC1B20829EEDB301EA6F1010C0CF067
:101AC000FF06E2D1180240EA232087B2BA4201D0D1
:101AD0000020F0BD0120FCE785B90022002104E0D0
:101AE000605C1044C2B2481CC1B2B142F8DBD8B24B
:101AF000904201D00020ECE70120EAE700BF00207F
:101B0000E7E7000010B5124800684FF47A71B0FBA7
:101B1000F1F4601EB0F1807F01D301200FE0601E60
:101B20004FF0E02148610F214FF0FF30FFF74CF8F4
:101B300000204FF0E021886107200861002008B1F3
:101B400000BFFEE70021481EFFF73EF810BD000071
:101B5000B40000200246002110E00A4850F821009D
:101B600000B90AE0074850F821000068904203D10C
:101B7000044850F82100704700BF491C0329ECD3EA
:101B80000020F8E734010020024600210EE00D4855
:101B900050F8210000B90BE00A4850F82100006815
:101BA0001368984201D101207047491C0329EED3E4
:101BB00000BF032904D2034840F821200120F3E7A5
:101BC0000020F1E734010020064A02EB9011096879
:101BD00000F01F0301229A401143024B03EB9012C5
:101BE00011607047002004E010B54FF48470FFF7D7
:101BF000EBFF4FF48670FFF7E7FF40F20D10FFF7A1
:101C0000E3FF10BD10B511A0FFF7A2F911A0FFF777
:101C10009FF917A0FFF79CF91948FFF799F919A048
:101C2000FFF796F922A0FFF793F900212DA0FFF707
:101C30008FF9012132A0FFF78BF9022138A0FFF7BD
:101C400087F903213DA0FFF783F910BD6C6F670D85
:101C50000A00000055736167653A206C6F67203C8D
:101C6000617267756D656E74733E0D0A0000000049
:101C7000417267756D656E74733A0D0A000000005D
:101C800024620008092D6765743A20676574207422
:101C900068652063757272656E74206C6F67207062
:101CA00072696E74206C6576656C0D0A0000000028
:101CB000092D736574203C6C6576656C3E3A7365DE
:101CC00074207468652063757272656E74206C6F21
:101CD00067207072696E74206C6576656C200D0AE1
:101CE000000000000909206C6576656C20256420E1
:101CF0003A204442475F4552524F5220200D0A007D
:101D00000909206C6576656C202564203A204442E0
:101D1000475F5741524E494E4720200D0A000000B0
:101D20000909206C6576656C202564203A204442C0
:101D3000475F494E464F20200D0A00000909206CDC
:101D40006576656C202564203A204442475F4C4FFD
:101D50004720200D0A0000002DE9F04105460E46FF
:101D60004FF000684FF4006000FB058700F01AF99F
:101D700040F2053000F07EF84FF4417000F07AF840
:101D800040F2023000F076F800241BE0384600F004
:101D900097F807F5006740F2053000F06BF84FF454
:101DA000417000F067F840F2023000F063F8601C08
:101DB0000A2190FBF1F201FB120008B900F0C4F90E
:101DC000601C84B2B442E1DBBDE8F08100B503469B
:101DD000012200BF00F00CF802465B1E012A01D16F
:101DE000002BF7D1012A00D10422104600BD0000CB
:101DF00000200A49C96801F0010109B101200CE085
:101E00000649C96801F0100109B1032005E0034942
:101E1000C96801F0040101B10220704700200240AE
:101E200000B50346012200BF00F00CF802465B1E1D
:101E3000012A01D1002BF7D1012A00D1042210463A
:101E400000BD000000200A49C96C01F0010109B180
:101E500001200CE00649C96C01F0100109B1032012
:101E600005E00349C96C01F0040101B1022070478B
:101E700000200240064A02EB9011096800F01F039F
:101E800001229A401143024B03EB901211607047FC
:101E9000002002400848006940F0800006490861BF
:101EA00006480088B0F5007F04D90846006D40F070
:101EB000800008657047000000200240E0F7FF1F27
:101EC00030B5054633480088B0F5007F44D9324824
:101ED00085421CD23148FFF779FF0446002C56D1C9
:101EE0002F48006940F002002D490861084645610D
:101EF000006940F0400008612848FFF767FF04468A
:101F00002748006920F00200254908613FE0234886
:101F1000FFF786FF0446002C39D12148006D40F0C0
:101F200002001F49086508464565C06900F00200C7
:101F300008B1084645611A48006D40F04000184954
:101F400008651648FFF76CFF04461548006D20F041
:101F50000200134908651AE01048FFF737FF0446EE
:101F6000ACB90F48006940F002000D49086108460D
:101F70004561006940F0400008610848FFF726FF0E
:101F800004460748006920F0020005490861204620
:101F900030BD0000E0F7FF1FFFFF07080000FF0F44
:101FA000002002400C48006900F0800020B10B487E
:101FB000094948600A4848600A480088B0F5007F2F
:101FC00009D90548006D00F0800020B1034802499E
:101FD0004864034848647047002002402301674575
:101FE000AB89EFCDE0F7FF1F70B504460D46002624
:101FF00027480088B0F5007F31D92648844217D29F
:102000002548FFF7E3FE0646002E3ED1234800692F
:1020100040F001002149086125601F48FFF7D6FE06
:1020200006461E48006920F001001C4908612CE0AA
:102030001948FFF7F5FE06463EBB1848006D40F014
:1020400001001649086525601348FFF7E9FE0646BA
:102050001248006D20F001001049086515E00E4897
:10206000FFF7B4FE064686B90C48006940F001004F
:102070000A49086125600848FFF7A8FE0646074898
:10208000006920F0010005490861304670BD00007C
:10209000E0F7FF1FFFFF07080000FF0F00200240CE
:1020A00070B504460D460C48007828B1E1B20B48E3
:1020B0000068FEF761FE70BD21460848006802F026
:1020C00058F900BF07210548006802F0A4F900286C
:1020D000F8D00020EFE700003C00002004000020C2
:1020E00030B502460B46164C002145F25550154DB1
:1020F000286000BF1348C06800F00101601E041E84
:1021000001D00029F6D109B1002030BD0D4843604F
:102110000B4C00BF0B48C06800F00201601E041E9B
:1021200001D00029F6D109B10020EEE7C2F30B007F
:10213000044DA8604AF6AA2028600120E5E70000C7
:10214000FFFF0F00003000404AF6AA200149086056
:1021500070470000003000404CF6CC400149086058
:1021600070470000003000400020014908607047BF
:102170000030004070B504460D461646034801681D
:1021800003A0FEF7E5FE002070BD00000000002067
:1021900043757272656E74206C6F67206C6576652E
:1021A0006C203A2025640D0A00000000F0B50446BA
:1021B00016460025002201F00F0501F0100747B177
:1021C000042E05D145F00305E76B1F43E76300E0EC
:1021D000354300201EE0012787401F40C7B1226819
:1021E0004FEA800C0F2707FA0CF7BA43870005FA6D
:1021F00007F73A43282904D1012787401F40676128
:1022000005E0482903D1012787401F40276122604C
:10221000471CB8B20828DED3082022E001278740F7
:102220001F40E7B16268A0F108074FEA870C0F274B
:1022300007FA0CF7BA43A0F10807BF0005FA07F741
:102240003A43282904D1012787401F40676105E0F0
:10225000482903D1012787401F4027616260471C3E
:10226000B8B21028DAD3F0BDF0B50A460023002436
:102270000021002500F00046B6F1004F02D11D4EAE
:10228000F16901E01B4E7168C0F3034583B200F4AD
:102290004016B6F5401F08D121F0E061154E766872
:1022A00026F0E066134F7E6012E000F48016B6F56B
:1022B000801F06D1032606FA05F4A14341F0E06130
:1022C00006E0460D360103FA06F6B14341F0E0613F
:1022D00022B1460D360103FA06F6314300F00046FE
:1022E000B6F1004F02D1034EF16101E0014E716081
:1022F000F0BD00000000014010B500220D490E485D
:1023000000F060F90C48FEF787FC044621460A48B5
:1023100000F0E0FA4FF48471074800F060FA40F2F0
:102320000911054800F05BFA4FF48571024800F08E
:1023300056FA10BD801A06000054004010B5402324
:1023400003221C210448FFF731FF802303221C21B4
:102350000148FFF72BFF10BD000C014010B500F045
:1023600013F8FFF7EBFF00F003F8FFF7C5FF10BD10
:1023700010B5002203211F2000F0B6FB0022082127
:10238000202000F0B1FB10BD10B540F2157001F037
:10239000C1FC40F2036001F0BDFC40F2036001F0BB
:1023A000B9FC10BD10B500220D490E4800F00AF925
:1023B0000C48FEF731FC044621460A4800F08AFA30
:1023C0004FF48471074800F00AFA40F209110548F9
:1023D00000F005FA4FF48571024800F000FA10BDD4
:1023E000A08601000058004010B54FF4806303221E
:1023F0001C210548FFF7DAFE4FF4006303221C217D
:102400000148FFF7D3FE10BD000C014010B500F0ED
:1024100013F8FFF7E9FF00F003F8FFF7C3FF10BD63
:1024200010B500220321212000F05EFB00220821CC
:10243000222000F059FB10BD10B540F2167001F0DB
:1024400069FC40F2036001F065FC40F2036001F0BA
:1024500061FC10BD0A460021016821F4806111432E
:10246000016070472DE9F05F07468A46904699461D
:102470000A9D00262C46B3464FF48571384600F07D
:10248000A1F940F20911384600F09CF902F0ECF88D
:1024900004E0641E14B94FF0010B74E040F20161D6
:1024A000384600F070F90028F3D12C46384600F089
:1024B00033FA04E0641E14B94FF0020B63E04FF4EA
:1024C000A061384600F05FF90028F3D02C466FF089
:1024D00001025146384600F0D3F904E0641E14B9F5
:1024E0004FF0030B4FE040F20151384600F04BF93A
:1024F0000028F3D040F20151384600F030F92C4664
:1025000004E0641E14B94FF0040B3CE040F20751A4
:10251000384600F038F90028F3D0002613E02C46A6
:1025200018F80610384600F0F1F804E0641E14B9FB
:102530004FF0050B27E040F20751384600F023F931
:102540000028F3D0761C4E45E9DB2C46384600F0D7
:10255000E8F904E0641E14B94FF0060B13E0386884
:1025600000F400700028F5D14FF48571384600F072
:1025700036F940F20911384600F031F902F0B8F8A6
:102580000120BDE8F09F384600F0C4F8384600F05E
:1025900005F802F0ADF80020F3E7000010B504469E
:1025A0000748204418B1B0F5806F06D102E0FFF76C
:1025B000D5FE03E0FFF72AFF00E000BF00BF10BD1B
:1025C00000ACFFBF2DE9F05F04460E4692460EB9FF
:1025D00000BFFEE7022001F00BFA07464648B7FBB2
:1025E000F0F8B8F13C0F01D34FF03C08D4F804B038
:1025F0002BF07F0B4BEA080BC4F804B03F4886422F
:102600001ED83D48B7FBF0F000F10109B9F13C0FCD
:1026100002D33C20206207E0B9F1020F02D8022069
:10262000206201E0C4F820907000B7FBF0F5042DA3
:1026300000D20425E069C5F30B010843E06158E0CE
:102640002F4886422CD84FF4967008FB00F04FF4C8
:102650007A71B0FBF1F0401C2062BAF1000F08D192
:1026600006EB4600B7FBF0F5E06920F48040E0613E
:1026700009E006EBC60000EB0610B7FBF0F5E069D9
:1026800040F48040E061C5F30B0008B945F0010556
:10269000E06940F40040E061E0692843E06128E03F
:1026A000C8EB0810C0004FF47A71B0FBF1F0401C89
:1026B0002062BAF1000F08D106EB4600B7FBF0F537
:1026C000E06920F48040E06109E006EBC60000EB21
:1026D0000610B7FBF0F5E06940F48040E061E06986
:1026E00040F40040E061E0692843E0610120C4F863
:1026F0009000BDE8F09F000040420F00A08601005E
:10270000801A060001460869C0B27047CAB2026169
:102710007047000010B504460D48204418B1B0F5CC
:10272000806F12D108E040F2154001F013FB40F237
:10273000154001F0FFFA09E040F2164001F00AFBF3
:1027400040F2164001F0F6FA00E000BF00BF10BDF5
:1027500000ACFFBF016841F001010160704710B596
:1027600040F20152914202D1426982690AE000EBD3
:102770009112126801F01F040123A3409A4300EB59
:1027800091131A6010BD10B5024602EB911000685B
:1027900001F01F040123A340184008B1012010BD1F
:1027A0000020FCE710B50548FFF7F8FE0448FFF7E6
:1027B000F5FE0320FFF7F2FE10BD000000540040BC
:1027C0000058004010B500EB9112126801F01F0490
:1027D0000123A3409A4300EB91131A6010BD10B57A
:1027E00000EB9112126801F01F040123A3401A4369
:1027F00000EB91131A6010BD10B5094A914202D145
:10280000426982690AE000EB91521268C1F3044404
:102810000123A3409A4300EB91531A6010BD0000BE
:1028200009010105F0B5024600230024506800F4B8
:102830008065C1F38910105801F01F070126BE40C2
:1028400000EA060302EB91500068C1F30447012639
:10285000BE4000EA06040848814202D0074881428F
:1028600004D113B10DB1012300E0002314B10BB169
:102870000120F0BD0020FCE709010605090107055C
:1028800012F1020F02D121F0010101E041F001013A
:102890000161704730B50C460021016821F002014A
:1028A00021430160C3F3090342EA0305856030BD9B
:1028B00070B505460C462346002211462846FFF710
:1028C000E9FF2846FFF746FF4FF480612846FFF7EF
:1028D000C1FD70BD70B504460D4644B1012C0DD04C
:1028E0000B48204420B1B0F5806F0DD107E000BF48
:1028F000294607484042FFF7DBFF06E000BF2946B4
:102900000448FFF7D5FF00E070BD00BF00BFFBE744
:1029100000ACFFBF00580040016841F480710160C5
:102920007047016841F4007101607047F8B50646D0
:102930000C4615460DB90020F8BD46B1012E13D046
:102940001048304420B1B0F5806F19D10DE000BFC0
:1029500044F620600090681E83B22178621C09480A
:102960004042FFF77FFDE7E700BF44F6206000909C
:10297000681E83B22178621C0348FFF773FDDBE712
:102980000020D9E700ACFFBF0058004070B50446F6
:102990000D462946204600F01FF9002070BD0000BA
:1029A0001CB5FFF7AFF84FF4407000F0FFF800F0EF
:1029B00097F92D48FEF7E6FFFEF7D8F92B48006897
:1029C000FDF758FC84B22246284801682648FEF7E5
:1029D000EEF927480068FDF74DFC84B222462448F2
:1029E00001682148FEF7E3F902F0F6F9FFF7FCF879
:1029F0002048192100234FF48272CDE900101EA156
:102A0000214802F08BFF0020142103464FF482720C
:102A1000CDE900101DA11F4802F080FF02F096F8DA
:102A200021E01D48006802281DDB022030B101288A
:102A300008D002280AD0032810D10BE017A0FEF717
:102A400087FA0CE018A0FEF783FA08E019A0FEF759
:102A50007FFA04E01AA0FEF77BFA00E000BF00BF97
:102A60001AA0FEF775FADCE7003801400C000020E0
:102A700010000020080000207570646174654D6FBF
:102A80006E69746F72000000453F000875706461E4
:102A90007465000091190008000000205B452F4478
:102AA00042475D20000000005B572F4442475D20F5
:102AB000000000005B492F4442475D2000000000F9
:102AC0005B442F4442475D20000000007654617350
:102AD0006B53746172745363686564756C657220BE
:102AE000206572726F7200002DE9F04103460D46B9
:102AF000164600240027A0462A48006800F4E0603B
:102B0000B0F5E06F03D100BF4FF0040830E0254876
:102B1000006800F4E060B0F5C06F03D101274FF00A
:102B2000030825E01F48006800F4E060B0F5A06FDE
:102B300002D10227B8461BE01A48006800F4E060A2
:102B4000B0F5806F03D103274FF0010810E015485E
:102B5000006800F4E060B0F5407F03D104274FF037
:102B6000000805E04FF4A06000F020F80227B84606
:102B7000C7F1040005FA00F4C8F104010F20C840B1
:102B80003040044324010848C45403F01F010120CD
:102B900088405911890001F1E021C1F80001BDE828
:102BA000F08100000CED00E000E400E00249014388
:102BB000024A1160704700000000FA050CED00E0C9
:102BC000034A0A400243034B1A60BFF34F8F70471A
:102BD00080FFFF1F08ED00E02DE9F04106460F469B
:102BE000012E03DCFFF70EF8BDE8F081012444E07C
:102BF00000253CE0234A52F8251057F82400FDF741
:102C000040FB002832D1204850F825302246394672
:102C1000304698478046B8F1000F01DB444424E079
:102C20001A480068002820DB002030B1012808D0B5
:102C300002280AD0032810D10BE015A0FEF788F96E
:102C40000CE016A0FEF784F908E017A0FEF780F963
:102C500004E018A0FEF77CF900E000BF00BF0948BF
:102C600050F8251016A0FEF773F900BF6D1C05483B
:102C700050F825000028BDD1641CB442B8DB00BF69
:102C8000B2E70000DC5E0008D05E00080000002013
:102C90005B452F4442475D20000000005B572F44F6
:102CA00042475D20000000005B492F4442475D2001
:102CB000000000005B442F4442475D2000000000FC
:102CC00043616E6E6F742068616E646C6520617222
:102CD00067756D656E743A2025730D0A000000005B
:102CE000704700000348006840F4807001490860A4
:102CF00070470000007000402DE9F04105460E4687
:102D00001C4807681C480068001D01F00EFC50B903
:102D10001948006890F82C1001208840174909686C
:102D2000814316480160681C38B936B11248016801
:102D3000091D134801F08CFC1AE07C190E4800684C
:102D40004460BC4207D20C480168091D0D48006868
:102D500001F064FC0CE008480168091D0A4800689D
:102D600001F05CFC09480068844201D20748046015
:102D7000BDE8F081CC000020B8000020D000002089
:102D800008080020C0000020BC000020E80000204F
:102D900010B5044601F068FC24480068401C234933
:102DA00008602348006840B921480460084600686C
:102DB00001280DD100F0EEF90AE01E48006838B98C
:102DC0001B480068C06AE16A884201D8184804605C
:102DD00019480068401C1849086008460068A0644B
:102DE00094F82C10012088401449096808431349BD
:102DF0000860E16A01EB8101114A02EB8100211DAB
:102E000001F026FC01F074FC0A48006868B108482B
:102E10000068C06AE16A884207D24FF080500949D1
:102E20000860BFF34F8FBFF36F8F10BDC800002045
:102E3000B8000020D4000020E4000020D0000020D2
:102E40003805002004ED00E010B501F00DFC10483D
:102E50000068D0B90F4801F0D1FB0F4801F0CEFB5C
:102E60000C480E4908600C480D49086000221021EA
:102E7000032002F049FA064908600846006820B1BC
:102E800008A10348006801F02BFD01F031FC10BDE2
:102E9000FC0000201C08002030080020F400002066
:102EA000F8000020546D72510000000010B516E0CB
:102EB00001F0DAFB0C48C068C468201D01F035FB46
:102EC0000A480068401E0949086009480068401E19
:102ED0000749086001F00CFC204600F05FF8044848
:102EE00000680028E4D110BDF4070020C8000020CD
:102EF000C400002070B504460D46206C70B1216CF2
:102F0000E0680144E160D4E90210884201D32168FD
:102F1000E1602846226CE168FDF788F970BD2DE973
:102F2000F04104460F4615464FF00008A66B206C92
:102F300048B9206800282CD1A06802F0E7FD80463F
:102F40000020A06025E07DB93946226C6068FDF75D
:102F50006DF9216C606808446060D4E90101884221
:102F600017D32068606014E03946226CE068FDF7F2
:102F70005DF9216CE068411AE1602168E0688842EF
:102F800003D2216CA068411AE160022D01D106B183
:102F9000761E701CA0634046BDE8F08110B5044663
:102FA000206B01F0DDFB204601F0DAFB10BD0000D4
:102FB0000146084A126812680AB9012200E000229C
:102FC0000A600A6822B9034A1268D268106800E0F1
:102FD00000207047F400002030B54FF470531748BC
:102FE00000F007042CB1C01D20F00700134C041B97
:102FF0001B1B0246124C22600024114D6C60D0183D
:10300000083820F007000F4C206000240D4D2D687B
:103010006C600C4D2D682C601146441A4C60094CB4
:1030200024680C60084D4C682C60084D4C682C607E
:103030004FF00044064D2C6030BD000044080020D5
:1030400008010020100100201801002014010020B8
:103050001C01002000BFFFF729FF07480068012876
:1030600007D94FF0805005490860BFF34F8FBFF379
:103070006F8F01F06EFAEEE73805002004ED00E0F6
:103080002DE9F04106460D4617469846069C0DB9B7
:10309000246000E02760E66325640121204602F0F9
:1030A0006DF984F850800020A064BDE8F081000034
:1030B0002DE9F05F82460E4617469B46DDF82880D4
:1030C0000C9C2EB94FF45B7229A12EA0FDF740FF96
:1030D000B900A522206BFDF7BBF8781E216B01EB30
:1030E000800929F0070909F0070008B9012000E06C
:1030F000002028B94FF460721DA122A0FDF728FF1F
:103100006764002507E0715D04F134004155705D8E
:1031100000B902E06D1C102DF5D300BF0021432043
:103120000155B8F1200F01D34FF01F08C4F82C80CF
:10313000C4F8508000206065201D01F06CFA04F195
:10314000180001F068FA2461C8F12000A0616462EF
:103150000020A06584F85C005A465146484600F0BD
:1031600027FC20600B9808B10B980460BDE8F09F25
:103170002E2E5C6672656572746F735C7461736B1E
:10318000732E63004572726F723A25732C25640D9D
:103190000A00000010B5002407E004EB84010F4A88
:1031A00002EB810001F02AFA641C202CF5D30C48B4
:1031B00001F024FA0B4801F021FA0B4801F01EFA45
:1031C0000A4801F01BFA0A4801F018FA04480949B4
:1031D000086004480849086010BD00003805002058
:1031E000B8070020CC070020E0070020F4070020EB
:1031F00008080020BC000020C000002010B50146D7
:10320000164800E0006803688B42FBD3024643681F
:1032100013448B4204D143684C6823444360014605
:103220000A464B6813440468A34211D10C4C03684E
:103230002468A34208D04B680468646823444B6048
:1032400003681B680B6005E0054B1B680B6001E021
:1032500003680B60884200D0016010BD08010020A7
:10326000100100202DE9F04104460D4616461F4688
:103270004FF0000865602461B5420CD8F01BA169CD
:10328000884202D34FF0010811E0211D094800686F
:1032900001F0C4F90BE0BE4204D2BD4202D34FF0AC
:1032A000010804E0211D0448006801F0B7F9404618
:1032B000BDE8F081F8000020F400002070B505465C
:1032C00001F0D2F9A86B08B9012400E0002401F054
:1032D0000FFA204670BD70B5054601F0C5F9A86B20
:1032E000E96B884201D1012400E0002401F000FADA
:1032F000204670BD2DE9F3410D460098846C0027EF
:103300002CB940F645321AA11EA0FDF721FEA06B94
:10331000E16B884201D2012000E0002028B940F68C
:10332000463213A117A0FDF713FEA06BE16B884294
:103330001BD294F945602A4669462046FFF7EFFD07
:103340000746701C60B9606A08B9012000E00020DF
:1033500050B904F1240002F045FC28B1012703E034
:10336000701C40B284F8450000BF3846BDE8FC81BF
:103370002E2E5C6672656572746F735C717565750F
:10338000652E63004572726F723A25732C25640DA9
:103390000A000000F8B505460F4613480068C068EB
:1033A000C468201D01F0C1F8E069012818D1A069A6
:1033B00041192B463A462046FFF754FF80B10020C2
:1033C00003462A4601460090204602F02FFD06469D
:1033D0002EB94FF4F47205A10AA0FDF7B9FD00BFA4
:1033E0002046616A8847F8BDF40000202E2E5C66F6
:1033F00072656572746F735C74696D6572732E6348
:10340000000000004572726F723A25732C25640D1E
:103410000A000000F0B587B070E0039800280CDACD
:1034200004AE2EB940F2C72239A13FA0FDF790FDAE
:10343000D6E90020B168904700BF039800285DDB03
:10344000059C606908B9012000E0002010B9201D2A
:1034500001F06BF802A800F0C5F8054603980A28A9
:103460004AD2DFE800F00905072C2E4506082D2F6B
:1034700000BF00BF00BF00BF0498A26981180346C7
:103480002A462046FFF7EEFEC0B12046616A884713
:10349000E069012812D1002000900498A169421827
:1034A00000231946204602F0C1FC07462FB940F21E
:1034B000013217A11CA0FDF74BFD00BF1DE000BFAE
:1034C0001BE000BF0498A061A06908B1012000E0E2
:1034D000002028B94FF446720DA113A0FDF738FD66
:1034E000A06941192B462A462046FFF7BBFE04E09F
:1034F000204601F035F900E000BF00BF002203A91B
:103500000D48006802F004F9002886D107B0F0BD2C
:103510002E2E5C6672656572746F735C74696D657E
:1035200072732E63000000004572726F723A257349
:103530002C25640D0A000000FC000020F8B50546AB
:103540000C4601F0DFFB684600F04CF80646009898
:1035500020BB44B9B54206D802F09EFB314628464E
:10356000FFF718FF1CE03CB10E480068006808B97E
:10357000012000E000200446A91B22460A480068FA
:1035800001F0C4F902F088FB50B94FF080500749B0
:103590000860BFF34F8FBFF36F8F01E002F07CFB39
:1035A000F8BD0000F8000020FC00002004ED00E061
:1035B0000A490968096809B9012100E0002121B11F
:1035C0004FF0FF31064A116006E004490968C968F6
:1035D000C868034A4168116070470000BC000020C1
:1035E000E800002070B5044602F0DAF90546074805
:1035F0000068854204D200F00BF80120206001E051
:103600000020206001480560284670BD04010020AC
:103610002DE9F8432DE021480068C06805681F487F
:103620000068C068C468201D00F07FFF2046616A02
:103630008847E06901281CD1A0694619AE4207D924
:1036400066602461211D1548006800F0E7FF10E066
:10365000002003462A4601460090204602F0E6FB81
:1036600007462FB940F272320DA113A0FDF770FC8E
:1036700000BF0A480068006808B9012000E0002087
:103680000028C8D00548D0F800800F4800680349DA
:1036900008600D48C0F80080BDE8F883F400002001
:1036A0002E2E5C6672656572746F735C74696D65ED
:1036B00072732E63000000004572726F723A2573B8
:1036C0002C25640D0A000000F80000200B4800685B
:1036D000401C08B9012000E0002020B9E52208A123
:1036E00012A0FDF735FC00BF202080F31188BFF346
:1036F0004F8FBFF36F8F00BF00BFFEE72001002098
:103700002E2E5C6672656572746F735C706F727476
:1037100061626C655C525644535C41524D5F434D4F
:1037200034465C706F72742E630000004572726FD5
:10373000723A25732C25640D0A00000070B5054609
:1037400000262C462DB940F2FF620EA112A0FDF713
:10375000FFFB15496069884201D1012000E000208B
:1037600070B11249A06A884201D1012000E0002016
:1037700030B9A06A08B9012000E0002000B101269C
:10378000304670BD2E2E5C6672656572746F735C18
:103790007461736B732E63004572726F723A257396
:1037A0002C25640D0A00000008080020E007002016
:1037B00008B500BF6846FFF7FBFB044620460099AA
:1037C000FFF7BCFEFFF726FEF4E770B5044600F0F5
:1037D0004BFF94F945501AE0A06C38B10021204607
:1037E000FFF788FD88B101F0FDF80EE0606A08B9C6
:1037F000012000E0002038B904F1240002F0F2F9C1
:1038000018B101F0EFF800E003E0681E45B2002DAA
:10381000E2DC00BFFF2084F8450000F069FF00F003
:1038200023FF94F9445010E0206908B9012000E01A
:10383000002048B904F1100002F0D4F908B101F0F9
:10384000D1F8681E45B200E001E0002DECDC00BFBD
:10385000FF2084F8440000F04BFF70BD2DE9F041DB
:1038600004464FF0000801F04DFA3E48006808B9E0
:10387000FFF7B2FB3C480068204000285FD1A4B1AC
:10388000083404F0070080B104F00700C0F108001C
:10389000044404F0070008B9012000E0002020B92A
:1038A000952232A13BA0FDF753FB002C47D03D48A9
:1038B0000068844243D83C4E3046056801E02E46FD
:1038C0002D686868A04202D228680028F7D12548F0
:1038D0000068854233D0306800F1080828683060FD
:1038E0006868001B102813D92F1907F0070008B9C2
:1038F000012000E0002020B9C2221CA125A0FDF774
:1039000027FB6868001B78606C603846FFF776FC20
:10391000244968680968081A22490860084600684E
:1039200022490968884203D21E4800681F4908607E
:103930000D4968680968084368600020286002F043
:10394000ABF908F0070008B9012000E0002028B911
:103950004FF4817205A10FA0FDF7FAFA4046BDE8C9
:10396000F0810000100100201C0100202E2E5C665A
:1039700072656572746F735C706F727461626C658E
:103980005C4D656D4D616E675C686561705F342E7E
:10399000630000004572726F723A25732C25640D26
:1039A0000A00000014010020080100201801002076
:1039B000001F4FF080730360001F21F001030360BC
:1039C000001F054B036014380260001F6FF00203F4
:1039D0000360203870470000CD3600080348406A75
:1039E00040F08070014948627047000000100240BA
:1039F0002DE9F04F8CB0074600200A904AA090E8CD
:103A0000004CC068CDE905BECDF810A007900FF2BC
:103A10001C1ADAE9000ACDE9020A0FF2101ADAE9F3
:103A2000000ACDE9000A44484068C0F381000B90C9
:103A30000B9820B1012804D002283FD103E03F4A6F
:103A40003EE03E4A3CE03C48406800F4803CBCF527
:103A5000803F12D13848C06A00F08048B8F1000FAA
:103A600001D1364B00E0364B3348406800F4003952
:103A7000B9F5003F02D15B0800E0324B2E484068A8
:103A8000C0F383412C48406800F0006008B141F069
:103A900010012948406800F0804008B141F0200141
:103AA0000F2901D2891C06E00F2903D33E2901D832
:103AB000491C00E03F2103FB01F201E01F4A00BF67
:103AC00000BF1D484068C0F3031504A8465D22FAF4
:103AD00006F419484068C0F3022502A8465D24FA9E
:103AE00006F0099014484068C0F3C2251DF805602F
:103AF00024FA06F0089037B1012F06D0022F06D025
:103B0000032F0AD106E00A9208E00A9406E0099819
:103B10000A9003E008980A9000E000BF00BF0A98EE
:103B20000CB0BDE8F08F00000000000000000000B5
:103B300001020304060708090010024000127A007F
:103B4000006CDC0200093D0000B51A48006840F036
:103B5000010018490860002000F044F8154840684A
:103B600020F00300134948600846006812490840E5
:103B7000104908600846006820F480200860084664
:103B800040680E4908400B494860084600680A49E9
:103B90000840084908600846006820F48020086052
:103BA0004FF41F0088600846C06A20F0C040C86219
:103BB00000BD000000100240FFFFF6FE0C000020D8
:103BC0000146074A02EB9110006801F01F03012231
:103BD0009A40104008B1012070470020FCE7000027
:103BE00000100240F0B50646002400270025B6F577
:103BF000006F20D005DC8EB3102E0BD0182E73D1A1
:103C000061E0B6F5106F4CD0A6F540501038002892
:103C10006AD134E004E01120FFF7D2FF0546641CAE
:103C20001DB94FF6FF708442F5D11120FFF7C8FF90
:103C300000B1012759E005E040F60100FFF7C0FFA1
:103C40000546641C1DB96FF07C408442F4D140F6F7
:103C50000100FFF7B5FF00B1012746E0FFE704E0F0
:103C60000120FFF7ADFF0546641C15B9B4F5A06F40
:103C7000F6D10120FFF7A4FF00B1012735E005E0F0
:103C800043F21100FFF79CFF0546641C15B9184864
:103C90008442F5D143F21100FFF792FF00B10127F2
:103CA00023E005E040F60110FFF78AFF0546641C9B
:103CB00015B90F488442F5D140F60110FFF780FF97
:103CC00000B1012711E004E01920FFF779FF054654
:103CD000641C15B906488442F6D11920FFF770FF1D
:103CE00000B1012701E0FFE700BF00BF3846F0BD8B
:103CF000FFFF0F00064A02EB9011096800F01F0356
:103D000001229A409143024B03EB901211607047DD
:103D100000100240064A02EB9011096800F01F03F0
:103D200001229A401143024B03EB9012116070473D
:103D300000100240064A02EB9011096800F01F03D0
:103D400001229A409143024B03EB9012116070479D
:103D500000100240064A02EB9011096800F01F03B0
:103D600001229A401143024B03EB901211607047FD
:103D7000001002402DE9F04105460E461746691E27
:103D800056F82100FCF78BFA0446002C01DB032CCB
:103D900005DD0748016807A0FDF7DAF805E00448EB
:103DA000046001680DA0FDF7D3F80020BDE8F081A4
:103DB000000000206C6F67206C6576656C20736571
:103DC00074206572726F722C206F6C64206C657643
:103DD000656C2069732025640D0A00006C6F6720F4
:103DE0006C6576656C2073657420737563636573A9
:103DF000732C206E6577206C6576656C2069732066
:103E000025640D0A00000000002000213F4A1268CE
:103E100042F480323D4B1A6000BF401C3B4A12689E
:103E200002F4003119B94FF6FF729042F5D1374ACA
:103E3000126802F400320AB900BFFEE7334AD269C1
:103E400042F08052314BDA61314A126842F440420A
:103E50002F4B1A602D4A52682C4B5A601A465268F2
:103E60005A601A46526842F480625A601A46526892
:103E700022F440325A601A46526842F440325A6084
:103E80001A465268234B1A40204B5A601A46526811
:103E9000214B1A431D4B5A601A46126842F0807239
:103EA0001A6000BF194A126802F00072002AF9D0A5
:103EB000174A126842F48032154B1A6000BF144A48
:103EC000526802F48032002AF9D0114A126842F492
:103ED00000320F4B1A6000BF0D4A526802F40032E4
:103EE000002AF9D0094A526822F00302074B5A60AF
:103EF0001A46526842F002025A6000BF034A5268F2
:103F000002F00802002AF9D07047000000100240B9
:103F100000700040FFFFC3B70000040810B5FFF7B2
:103F200073FF10BDCA43026170470246D06800EAC1
:103F300001031069084010B10BB101207047002047
:103F4000FCE700004FF4FA64012000F021F94AF286
:103F50005A51884200D1704C022000F019F945F600
:103F60005F71884204D101206C490870FDF7AEFCF6
:103F7000642000F0F1FCCEE04FF47A7000F0ECFC2D
:103F800067480068401C6649086008460068634846
:103F90000078062879D2DFE800F0038B79AA66B9A9
:103FA0005F48006800EB4001C1EBC010B4EBC00FEC
:103FB00029D85C48006802281DDB022030B10128A6
:103FC00008D002280AD0032810D10BE056A0FCF735
:103FD000BFFF0CE057A0FCF7BBFF08E058A0FCF7C0
:103FE000B7FF04E059A0FCF7B3FF00E000BF00BF3B
:103FF00059A0FCF7ADFF0021012000F0CFF85A488E
:1040000000F0DEF82EE04748006802282ADB022094
:1040100030B1012808D002280AD0032810D10BE0C3
:1040200041A0FCF795FF0CE042A0FCF791FF08E0EF
:1040300043A0FCF78DFF04E044A0FCF789FF00E0FB
:1040400000BF00BF3648006800EB4001C1EBC01064
:10405000A4EBC0004FF47A71B0FBF1F5294643A000
:10406000FCF776FF55E02E48006800EB4001C1EBFD
:10407000C01040F6B831B1EBC00F05D80020284978
:1040800008601520FDF750FC43E041E0244800683B
:1040900000EB4001C1EBC01040F6B831B1EBC00FEE
:1040A00005D800201E4908600620FDF73DFC30E0E1
:1040B0001B48006800EB4001C1EBC0104FF47A715F
:1040C000B1EBC00F08D80020154908602F480078D0
:1040D00080F001002D4908702C48007818B1432069
:1040E000FDF722FC02E01520FDF71EFC11E0022086
:1040F00000F032FC0021012000F050F800210220E5
:1041000000F04CF8184800F05BF802E0FCF770FD96
:1041100000BF00BF00BF2FE7C0D401002000002077
:1041200024000020000000205B452F4442475D2012
:10413000000000005B572F4442475D200000000054
:104140005B492F4442475D20000000005B442F4440
:1041500042475D20000000006A756D7020746F207A
:10416000415050200D0A0000008000086A756D70F3
:1041700020746F20415050203A636F756E74646FE5
:10418000776E203D20256420730D0A001800002062
:1041900010B504462046FDF72BF910BD70B5044656
:1041A0000D4640F21B70FFF7B5FD40F21C70FFF7A3
:1041B000B1FDFEF797FD29462046FDF735F970BDA4
:1041C00004464FF6FF7080F3108800BF4FF0FF30B9
:1041D00000F01F02012191403D4A430942F823109B
:1041E00000BFFFF7B1FCFDF7BFFF40F20B60FFF728
:1041F00081FD4FF4E060FFF77DFD40F20170FFF7B5
:1042000079FD40F20270FFF775FD40F20370FFF791
:1042100071FD40F20E60FFF76DFD40F21170FFF787
:1042200069FD40F21270FFF765FD40F21570FFF76F
:1042300061FD40F21670FFF75DFD40F20260FFF78E
:1042400059FD40F20360FFF755FD40F20460FFF7AF
:1042500051FD40F20560FFF74DFD40F20660FFF7AB
:1042600049FD40F20760FFF745FD4FF4C160FFF7DD
:1042700041FD40F20960FFF73DFD40F20A60FFF7A3
:1042800039FD40F20F60FFF735FD002008E04FF0E8
:10429000FF320F4941F820200E4941F82020401CF0
:1042A0000828F4D365682E4600212046FEF788FCD6
:1042B000002080F3148800BF206880F3088800BFC6
:1042C000002080F3108800BFB04700BFFEE7000069
:1042D00080E100E080E200E02DE9F04704460D4671
:1042E0000027B846B94600261D49601A8C421CD0EA
:1042F00006DC1C48204470B1B0F5806F1FD10FE080
:10430000B0F5806F16D0B0F56C4F18D10320FFF7D1
:104310006FFB074614E00220FFF76AFB07460FE039
:104320000220FFF765FB07460AE00220FFF760FB6B
:10433000074605E00220FFF75BFB074600E000BFF1
:1043400000BF07EB5500B0FBF5F64FF6F07006EA3C
:10435000000806F00F0948EA0900A060BDE8F087F0
:10436000004C004000BCFFBF01464868C0F3080095
:104370007047C1F3080242607047000010B5044660
:104380002049601A8C4228D006DC1F48204490B196
:10439000B0F5806F33D117E0B0F5806F26D0B0F55F
:1043A0006C4F2CD140F20E30FFF7D4FC40F20E30AF
:1043B000FFF7C0FC24E040F21140FFF7CBFC40F2D5
:1043C0001140FFF7B7FC1BE040F21240FFF7C2FCC0
:1043D00040F21240FFF7AEFC12E040F21340FFF74C
:1043E000B9FC40F21340FFF7A5FC09E040F214408D
:1043F000FFF7B0FC40F21440FFF79CFC00E000BF68
:1044000000BF10BD004C004000BCFFBFC16841F4BC
:104410000051C160704710B5024602EB9110006870
:1044200001F01F040123A340184008B1012010BD72
:104430000020FCE70A460021416921F40071114384
:10444000416170470A460021416921F4807111439E
:104450004161704710B500EB9112126801F01F0422
:104460000123A3409A4300EB91131A6010BD10B5CD
:1044700000EB9112126801F01F040123A3401A43BC
:1044800000EB91131A6010BD10B500EB9152126849
:10449000C1F304440123A3409A4300EB91531A60F3
:1044A00010BD70B5024600230024C1F389101058D6
:1044B00001F01F060125B54000EA050302EB91500B
:1044C0000068C1F304460125B54000EA050414B1B3
:1044D0000BB1012070BD0020FCE7C26822F4C0626D
:1044E000C260C2680A43C26070470A460021C168C0
:1044F00021F004011143C1607047026922F4405267
:10450000026102690A43026170470A460021C168DC
:1045100021F008011143C1607047C26822F4805243
:10452000C260C2680A43C260704701460A69D1E9A5
:1045300001309860D1E9010358605068884201D188
:1045400088685060002008611068401E1060106884
:10455000704710B5FDF7F8FD10BD000070B50546B9
:104560000C461248006800281EDB002030B10128EC
:1045700008D002280AD0032810D10BE00CA0FCF7C9
:10458000E7FC0CE00DA0FCF7E3FC08E00EA0FCF754
:10459000DFFC04E00FA0FCF7DBFC00E000BF00BF85
:1045A00021460FA0FCF7D4FC70BD000000000020E5
:1045B0005B452F4442475D20000000005B572F44BD
:1045C00042475D20000000005B492F4442475D20C8
:1045D000000000005B442F4442475D2000000000C3
:1045E0007461736B20737461636B206F76657266A0
:1045F0006C6F772C2025730D0A00000000F1080174
:1046000041604FF0FF31816000F10801C16001613C
:1046100000210160704700210161704710B502461A
:104620000B685C1C0CB9106907E002F1080000E09F
:104630004068446824689C42FAD944684C604C68DD
:10464000A160886041600A611468641C146010BD38
:1046500042684A6093688B60936859609160086112
:1046600003685B1C0360704710B500BF202080F317
:104670001188BFF34F8FBFF36F8F00BF0B480068E7
:10468000401C0A4908600846006801280DD1084806
:104690000068C0B208B9012000E0002028B940F24B
:1046A000A71204A10EA0FCF753FC10BD20010020AE
:1046B00004ED00E02E2E5C6672656572746F735CAB
:1046C000706F727461626C655C525644535C415207
:1046D0004D5F434D34465C706F72742E6300000072
:1046E0004572726F723A25732C25640D0A00000022
:1046F00010B50B48006828B94FF4D77209A114A06F
:10470000FCF726FC06480068401E0549086008467C
:10471000006820B9002080F3118800BF00BF10BDE1
:10472000200100202E2E5C6672656572746F735CCA
:10473000706F727461626C655C525644535C415296
:104740004D5F434D34465C706F72742E6300000001
:104750004572726F723A25732C25640D0A000000B1
:1047600070B506463546002E35D0083D2C461A4910
:1047700060680968084008B1012000E0002028B9FD
:104780004FF48B7215A11FA0FCF7E2FB206808B95B
:10479000012000E0002028B940F217120FA119A053
:1047A000FCF7D6FB0C4960680968084098B120689E
:1047B00088B90949606809688843606000F0A2FA16
:1047C0001449606809680844124908602046FEF7E9
:1047D00015FD01F061FA70BD1C0100202E2E5C66F3
:1047E00072656572746F735C706F727461626C6510
:1047F0005C4D656D4D616E675C686561705F342E00
:10480000630000004572726F723A25732C25640DA7
:104810000A0000001401002000204FF0E021086190
:104820008861064800684FF47A71B0FBF1F0401ED1
:104830004FF0E0214861072008617047B400002074
:1048400070B5FBF7DDFC0546102D11D305F1E02016
:1048500090F8F04310480078844201DB012000E02A
:10486000002028B940F2FF220CA117A0FCF770FB32
:104870001948006800F4E06018490968884201D8C6
:10488000012000E0002028B940F20F3203A10EA061
:10489000FCF75EFB70BD0000240100202E2E5C663C
:1048A00072656572746F735C706F727461626C654F
:1048B0005C525644535C41524D5F434D34465C70EC
:1048C0006F72742E630000004572726F723A257326
:1048D0002C25640D0A0000000CED00E028010020EA
:1048E000024600200BE0084B53F8303033B9064B3A
:1048F00043F8301003EBC0035A6002E0401C0F285D
:10490000F1D300BF70470000C00400202DE9F04142
:1049100005460E4617462C46FFF7A6FE94F94400BE
:10492000401C10B9002084F8440094F94500401C54
:1049300010B9002084F84500FFF7DAFEA06B28B913
:104940003A46314604F1240000F07CF82046FEF798
:104950003CFFBDE8F081000070B504460025ACB115
:104960000F48006808B9012000E0002028B940F293
:104970002D520CA110A0FCF7EBFA00F0C3F90021B6
:104980002046FEF7B9F901F087F905463DB94FF029
:1049900080500D490860BFF34F8FBFF36F8F70BD1C
:1049A000F00000202E2E5C6672656572746F735C79
:1049B0007461736B732E63004572726F723A257364
:1049C0002C25640D0A00000004ED00E0034909688D
:1049D000016003490968416070470000E000002061
:1049E000CC0000200120014908607047DC00002055
:1049F00070B504460D462CB940F6AC3207A10CA0A8
:104A0000FCF7A6FA0E48016818312046FFF706FEAB
:104A100001212846FEF770F970BD00002E2E5C665D
:104A200072656572746F735C7461736B732E63006F
:104A30004572726F723A25732C25640D0A000000CE
:104A4000B800002070B505460E4614462DB940F654
:104A5000D73209A10DA0FCF77BFA10480168183184
:104A60002846FFF7F5FD0CB14FF0FF3621463046E2
:104A7000FEF742F970BD00002E2E5C66726565720D
:104A8000746F735C7461736B732E63004572726F25
:104A9000723A25732C25640D0A000000B80000202E
:104AA00070B505462C462DB940F229721AA11FA0F7
:104AB000FCF74EFA2148006884422BD054B3FFF72C
:104AC000D3FD2046FEF73AFE10B3201DFFF72DFD63
:104AD00094F82C10012088401949096808431849A6
:104AE0000860E16A01EB8101164A02EB8100211D99
:104AF000FFF7AEFD1149E06A0968C96A884207D329
:104B00004FF0805010490860BFF34F8FBFF36F8F95
:104B1000FFF7EEFD70BD00002E2E5C6672656572BB
:104B2000746F735C7461736B732E63004572726F84
:104B3000723A25732C25640D0A000000B80000208D
:104B4000D00000203805002004ED00E01CB51A4814
:104B500000210B468222CDE9001018A1194800F06F
:104B6000DDFE0446012C02D101F026F90446012C99
:104B700015D100BF202080F31188BFF34F8FBFF302
:104B80006F8F00BF4FF0FF300F49086001200F49C1
:104B9000086000200E49086000F0CEFA0BE0601CAF
:104BA00008B1012000E0002028B940F6110209A157
:104BB0000DA0FCF7CDF91CBDEC00002049444C458C
:104BC0000000000055300008E8000020D40000205C
:104BD000CC0000202E2E5C6672656572746F735C6B
:104BE0007461736B732E63004572726F723A257332
:104BF0002C25640D0A00000070B50546FFF734FD52
:104C000015B92F48006800E028460446201DFFF72C
:104C10008CFC78B9E06A00EB80002A4951F820004A
:104C200040B994F82C100120884027490968814335
:104C300025480160A06A18B104F11800FFF775FC5F
:104C4000211D2248FFF704FD94F85C00012802D1E1
:104C5000002084F85C00FFF74BFD1D48006828B178
:104C6000FFF702FDFEF7A4FCFFF742FD14480068C1
:104C7000844224D116480068A8B11648006808B9D3
:104C8000012000E0002028B940F2D56212A117A04F
:104C9000FCF75EF94FF0805018490860BFF34F8F62
:104CA000BFF36F8F0BE00948006815490968884217
:104CB00003D100200249086001E000F02BF870BD2C
:104CC000B800002038050020D0000020080800208F
:104CD000D4000020F00000202E2E5C667265657204
:104CE000746F735C7461736B732E63004572726FC3
:104CF000723A25732C25640D0A00000004ED00E0D3
:104D0000C800002002480068401C01490860704744
:104D1000F000002010B52248006818B10120214998
:104D200008603BE000201F4908601F4800680068D9
:104D30001D490968096B884205D81B480168343150
:104D40000068FFF70BFC19480068B0FA80F0C0F16A
:104D50001F0404EB8400164951F8200008B101201B
:104D600000E0002028B940F6953212A116A0FCF709
:104D7000EFF804EB84010E4A02EB810041684968B8
:104D8000416000F1080142688A4202D141684968E5
:104D900041604168C968044A116000BF10BD00004D
:104DA000F0000020DC000020B8000020D00000202F
:104DB000380500202E2E5C6672656572746F735C18
:104DC0007461736B732E63004572726F723A257350
:104DD0002C25640D0A00000010B540F61D10FEF7EA
:104DE000EFFE012822D18E48006801281DDB01203A
:104DF00030B1012808D002280AD0032810D10BE0D6
:104E000088A0FCF7A5F80CE089A0FCF7A1F808E061
:104E10008AA0FCF79DF804E08BA0FCF799F800E06D
:104E200000BF00BF8BA0FCF793F8EEE040F61E1029
:104E3000FEF7C6FE012822D1794800680128F4DB7C
:104E4000012030B1012808D002280AD0032810D14F
:104E50000BE074A0FCF77CF80CE075A0FCF778F888
:104E600008E076A0FCF774F804E077A0FCF770F88F
:104E700000E000BF00BF7EA0FCF76AF8C5E040F686
:104E80001B10FEF79DFE012822D16548006801280D
:104E9000CBDB012030B1012808D002280AD003283A
:104EA00010D10BE05FA0FCF753F80CE060A0FCF71A
:104EB0004FF808E061A0FCF74BF804E062A0FCF7B3
:104EC00047F800E000BF00BF71A0FCF741F89CE08C
:104ED00040F61C10FEF774FE012822D150480068ED
:104EE0000128A2DB012030B1012808D002280AD015
:104EF000032810D10BE04BA0FCF72AF80CE04CA0E3
:104F0000FCF726F808E04DA0FCF722F804E04EA0DC
:104F1000FCF71EF800E000BF00BF65A0FCF718F822
:104F200073E040F61A10FEF74BFE012822D13C48F0
:104F30000068012869DB012030B1012808D002286F
:104F40000AD0032810D10BE036A0FCF701F80CE0E2
:104F500037A0FBF7FDFF08E038A0FBF7F9FF04E0FE
:104F600039A0FBF7F5FF00E000BF00BF57A0FBF73B
:104F7000EFFF4AE040F61F10FEF722FE012822D183
:104F800027480068012840DB012030B1012808D003
:104F900002280AD0032810D10BE022A0FBF7D8FF8B
:104FA0000CE023A0FBF7D4FF08E024A0FBF7D0FF20
:104FB00004E025A0FBF7CCFF00E000BF00BF4CA041
:104FC000FBF7C6FF21E01648006801281DDB012021
:104FD00030B1012808D002280AD0032810D10BE0F4
:104FE00010A0FBF7B5FF0CE011A0FBF7B1FF08E044
:104FF00012A0FBF7ADFF04E013A0FBF7A9FF00E050
:1050000000BF00BF44A0FBF7A3FFFEF7E7FC0421AD
:105010004FF47A70FDF764F8FDF79EF810BD0000BC
:10502000000000205B452F4442475D200000000047
:105030005B572F4442475D20000000005B492F442E
:1050400042475D20000000005B442F4442475D2042
:105050000000000073797374656D20726573657468
:1050600020726561736F6E3A20465744470D0A00FF
:1050700073797374656D20726573657420726561F0
:10508000736F6E3A2057574447540D0A00000000D2
:1050900073797374656D20726573657420726561D0
:1050A000736F6E3A20706F776572206F6E0D0A0015
:1050B00073797374656D20726573657420726561B0
:1050C000736F6E3A20736F66740D0A007379737490
:1050D000656D20726573657420726561736F6E3AD9
:1050E0002065787465726E616C2050494E0D0A001F
:1050F00073797374656D2072657365742072656170
:10510000736F6E3A206C6F772D706F7765722072B7
:10511000657365740D0A000073797374656D207290
:105120006573657420726561736F6E3A20756E6B7E
:105130006F776E0D0A0000001CB55048006850499A
:10514000884201D0012000E0002028B940F2351249
:105150004CA157A0FBF7FCFE484800684849491E8F
:10516000884201D0012000E0002028B94FF49B7252
:1051700044A14FA0FBF7ECFE514C20460078019073
:10518000FF20214608700846007800909DF8000036
:1051900000F0F0009DF80010884201D1012000E0ED
:1051A000002028B940F24F1236A141A0FBF7D0FEF3
:1051B0009DF8000000F02000424908700720424995
:1051C000086009E040480068401E3F4908609DF8BB
:1051D00000004006000E00909DF8000000F08000E6
:1051E0008028EFD038480068C0F10700042801D1BA
:1051F000012000E0002028B94FF4B17221A12CA0B9
:10520000FBF7A6FE30480068C0F10700042801D172
:10521000012000E0002028B940F26B1219A124A05F
:10522000FBF796FE284800680002274908600846F8
:10523000008800F4E06008602149019808700F4878
:105240002030006840F470000C49203108600846A6
:10525000006840F070400860FFF7DEFA00201B494C
:105260000860FAF795FF1A48006840F04040184976
:105270000860FAF779FF00201CBD000000ED00E097
:1052800071C20F412E2E5C6672656572746F735C1D
:10529000706F727461626C655C525644535C41522B
:1052A0004D5F434D34465C706F72742E6300000096
:1052B0004572726F723A25732C25640D0A00000046
:1052C00000E400E02401002028010020200100204B
:1052D00034EF00E010B500BF202080F31188BFF349
:1052E0004F8FBFF36F8F00BF00F060FB18B14FF01E
:1052F00080500449086000BF002080F3118800BF7F
:1053000010BD000004ED00E02DE9F84305460E460F
:1053100090460DB1012000E0002028B94FF4BB7287
:105320000DA112A0FBF714FE0EB9002701E005FB4A
:1053300006F707F15400FEF791FA04464CB1A14676
:1053400009F1540943464A46314628460094FDF780
:1053500097FE2046BDE8F8832E2E5C667265657266
:10536000746F735C71756575652E63004572726F3D
:10537000723A25732C25640D0A00000070B50546AD
:105380000E462C462CB940F203121EA122A0FBF7B8
:10539000DFFDFFF769F9D4E90F12206801FB020075
:1053A000A0600020A06320686060E06B401E226C5B
:1053B000216800FB0211E160FF2084F8440084F8BA
:1053C00045009EB9206908B9012000E00020A8B975
:1053D00004F1100000F006FC80B14FF0805012493B
:1053E0000860BFF34F8FBFF36F8F07E004F1100029
:1053F000FFF704F904F12400FFF700F9FFF778F94B
:10540000012070BD2E2E5C6672656572746F735CD0
:1054100071756575652E63004572726F723A2573FA
:105420002C25640D0A00000004ED00E02DE9FF4783
:1054300082B0064688461D464FF0000934462CB916
:1054400040F2F12264A169A0FBF782FDB8F1000FE0
:1054500001D1206C08B9012000E0002028B940F2F9
:10546000F2225DA161A0FBF773FD022D02D1E06B7A
:10547000012801D1012000E0002028B940F2F322E8
:1054800055A15AA0FBF764FD00F07AFA08B9049818
:1054900008B9012000E0002028B940F2F6224EA110
:1054A00052A0FBF755FD00BFFFF7DEF8A06BE16BE4
:1054B000884201D3022D3FD1D4F838A02A46414674
:1054C0002046FDF72CFD0746A06C90B1022D02D1BD
:1054D000BAF1000F2AD129462046FDF70BFF28B369
:1054E0004FF0805045490860BFF34F8FBFF36F8F77
:1054F0001CE0606A08B9012000E0002068B904F1EE
:10550000240000F06FFB88B14FF080503B490860E9
:10551000BFF34F8FBFF36F8F08E03FB14FF0805064
:1055200036490860BFF34F8FBFF36F8FFFF7E0F886
:10553000012006B0BDE8F087049818B9FFF7D8F845
:105540000020F6E7B9F1000F04D16846FFF73EFAF4
:105550004FF00109FFF7CCF8FFF7D4FBFFF784F811
:1055600094F94400401C10B9002084F8440094F9D8
:105570004500401C10B9002084F84500FFF7B8F83A
:1055800004A9684600F07CF9F8B92046FDF7A3FEAF
:10559000A8B104F110000499FFF72AFA2046FEF79B
:1055A00014F900F079FB00287FF47EAF4FF08050B3
:1055B00012490860BFF34F8FBFF36F8F74E7204627
:1055C000FEF703F900F068FB6EE72046FEF7FDF8F2
:1055D00000F062FB0020ACE72E2E5C6672656572FF
:1055E000746F735C71756575652E63004572726FBB
:1055F000723A25732C25640D0A00000004ED00E0CA
:105600002DE9F05F80468A4615461E4644462CB971
:1056100040F2C33235A13AA0FBF79AFCBAF1000F71
:1056200001D1206C08B9012000E0002028B94FF416
:1056300071722EA132A0FBF78BFC022E02D1E06B1F
:10564000012801D1012000E0002028B940F2C53234
:1056500026A12BA0FBF77CFCFFF7F2F800BF20216E
:10566000EFF3118081F31188BFF34F8FBFF36F8F7A
:1056700000BF0746A06BE16B884201D3022E2BD1FD
:1056800094F945B0324651462046FDF748FC0BF1EF
:105690000100C8B9A06C40B131462046FDF72AFE92
:1056A000B8B1B5B10120286013E0606A08B90120E3
:1056B00000E0002068B904F1240000F093FA40B142
:1056C0003DB10120286004E00BF1010040B284F8F4
:1056D00045004FF0010901E04FF0000900BF87F3DA
:1056E000118800BF4846BDE8F09F00002E2E5C6682
:1056F00072656572746F735C71756575652E630094
:105700004572726F723A25732C25640D0A000000F1
:105710002DE9F74183B005460E464FF000082C46B0
:105720002CB94FF4A0624CA150A0FBF711FC0EB9AC
:10573000206C08B9012000E0002028B940F2045292
:1057400045A14AA0FBF704FC00F01AF908B9059836
:1057500008B9012000E0002028B940F209523EA11A
:1057600042A0FBF7F5FB00BFFEF77EFFA76BF7B18A
:1057700031462046FDF7BEFB781EA063206908B9BC
:10578000012000E0002060B904F1100000F02AFAC6
:1057900038B14FF0805039490860BFF34F8FBFF3E5
:1057A0006F8FFEF7A5FF012006B0BDE8F0810598D8
:1057B00018B9FEF79DFF0020F6E7B8F1000F04D1FD
:1057C00001A8FFF703F94FF00108FEF791FFFFF77B
:1057D00099FAFEF749FF94F94400401C10B90020E3
:1057E00084F8440094F94500401C10B9002084F866
:1057F0004500FEF77DFF05A901A800F041F8F0B9CA
:105800002046FDF75BFDA0B104F124000599FFF7E8
:10581000EFF82046FDF7D9FF00F03EFA0028A3D1AB
:105820004FF0805015490860BFF34F8FBFF36F8F63
:105830009AE72046FDF7C9FF00F02EFA94E72046CC
:10584000FDF7C3FF00F028FA2046FDF737FD0028DA
:105850008AD00020A8E700002E2E5C667265657273
:10586000746F735C71756575652E63004572726F38
:10587000723A25732C25640D0A00000004ED00E047
:1058800070B505460C462DB940F6724218A11DA010
:10589000FBF75EFB2CB940F6734215A119A0FBF78C
:1058A00057FBFEF7E1FE1B4802686868131A206880
:1058B000401C08B9002617E0174928680968884283
:1058C00004D06868904201D801260DE02068984213
:1058D00007D92068C01A20602846FFF777F800260D
:1058E00002E0002020600126FEF702FF304670BD76
:1058F0002E2E5C6672656572746F735C7461736B77
:10590000732E63004572726F723A25732C25640DF5
:105910000A000000CC000020E00000202DE9FF4F2D
:1059200085B0804689461646DDE912ABB000FDF72A
:1059300095FF054655B16020FDF790FF04460CB178
:10594000256304E02846FEF70BFF00E000247CB14D
:105950000020CDE900ABCDE9024032464946404641
:10596000089BFDF7A5FB2046FDF712FA012702E090
:1059700000BF00BFFEE7384609B0BDE8F08F000069
:105980000549096809B9012005E00449096809B910
:10599000022000E000207047D4000020F00000202A
:1059A0000149086870470000CC0000202DE9F04153
:1059B0004FF0000841480068002872D14048006854
:1059C000451C3F480560EDB93E480068006808B9CD
:1059D000012000E0002028B940F66F223AA13FA044
:1059E000FBF7B6FA37480768404800683549086051
:1059F0003E4807603E480068401C3D490860FDF78E
:105A0000D7FD00BF3B48006885423CD300BF2D480E
:105A10000068006808B9012000E0002020B14FF0C4
:105A2000FF30344908602DE026480068C068C4682B
:105A30006668B54202D22F48066023E0201DFEF7BB
:105A400074FDA06A18B104F11800FEF76EFD94F819
:105A50002C1001208840284909680843264908601D
:105A6000E16A01EB8101254A02EB8100211DFEF76D
:105A7000EFFD2349E06A0968C96A8842C7D34FF03D
:105A80000108C4E700BF1E480068C06A00EB800040
:105A90001A4951F82000012801D94FF0010805E00A
:105AA000FFE718480068401C16490860164800685F
:105AB00008B14FF001084046BDE8F081F000002039
:105AC000CC000020BC0000202E2E5C667265657242
:105AD000746F735C7461736B732E63004572726FC5
