:020000040800F2
:10000000A085002009020008F90B0008130200086F
:10001000F50B00084B050008910F000800000000D8
:10002000000000000000000000000000490100087E
:100030000D06000800000000A5010008670C00087C
:1000400023020008230200082302000823020008FC
:1000500023020008230200082302000823020008EC
:1000600023020008230200082302000823020008DC
:1000700023020008230200082302000823020008CC
:1000800023020008230200082302000823020008BC
:1000900023020008230200082302000823020008AC
:1000A000230200082302000823020008230200089C
:1000B00023020008210D000823020008C1070008E0
:1000C00011070008310A000881090008230200080E
:1000D00023020008650E0008450F000823020008EF
:1000E000230200082302000823020008230200085C
:1000F000230200082302000823020008230200084C
:10010000230200082302000823020008230200083B
:10011000230200082302000823020008230200082B
:10012000230200082302000823020008230200081B
:10013000DFF810D000F02AF900480047992C000899
:10014000AFF30080A08500202C4B19680868B0E848
:10015000F04F80F30988BFF36F8F4FF0000080F3FA
:10016000118870470000000008480068006880F3AC
:1001700008884FF0000080F3148862B661B6BFF3C0
:100180004F8FBFF36F8F00DF00BF00BF08ED00E0AF
:10019000DFF80C00016841F470010160704700BF96
:1001A00088ED00E0EFF30980BFF36F8F134B1A68FF
:1001B0001EF0100F08BF20ED108A20E9F04F1060EC
:1001C00009B44FF0200080F31188BFF34F8FBFF3C5
:1001D0006F8F04F027FF4FF0000080F3118809BCF7
:1001E00019680868B0E8F04F1EF0100F08BFB0ECB7
:1001F000108A80F30988BFF36F8F7047C00000201A
:10020000EFF3058070470000064880470648004726
:10021000FEE7FEE7FEE7FEE7FEE7FEE7FEE7FEE7B6
:10022000FEE7FEE7790C00083101000840EA01030F
:100230009B0703D009E008C9121F08C0042AFAD29C
:1002400003E011F8013B00F8013B521EF9D2704760
:10025000D2B201E000F8012B491EFBD27047002208
:10026000F6E710B513460A4604461946FFF7F0FFB5
:10027000204610BD421C10F8011B0029FBD1801A3A
:10028000704710B5002200E0521C835C8C5CA342D6
:1002900001D1002BF8D1D8B2E1B2401A10BD70B52F
:1002A000064600F087FE046805460A220021304613
:1002B00000F033F82C6070BD2DE9F05F054600209A
:1002C00092469B4688460646814640241BE02846C7
:1002D00041464746224600F07AF853465A46C01A2D
:1002E000914110D311461846224600F061F82D1AAC
:1002F00067EB01084F4622460120002100F058F824
:1003000017EB00094E41201EA4F10104DFDC484632
:1003100031462A464346BDE8F09F2DE9F047914615
:100320000F4680460446002614F8015B2DB100F00C
:100330005FF80068405DC007F6D12B2D02D02D2D4F
:1003400018D0641E4A463946204600F055F827B1B9
:100350003968A14201D1C7F8008071054FF002044D
:100360000BD54042002803DD00F024FE0460A00706
:10037000BDE8F08746F48066E4E70028F8DA00F08C
:1003800019FE04606FF00040F2E70000064C074DD4
:1003900006E0E06840F0010394E807009847103455
:1003A000AC42F6D3FFF7C8FEE86300080864000813
:1003B000202A04DB203A00FA02F100207047914025
:1003C000C2F1200320FA03F3194390407047202A1A
:1003D00004DB203A21FA02F00021704721FA02F3EF
:1003E000D040C2F1200291400843194670470000F6
:1003F00000487047586000082DE9F05F8246007899
:10040000002715468B460AF10104B946302801D071
:100410009DB113E014F8010B0127782803D0582868
:1004200001D045B10AE00DB1102D07D100271025EC
:1004300014F8010B02E0082500E00A250026B0466A
:100440000EE005FB080005FB06F1012701EB104655
:100450001FFA80F8B6F5803F00D3B94614F8010BB7
:10046000294600F018F80028EBDABBF1000F05D0A0
:100470000FB1641E00E05446CBF80040B9F1000F04
:1004800006D000F097FD02210160C81EBDE8F09F74
:1004900048EA0640FAE73A2800D2303820F0200235
:1004A000412A01D3A2F13700884201D34FF0FF3037
:1004B000704770B58C1810F8015B15F0070301D177
:1004C00010F8013B2A1106D110F8012B03E010F8B7
:1004D000016B01F8016B5B1EF9D12B0705D40023DA
:1004E000521E0DD401F8013BFAE710F8013BCB1A7C
:1004F000921C03E013F8015B01F8015B521EF9D571
:10050000A142D8D3002070BD10B5FFF779FE58B1D5
:1005100000BF2021EFF3118081F31188BFF34F8FCB
:10052000BFF36F8F00BF10BD04F026FA0020FAE77A
:1005300010B50446FFF764FE20B100BF84F31188B4
:1005400000BF01E004F05CFA10BD00BFFEE770B52B
:100550000446204601F042FC216B088C03F056FD56
:10056000216BC88B03F052FD4FF4C06003F04EFDC9
:10057000256B6A7C297CD5E9020301F093FF256B8A
:100580006A7F297FD5E9050301F08CFF206B406A63
:1005900020B1216B486A012101F0E2FF206804F0DC
:1005A00075F8226B1168206804F01EF8002120689D
:1005B00004F03BF90021206804F027F900212068AD
:1005C00004F013F90021206804F0C4F80021206829
:1005D00004F0B8F80421206804F00FF9082120681D
:1005E00004F01BF9206804F099F8236B9A79597983
:1005F000187902F0F5FB40F20531206804F0BFF8ED
:1006000040F20631206804F0BAF870BD7047014628
:10061000488808B9012070470020FCE702800023C9
:10062000438041608B1883604368C3604368036103
:10063000704770B504460D46608808B9002070BD4B
:10064000FFF762FF06462169481C20610878287080
:10065000A1682069884201D3606820616088401EDB
:1006600060803046FFF764FF0120E8E770B504467C
:100670000D4660882188884201DB002070BDFFF7AD
:1006800043FF0646E168481CE0600D70D4E90210A3
:10069000884201D36068E0606088401C608030461A
:1006A000FFF746FF0120E9E72DE9F04104460E4639
:1006B000174601F0F3FD40F2053001F057FD4FF40D
:1006C000417001F053FD40F2023001F04FFD25462C
:1006D0004FF0000813E056F82810284601F000FEFD
:1006E00008F101082D1D40F2053001F03FFD4FF4E7
:1006F000417001F03BFD40F2023001F037FDE0199E
:10070000A842E8D801F042FD0120BDE8F0810000D8
:1007100010B52349234802F001FA18B120492148B5
:1007200002F0E6F920491F4802F0F8F918B11E4915
:100730001C4802F0DDF91D491A4802F0EFF918B122
:100740001A49184802F0D4F91949164802F0E6F996
:1007500018B11749134802F0CBF91649114802F0B5
:10076000DDF918B113490F4802F0C2F912490D48DA
:1007700002F0D4F918B110490A4802F0B9F90F494A
:10078000084802F0CBF918B10C49064802F0B0F95C
:10079000044802F03BF9034802F07CF810BD000069
:1007A00008010A050054004008010F0508010E0564
:1007B00008010B05080109050801080508010C05D9
:1007C00010B55149514802F0A9F9C0B14E494F48FE
:1007D00002F08EF900204E490871C1F807004B481D
:1007E00000F03AFA4A49D1F80720D1F80710491C1D
:1007F000474BC3F8071003F10B01885482E04549C9
:10080000424802F08BF9A8B14148D0F80700401CDB
:10081000872877D83D4802F0F1F83D49D1F8072004
:10082000D1F80710491C3A4BC3F8071003F10B012C
:10083000885467E03849354802F070F9002861D0E3
:10084000324802F003F93248D0F80700012804D8F2
:1008500000202F49C1F8070010BD3048006800286B
:1008600050D02F48006800284CD02948007B00F069
:10087000040050B91320264908600023294A28485B
:10088000006804F0E7FE044609E0132020490860F0
:100890000023244A2148006804F0DCFE04460020BE
:1008A0001B49C1F807001F48006838B14FF080505D
:1008B0001D490860BFF34F8FBFF36F8F002C21D10C
:1008C0001A48006800281DDB002030B1012808D03C
:1008D00002280AD0032810D10BE015A000F05AFB23
:1008E0000CE016A000F056FB08E017A000F052FB49
:1008F00004E018A000F04EFB00E000BF00BF18A00D
:1009000000F048FB00BFA7E70901010500540040C3
:100910008505002009010605090104053C000020A9
:1009200038000020B400002004ED00E000000020AA
:100930005B452F4442475D20000000005B572F4479
:1009400042475D20000000005B492F4442475D2084
:10095000000000005B442F4442475D20000000007F
:100960006969632078517565756553656E64467273
:100970006F6D495352206661696C65642100000007
:1009800010B52349234802F0C9F818B1204921487D
:1009900002F0AEF820491F4802F0C0F818B11E4915
:1009A0001C4802F0A5F81D491A4802F0B7F818B122
:1009B0001A49184802F09CF81949164802F0AEF896
:1009C00018B11749134802F093F81649114802F07C
:1009D000A5F818B113490F4802F08AF812490D48DA
:1009E00002F09CF818B110490A4802F081F80F494A
:1009F000084802F093F818B10C49064802F078F85C
:100A0000044802F003F8034801F044FF10BD000061
:100A100008010A050058004008010F0508010E05ED
:100A200008010B05080109050801080508010C0566
:100A300010B55249524802F071F8C8B14F495048B8
:100A400002F056F801204F4908710020C1F8070054
:100A50004B4800F001F94B49D1F80720D1F80710B5
:100A6000491C484BC3F8071003F10B01885482E07E
:100A70004549434802F052F8A8B14248D0F807006F
:100A8000401C872877D83E4801F0B8FF3D49D1F88F
:100A90000720D1F80710491C3A4BC3F8071003F19F
:100AA0000B01885467E03949354802F037F80028CF
:100AB00061D0334801F0CAFF3248D0F8070001285E
:100AC00004D800202F49C1F8070010BD3048006845
:100AD000002850D02F48006800284CD02948007BBF
:100AE00000F0040050B913202649086000232A4A68
:100AF0002848006804F0AEFD044609E013202149AF
:100B000008600023244A2248006804F0A3FD04463C
:100B100000201C49C1F807001F48006838B14FF099
:100B200080501E490860BFF34F8FBFF36F8F002CBA
:100B300021D11B48006800281DDB002030B10128AE
:100B400008D002280AD0032810D10BE015A000F02D
:100B500021FA0CE016A000F01DFA08E017A000F042
:100B600019FA04E018A000F015FA00E000BF00BF79
:100B700018A000F00FFA00BFA7E700000901010567
:100B800000580040850500200901060509010405FB
:100B90003C00002038000020B800002004ED00E0F8
:100BA000000000205B452F4442475D20000000000C
:100BB0005B572F4442475D20000000005B492F44F3
:100BC00042475D20000000005B442F4442475D2007
:100BD000000000006969632078517565756553658B
:100BE0006E6446726F6D495352206661696C65642C
:100BF0002100000000BFFEE77047000010B500288C
:100C000007DA0A07140E054A00F00F031B1FD4541D
:100C100003E00A07130E024A135410BD18ED00E05A
:100C200000E400E0BFF34F8F0648006800F4E06086
:100C300005490843001D03490860BFF34F8F00BFFB
:100C4000FEE700000CED00E00000FA0510B50320FF
:100C500003F026FC000A10BD10B50446032003F083
:100C60001FFCC0B210BD10B504F0B4FE012801D0C5
:100C700004F058FB10BD000008B52648006840F499
:100C80007000244908602448006840F001002249AF
:100C9000086000BF2048006800F002000028F9D07A
:100CA00000BF1D48406840F080001B49486000209C
:100CB000009002E00098401C009000985028F9D362
:100CC0001548406840F090001349486000200090AB
:100CD00002E00098401C009000985028F9D300BF13
:100CE0000D48406820F003000B4948600846006842
:100CF0000A490840084908604FF41F008860084608
:100D0000006820F48020086000204860C86203F07A
:100D100081FA08BD88ED00E000100240FFFFF6FEFA
:100D200010B50121074803F084FA012808D10648CC
:100D30000068401C044908600121024803F076FA6B
:100D400010BD0000000400404000002010B54FF42A
:100D5000FA7207490748FFF761FC32220649054845
:100D60001430FFF75BFC03480838FFF7F0FB10BDB9
:100D700048010020500000203C03002010B5C8228C
:100D800007490848FFF74AFCC822074905481430BC
:100D9000FFF744FC03480838FFF7D9FB10BD0000FB
:100DA000F503002088000020BD04002010B5FFF7E7
:100DB000CDFFFFF7E3FF10BD70B505460E46284690
:100DC00000F0F2FF04460CB9002070BD314604F17A
:100DD0000800FFF74BFC08B90020F6E7606801281F
:100DE00003D0211D284600F01BF80120EDE72DE976
:100DF000F04107460D461646002400BF0BE0295D72
:100E0000384603F03EFC00BF0721384603F08BFC58
:100E10000028F9D0641CB442F1DB0120BDE8F08168
:100E200038B505460C46201DFFF7F1FB28B12068B8
:100E300020F001002060002038BD2068012803D088
:100E4000206840F0010020606946201DFFF7F1FB9B
:100E5000012804D19DF80010284603F012FC01205F
:100E6000EAE7000070B52E492E4803F0A2FCF8B165
:100E70002C4803F001FCC4B22B4908684FF44171BF
:100E800003F07DFC2649274803F086FC072027490C
:100E90000870084641784078401C244A5070901CE5
:100EA0004454801E4078852802D90020114648709D
:100EB0001F491C4803F07DFC10B31B4908684FF420
:100EC000417103F04FFC19484078C8B119480068D7
:100ED00098B10023184A15491648006804F0BAFB77
:100EE00005461548006838B14FF080501349086036
:100EF000BFF34F8FBFF36F8F00BF00200B494870C7
:100F00000F49084803F055FC40B10D49054803F06E
:100F100043FC0549091D0348FFF782FF70BD00002F
:100F20000503050000380140480000206E03002042
:100F300004030400200000207C00002004ED00E0F9
:100F40000603060010B50E490E4803F032FC40B10E
:100F50000C4803F091FBC4B209490A4803F01CFC99
:100F600000BF0949074803F024FC38B10649054889
:100F700003F012FC05490348FFF752FF10BD0000C3
:100F8000050305000044004006030600840000201D
:100F900000BFFEE70FB4054B10B503A9044A029841
:100FA00000F01CF810BC5DF814FB00009923000849
:100FB00034010020004870473801002002E008C8D2
:100FC000121F08C1002AFAD170477047002001E0C3
:100FD00001C1121F002AFBD1704700002DE9FF4F0D
:100FE0008DB00F460546002606E025280BD0DDE92A
:100FF0000F1290476D1C761C28780028F5D111B08F
:101000003046BDE8F08F0024A246A1460122E949FE
:1010100000E0044315F8013F203B02FA03F00842C8
:10102000F7D128782A2810D06FF02F022878A0F165
:101030003001092914D80AEB8A0102EB410144F07E
:10104000020400EB010A6D1CF0E701CF5FEA000A21
:1010500003D544F40054CAF1000A44F002046D1CA4
:1010600028782E2817D115F8010F44F004042A28F7
:101070000ED06FF02F022878A0F1300109290AD88C
:1010800009EB890102EB410100EB01096D1CF2E75C
:1010900057F8049B6D1C28786C280FD006DC4C2870
:1010A00017D068280DD06A2814D104E0742810D015
:1010B0007A280FD10DE044F400140AE044F48014BF
:1010C00001E044F440146978814202D104F58014AF
:1010D0006D1C6D1C28786E281ED00CDC632830D067
:1010E00004DC00288BD0582811D19FE0642867D0F9
:1010F00069280CD164E073282DD004DC6F2872D0ED
:10110000702804D194E075286ED078286DD0DDE980
:101110000F129047761C4BE1C4F30250022806D010
:10112000032809D0042801CF09D0066040E101CF8F
:10113000F117C0E900613BE101CF068038E106709C
:1011400036E117F8040B8DF8000000208DF801003F
:10115000EB46012003E057F804BB4FF0FF30610776
:101160004FF0000102D40DE008F101018846494525
:101170000FDA8045F8DB1BF808100029F4D108E0ED
:1011800008F1010188468142FADB1BF808100029AA
:10119000F6D1DDE90F23AAEB08008146214600F0D5
:1011A00031F9304400EB080604E0DDE90F121BF8CA
:1011B000010B9047B8F10108F7D221464846F2E00A
:1011C0000A21C4F302524FF0000B0891022A04D006
:1011D00001CFC117032A09D00AE0FF1D27F0070736
:1011E000F7E8020108E02CE01EE01FE000B2C117A2
:1011F000042A01D140B2C117021E71F1000206DAC1
:101200000023D0EB030063EB01012D2202E0220555
:1012100004D52B228DF82420012203E0E20701D01F
:101220002022F7E7904653E00A210BE0102109E065
:1012300010214FF0000B44F004044FF0080908910E
:1012400003E008214FF0000B0891C4F30252022A78
:1012500004D001CF0021032A06D006E0FF1D27F0AD
:101260000707F7E8020103E080B2042A00D1C0B208
:101270004FF0000822072BD52A78702A07D0DDF816
:1012800020C08CF0100C5CEA0B0C05D00EE0402264
:101290008DF82420012208E050EA010306D0302313
:1012A0008DF824308DF8252002229046089B83F08B
:1012B000080353EA0B030BD150EA010201D1620784
:1012C00006D530228DF824204FF00108A9F101093C
:1012D0002A78582A04D038A20B9208AA0A920BE066
:1012E0003AA2F9E75B46089AFEF7E6FF0B9B9B5C88
:1012F0000A9A521E0A92137050EA0102F2D10A9819
:10130000ADEB000000F1200B600702D524F480341F
:1013100001E04FF00109D94502DDA9EB0B0000E027
:10132000002000EB0B0141440890AAEB010AE00306
:1013300006D4DDE90F232146504600F063F8064449
:101340004FF0000908E009A911F80900DDE90F12C2
:10135000904709F10109761CC145F4DBE0030CD587
:10136000DDE90F232146504600F04CF8064404E026
:10137000DDE90F1230209047761C0899481E08902E
:101380000029F5DC08E00A980A990078491C0A91BE
:10139000DDE90F129047761CBBF10001ABF1010BA8
:1013A000F1DC21465046DDE90F2300F019F8064430
:1013B0006D1C21E6092801003031323334353637CF
:1013C0003839616263646566000000003031323391
:1013D0003435363738394142434445460000000031
:1013E0002DE9F041044600251E461746880404D422
:1013F00005E039462020B0476D1C641EF9D528460B
:10140000BDE8F0812DE9F041044600251E469046D6
:10141000C80301D5302700E02027880404D505E063
:1014200041463846B0476D1C641EF9D52846BDE8D4
:10143000F0810000014600200B2909DB2A2907DC86
:10144000A1F10B02084B03EB8202B2F8400C09E059
:10145000012907DB0A2905DC4A1E034B03EB820244
:10146000B2F8040C70470000006000400B2809DB54
:101470002A2807DCA0F10B02084B03EB8202A2F83A
:10148000401C09E0012807DB0A2805DC421E034B4B
:1014900003EB8202A2F8041C7047000000600040C9
:1014A000C8B000229221032003F058FF24490860AD
:1014B00045E04FF0FF3223A92148006804F052F9BB
:1014C0009DF890008DF804009DF893008DF80500BC
:1014D0009DF80500421E26A90DF10600FEF7A6FEA6
:1014E00000BF0023322201A91648006803F0C8FF9C
:1014F000002822D11448006800281EDB002030B1EB
:10150000012808D002280AD0032810D10BE00FA030
:10151000FFF740FD0CE010A0FFF73CFD08E011A034
:10152000FFF738FD04E012A0FFF734FD00E000BF34
:1015300000BF214611A0FFF72DFD002CD1D0B8E748
:101540003800002020000020000000205B452F44D0
:1015500042475D20000000005B572F4442475D205A
:10156000000000005B492F4442475D20000000005E
:101570005B442F4442475D2000000000626F6F749F
:101580005F493263466F72776172645461736B3185
:1015900020466F7277617264206D7367206661699F
:1015A0006C6564203A202564200D0A00C8B0002232
:1015B0009221032003F0D2FE2449086045E04FF059
:1015C000FF3223A92148006804F0CCF89DF8900070
:1015D0008DF804009DF893008DF805009DF8050036
:1015E000421E26A90DF10600FEF720FE00BF0023D3
:1015F000322201A91648006803F042FF002822D1D8
:101600001448006800281EDB002030B1012808D0F3
:1016100002280AD0032810D10BE00FA0FFF7BAFC74
:101620000CE010A0FFF7B6FC08E011A0FFF7B2FC39
:1016300004E012A0FFF7AEFC00E000BF00BF2146AF
:1016400011A0FFF7A7FC002CD1D0B8E73C00002088
:1016500020000020000000205B452F4442475D2011
:10166000000000005B572F4442475D20000000004F
:101670005B492F4442475D20000000005B442F443B
:1016800042475D2000000000626F6F745F49326363
:10169000466F72776172645461736B3220466F7269
:1016A00077617264206D7367206661696C65642080
:1016B0003A202564200D0A002DE9F0410746BC1CA4
:1016C0002078512871D00CDC04286FD004DC01286C
:1016D00010D003286BD14AE1182869D04128F9D1EC
:1016E00054E155287ED061287DD071287CD07528A2
:1016F000F0D13DE1B4F883308022E11CAB480078A2
:1017000000F0E4FA0546B5B9A9480078012812D1DD
:10171000B4F88330A549097881F001008022E11CEA
:1017200000F0D4FA054605B93BE1A048007880F006
:1017300001009E4908702DB9152000F0F9F9042028
:10174000BDE8F0819A48007801280CD19949487089
:101750003878087008460078072802D1964800F0CB
:1017600033FA00F097F9607894490978884228D1D3
:1017700093480068032822DB032030B1012808D0F9
:1017800002280AD0032814D10BE08EA0FFF702FC38
:1017900010E08FA0FFF7FEFB0CE090A0FFF7FAFB34
:1017A00008E091A0FFF7F6FB04E0D8E0CDE0F7E019
:1017B000D3E000BF00BF61788EA0FFF7EBFB0220F3
:1017C000BEE77E480078401CC0B26178884228D0CD
:1017D0007B480068032822DB032050B101280CD08D
:1017E000022802E0C5E0D0E0B8E00AD0032810D11A
:1017F0000BE074A0FFF7CEFB0CE075A0FFF7CAFB6F
:1018000008E076A0FFF7C6FB04E077A0FFF7C2FB75
:1018100000E000BF00BF617880A0FFF7BBFB0420A1
:101820008EE7607865490870607828B98448006858
:1018300000F5807082490860607881490968084431
:10184000401E804901EBC0165D480068032822DB7A
:10185000032030B1012808D002280AD0032810D173
:101860000BE058A0FFF796FB0CE059A0FFF792FBA6
:1018700008E05AA0FFF78EFB04E05BA0FFF78AFBAD
:1018800000E000BF00BF60786D490968421831462A
:101890006DA0FFF77FFB754800884FF40041C1EB56
:1018A0008020B0F5003F01DD880005E06F4800882A
:1018B0004FF40041C1EB80206249014406F18000F1
:1018C000814238D2152000F033F93D4800680328E2
:1018D0002FDB032030B1012808D002280AD00328CA
:1018E00010D10BE037A0FFF755FB0CE038A0FFF755
:1018F00051FB08E039A0FFF74DFB04E03AA0FFF7E9
:1019000049FB00E000BF00BF584800884FF4004288
:10191000C2EB8020B0F5003F01DD900005E05348A8
:1019200000884FF40042C2EB8020014650A0FFF730
:1019300031FB042004E7062000F0FAF88022E11CC5
:101940003046FEF7B1FE0220FAE6062000F0F0F87D
:1019500000203B4908600320F2E600BF00BF0620DC
:1019600000F0E6F80020364908600520E8E600BFF0
:1019700000BF0F48007808B90120E1E60C48007864
:10198000022801D10520DBE60BE000BF0848007803
:1019900018B107480078012801D10320D0E600E003
:1019A00000BF00BF02480078CAE600001C0000200B
:1019B000240000202C0000200044004034000020BF
:1019C000000000205B452F4442475D2000000000DE
:1019D0005B572F4442475D20000000005B492F44C5
:1019E00042475D20000000005B442F4442475D20D9
:1019F0000000000075706461746520526563762094
:101A00006572726F72204475706C696361746520D1
:101A10007061636B65742025640D0A0075706461E4
:101A200074652052656376206572726F72207061F2
:101A3000636B6574206E756D202025640D0A0000AF
:101A400030000020008000087570646174652061BA
:101A5000646472203D202523582C20706167652026
:101A60004E756D203D202564200D0A00E0F7FF1F14
:101A70007570646174652052656376206572726F5B
:101A800072206F76657220415050204C454E2025C3
:101A9000640D0A0070B510250D490988EA02C2EBF1
:101AA0008121B1F5003F01DD910005E00849098879
:101AB0004FF40042C2EB8121481CC11700EB515189
:101AC000CC12A1B2A8B200F0C3FA012070BD000090
:101AD000E0F7FF1F1CB500F0E1FF00200F210346D7
:101AE0004FF48272CDE9001007A10B4803F040FFCC
:101AF0000020102103464FF48272CDE9001007A1A7
:101B00000A4803F035FF1CBD466F7277617264545A
:101B100061736B3100000000A1140008466F7277FA
:101B20006172645461736B3200000000AD150008EF
:101B300038B504462248007878B101280ED007282D
:101B400022D121461F4802F09CFD00BF07211D48FD
:101B500002F0E9FD0028F9D017E000BF184800782E
:101B6000012800D100E000200546FFF76FF88DF84E
:101B700000005A208DF801008DF8024003226946CA
:101B8000284601F04FF800E000BF00BF0C48407845
:101B9000A8B90B48007820B1012806D0072808D141
:101BA00008E001200649087008E007200449087091
:101BB00004E000BF00200249087000BF00BF38BD2C
:101BC0002C000020003801400149086070470000E7
:101BD00004000020A2B000228721012003F0BEFBF8
:101BE0002149086008460068002821D11F48006884
:101BF00000281DDB002030B1012808D002280AD0BF
:101C0000032810D10BE01AA0FFF7C4F90CE01BA0C9
:101C1000FFF7C0F908E01CA0FFF7BCF904E01DA025
:101C2000FFF7B8F900E000BF00BF1DA0FFF7B2F951
:101C300019E04FF0FF3269460B48006803F092FD4F
:101C40001F48006803F060F96846FFF735FD1D493D
:101C500008700846007810B100201B490860184839
:101C6000006803F0A5F8E4E7200000200000002051
:101C70005B452F4442475D20000000005B572F4426
:101C800042475D20000000005B492F4442475D2031
:101C9000000000005B442F4442475D20000000002C
:101CA0007570646174654461744D73675F517565E7
:101CB000756520637265617465204552522100008C
:101CC000080000202400002028000020F0B5054670
:101CD0000C4616460021012D28D1002216E014F8EA
:101CE00001CB82EA0C2200210EE002F4004028B170
:101CF00041F2210080EA420082B203E04FF6FF7019
:101D000000EA4202481CC1B20829EEDB301EA6F1EF
:101D1000010C0CF0FF06E2D1180240EA232087B242
:101D2000BA4201D00020F0BD0120FCE785B90022B5
:101D3000002104E0605C1044C2B2481CC1B2B14250
:101D4000F8DBD8B2904201D00020ECE70120EAE7AE
:101D500000BF0020E7E7000010B5124800684FF40C
:101D60007A71B0FBF1F4601EB0F1807F01D30120E5
:101D70000FE0601E4FF0E02148610F214FF0FF306F
:101D8000FEF73CFF00204FF0E0218861072008614A
:101D9000002008B100BFFEE70021481EFEF72EFF1D
:101DA00010BD0000BC0000200246002110E00A48DF
:101DB00050F8210000B90AE0074850F821000068F7
:101DC000904203D1044850F82100704700BF491CDD
:101DD0000329ECD30020F8E73C0100200246002153
:101DE0000EE00D4850F8210000B90BE00A4850F809
:101DF000210000681368984201D101207047491CF6
:101E00000329EED300BF032904D2034840F8212060
:101E10000120F3E70020F1E73C01002070B5054602
:101E200000242BE0174830F83400A84225D116488A
:101E30000068012821DB012030B1012808D00228E8
:101E40000AD0032810D10BE010A0FFF7A3F80CE094
:101E500011A0FFF79FF808E012A0FFF79BF804E03D
:101E600013A0FFF797F800E000BF00BF054800EBA4
:101E7000C400416811A0FFF78DF8641C072CD1D372
:101E800070BD00004C5F0008000000205B452F443F
:101E900042475D20000000005B572F4442475D2011
:101EA000000000005B492F4442475D200000000015
:101EB0005B442F4442475D20000000002573000072
:101EC000064A02EB9011096800F01F0301229A40B4
:101ED0001143024B03EB901211607047002004E0A5
:101EE00010B54FF48470FFF7EBFF4FF48670FFF7E7
:101EF000E7FF40F20D10FFF7E3FF10BD10B511A092
:101F0000FFF748F811A0FFF745F817A0FFF742F8D0
:101F10001948FFF73FF819A0FFF73CF822A0FFF798
:101F200039F800212DA0FFF735F8012132A0FFF785
:101F300031F8022138A0FFF72DF803213DA0FFF76B
:101F400029F810BD6C6F670D0A00000055736167BA
:101F5000653A206C6F67203C617267756D656E74C1
:101F6000733E0D0A00000000417267756D656E7466
:101F7000733A0D0A00000000B0620008092D676581
:101F8000743A2067657420746865206375727265A1
:101F90006E74206C6F67207072696E74206C657649
:101FA000656C0D0A00000000092D736574203C6CFF
:101FB0006576656C3E3A7365742074686520637558
:101FC0007272656E74206C6F67207072696E742017
:101FD0006C6576656C200D0A000000000909206C14
:101FE0006576656C202564203A204442475F45525F
:101FF000524F5220200D0A000909206C6576656C4D
:10200000202564203A204442475F5741524E494EB2
:102010004720200D0A0000000909206C6576656CD8
:10202000202564203A204442475F494E464F2020F5
:102030000D0A00000909206C6576656C2025642076
:102040003A204442475F4C4F4720200D0A000000D1
:102050002DE9F04105460E464FF000684FF4006050
:1020600000FB058700F01AF940F2053000F07EF819
:102070004FF4417000F07AF840F2023000F076F848
:1020800000241BE0384600F097F807F5006740F29F
:10209000053000F06BF84FF4417000F067F840F243
:1020A000023000F063F8601C0A2190FBF1F201FBA2
:1020B000120008B900F0C4F9601C84B2B442E1DB3C
:1020C000BDE8F08100B50346012200BF00F00CF826
:1020D00002465B1E012A01D1002BF7D1012A00D153
:1020E0000422104600BD000000200A49C96801F022
:1020F000010109B101200CE00649C96801F0100195
:1021000009B1032005E00349C96801F0040101B1E8
:10211000022070470020024000B50346012200BFA4
:1021200000F00CF802465B1E012A01D1002BF7D10A
:10213000012A00D10422104600BD000000200A49F7
:10214000C96C01F0010109B101200CE00649C96C1C
:1021500001F0100109B1032005E00349C96C01F049
:10216000040101B10220704700200240064A02EB40
:102170009011096800F01F0301229A401143024B9D
:1021800003EB90121160704700200240084800697C
:1021900040F080000649086106480088B0F5007FDD
:1021A00004D90846006D40F08000086570470000C3
:1021B00000200240E0F7FF1F30B505463348008895
:1021C000B0F5007F44D9324885421CD23148FFF730
:1021D00079FF0446002C56D12F48006940F00200D8
:1021E0002D49086108464561006940F040000861DA
:1021F0002848FFF767FF04462748006920F00200DF
:10220000254908613FE02348FFF786FF0446002C7C
:1022100039D12148006D40F002001F490865084689
:102220004565C06900F0020008B1084645611A48DA
:10223000006D40F04000184908651648FFF76CFF34
:1022400004461548006D20F00200134908651AE0A5
:102250001048FFF737FF0446ACB90F48006940F05B
:1022600002000D49086108464561006940F04000E0
:1022700008610848FFF726FF04460748006920F078
:10228000020005490861204630BD0000E0F7FF1F4D
:10229000FFFF07080000FF0F002002400C48006904
:1022A00000F0800020B10B48094948600A484860A6
:1022B0000A480088B0F5007F09D90548006D00F094
:1022C000800020B1034802494864034848647047CD
:1022D0000020024023016745AB89EFCDE0F7FF1FE7
:1022E00070B504460D46002627480088B0F5007FEB
:1022F00031D92648844217D22548FFF7E3FE064627
:10230000002E3ED12348006940F0010021490861B8
:1023100025601F48FFF7D6FE06461E48006920F0DC
:1023200001001C4908612CE01948FFF7F5FE06463C
:102330003EBB1848006D40F0010016490865256055
:102340001348FFF7E9FE06461248006D20F0010031
:102350001049086515E00E48FFF7B4FE064686B939
:102360000C48006940F001000A49086125600848EE
:10237000FFF7A8FE06460748006920F0010005495E
:102380000861304670BD0000E0F7FF1FFFFF07083F
:102390000000FF0F0020024070B504460D460C48B7
:1023A000007828B1E1B20B480068FEF705FD70BD6A
:1023B00021460848006802F064F900BF072105487B
:1023C000006802F0B0F90028F8D00020EFE7000024
:1023D000440000200400002030B502460B46164C95
:1023E000002145F25550154D286000BF1348C068C4
:1023F00000F00101601E041E01D00029F6D109B1D0
:10240000002030BD0D4843600B4C00BF0B48C06836
:1024100000F00201601E041E01D00029F6D109B1AE
:102420000020EEE7C2F30B00044DA8604AF6AA2094
:1024300028600120E5E70000FFFF0F0000300040AA
:102440004AF6AA20014908607047000000300040A9
:102450004CF6CC4001490860704700000030004055
:1024600000200149086070470030004070B5044604
:102470000D4616460348016803A0FEF78BFD0020B9
:1024800070BD00000000002043757272656E7420FC
:102490006C6F67206C6576656C203A2025640D0AA8
:1024A00000000000F0B5044616460025002201F0A9
:1024B0000F0501F0100747B1042E05D145F00305C3
:1024C000E76B1F43E76300E0354300201EE0012770
:1024D00087401F40C7B122684FEA800C0F2707FAD8
:1024E0000CF7BA43870005FA07F73A43282904D1C5
:1024F000012787401F40676105E0482903D1012774
:1025000087401F4027612260471CB8B20828DED3ED
:10251000082022E0012787401F40E7B16268A0F150
:1025200008074FEA870C0F2707FA0CF7BA43A0F108
:102530000807BF0005FA07F73A43282904D1012705
:1025400087401F40676105E0482903D10127874084
:102550001F4027616260471CB8B21028DAD3F0BD73
:10256000F0B50A46002300240021002500F00046B3
:10257000B6F1004F02D11D4EF16901E01B4E7168AA
:10258000C0F3034583B200F44016B6F5401F08D1EE
:1025900021F0E061154E766826F0E066134F7E600C
:1025A00012E000F48016B6F5801F06D1032606FA65
:1025B00005F4A14341F0E06106E0460D360103FA5F
:1025C00006F6B14341F0E06122B1460D360103FA4F
:1025D00006F6314300F00046B6F1004F02D1034E3B
:1025E000F16101E0014E7160F0BD000000000140AA
:1025F00010B500220D490E4800F060F90C48FEF7B6
:102600002BFB044621460A4800F0E0FA4FF484719F
:10261000074800F060FA40F20911054800F05BFA43
:102620004FF48571024800F056FA10BD801A06007A
:102630000054004010B5402303221C210448FFF73A
:1026400031FF802303221C210148FFF72BFF10BD1F
:10265000000C014010B500F013F8FFF7EBFF00F09D
:1026600003F8FFF7C5FF10BD10B5002203211F209E
:1026700000F0B6FB00220821202000F0B1FB10BDC5
:1026800010B540F2157001F0C1FC40F2036001F09A
:10269000BDFC40F2036001F0B9FC10BD10B5002292
:1026A0000D490E4800F00AF90C48FEF7D5FA044629
:1026B00021460A4800F08AFA4FF48471074800F076
:1026C0000AFA40F20911054800F005FA4FF4857145
:1026D000024800F000FA10BDA0860100005800403A
:1026E00010B54FF4806303221C210548FFF7DAFE82
:1026F0004FF4006303221C210148FFF7D3FE10BDF5
:10270000000C014010B500F013F8FFF7E9FF00F0EE
:1027100003F8FFF7C3FF10BD10B5002203212120ED
:1027200000F05EFB00220821222000F059FB10BDC2
:1027300010B540F2167001F069FC40F2036001F040
:1027400065FC40F2036001F061FC10BD0A46002107
:10275000016821F480611143016070472DE9F05F49
:1027600007468A46904699460A9D00262C46B3465F
:102770004FF48571384600F0A1F940F2091138464E
:1027800000F09CF902F0F8F804E0641E14B94FF070
:10279000010B74E040F20161384600F070F9002846
:1027A000F3D12C46384600F033FA04E0641E14B925
:1027B0004FF0020B63E04FF4A061384600F05FF980
:1027C0000028F3D02C466FF001025146384600F045
:1027D000D3F904E0641E14B94FF0030B4FE040F24C
:1027E0000151384600F04BF90028F3D040F2015176
:1027F000384600F030F92C4604E0641E14B94FF05E
:10280000040B3CE040F20751384600F038F900284C
:10281000F3D0002613E02C4618F80610384600F0D6
:10282000F1F804E0641E14B94FF0050B27E040F204
:102830000751384600F023F90028F3D0761C4E45A6
:10284000E9DB2C46384600F0E8F904E0641E14B9D0
:102850004FF0060B13E0386800F400700028F5D143
:102860004FF48571384600F036F940F209113846C8
:1028700000F031F902F0C4F80120BDE8F09F3846BD
:1028800000F0C4F8384600F005F802F0B9F800206E
:10289000F3E7000010B504460748204418B1B0F52E
:1028A000806F06D102E0FFF7D5FE03E0FFF72AFFB5
:1028B00000E000BF00BF10BD00ACFFBF2DE9F05F1E
:1028C00004460E4692460EB900BFFEE7022001F014
:1028D0000BFA07464648B7FBF0F8B8F13C0F01D3B6
:1028E0004FF03C08D4F804B02BF07F0B4BEA080BF8
:1028F000C4F804B03F4886421ED83D48B7FBF0F00C
:1029000000F10109B9F13C0F02D33C20206207E03D
:10291000B9F1020F02D80220206201E0C4F8209031
:102920007000B7FBF0F5042D00D20425E069C5F373
:102930000B010843E06158E02F4886422CD84FF441
:10294000967008FB00F04FF47A71B0FBF1F0401C78
:102950002062BAF1000F08D106EB4600B7FBF0F594
:10296000E06920F48040E06109E006EBC60000EB7E
:102970000610B7FBF0F5E06940F48040E061C5F374
:102980000B0008B945F00105E06940F40040E06142
:10299000E0692843E06128E0C8EB0810C0004FF46C
:1029A0007A71B0FBF1F0401C2062BAF1000F08D13F
:1029B00006EB4600B7FBF0F5E06920F48040E061EB
:1029C00009E006EBC60000EB0610B7FBF0F5E06986
:1029D00040F48040E061E06940F40040E061E0697B
:1029E0002843E0610120C4F89000BDE8F09F00009A
:1029F00040420F00A0860100801A060001460869C7
:102A0000C0B27047CAB202617047000010B50446F8
:102A10000D48204418B1B0F5806F12D108E040F2A3
:102A2000154001F013FB40F2154001F0FFFA09E0F8
:102A300040F2164001F00AFB40F2164001F0F6FAAF
:102A400000E000BF00BF10BD00ACFFBF016841F057
:102A500001010160704710B540F20152914202D16C
:102A6000426982690AE000EB9112126801F01F04CA
:102A70000123A3409A4300EB91131A6010BD10B5D7
:102A8000024602EB9110006801F01F040123A340ED
:102A9000184008B1012010BD0020FCE710B5054822
:102AA000FFF7F8FE0448FFF7F5FE0320FFF7F2FEFC
:102AB00010BD0000005400400058004010B500EB6D
:102AC0009112126801F01F040123A3409A4300EB06
:102AD00091131A6010BD10B500EB9112126801F04D
:102AE0001F040123A3401A4300EB91131A6010BD89
:102AF00010B5094A914202D1426982690AE000EBAD
:102B000091521268C1F304440123A3409A4300EB9D
:102B100091531A6010BD000009010105F0B502468D
:102B200000230024506800F48065C1F38910105818
:102B300001F01F070126BE4000EA060302EB915098
:102B40000068C1F304470126BE4000EA06040848B5
:102B5000814202D00748814204D113B10DB1012353
:102B600000E0002314B10BB10120F0BD0020FCE710
:102B7000090106050901070512F1020F02D121F032
:102B8000010101E041F001010161704730B50C46DF
:102B90000021016821F0020121430160C3F3090310
:102BA00042EA0305856030BD70B505460C462346F4
:102BB000002211462846FFF7E9FF2846FFF746FFA7
:102BC0004FF480612846FFF7C1FD70BD70B5044623
:102BD0000D4644B1012C0DD00B48204420B1B0F576
:102BE000806F0DD107E000BF294607484042FFF73C
:102BF000DBFF06E000BF29460448FFF7D5FF00E0F1
:102C000070BD00BF00BFFBE700ACFFBF0058004035
:102C1000016841F4807101607047016841F40071FE
:102C200001607047F8B506460C4615460DB9002000
:102C3000F8BD46B1012E13D01048304420B1B0F594
:102C4000806F19D10DE000BF44F620600090681E2F
:102C500083B22178621C09484042FFF77FFDE7E715
:102C600000BF44F620600090681E83B22178621C89
:102C70000348FFF773FDDBE70020D9E700ACFFBF97
:102C80000058004070B504460D462946204600F025
:102C90001FF9002070BD00001CB5FFF75DF84FF470
:102CA000407000F0FFF800F097F92D48FEF78CFF18
:102CB000FEF77CF82B480068FDF7DCFA84B2224668
:102CC000284801682648FEF792F827480068FDF773
:102CD000D1FA84B22246244801682148FEF787F8D9
:102CE00002F002FAFFF7FCF82048192100234FF404
:102CF0008272CDE900101EA1214802F039FE0020A9
:102D0000142103464FF48272CDE900101DA11F4823
:102D100002F02EFE02F0A2F821E01D480068022811
:102D20001DDB022030B1012808D002280AD0032878
:102D300010D10BE017A0FEF72DF90CE018A0FEF75C
:102D400029F908E019A0FEF725F904E01AA0FEF71A
:102D500021F900E000BF00BF1AA0FEF71BF9DCE775
:102D6000003801400C000020100000200800002066
:102D70007570646174654D6F6E69746F72000000E8
:102D80004D4200087570646174650000D51B000831
:102D9000000000205B452F4442475D2000000000FA
:102DA0005B572F4442475D20000000005B492F44E1
:102DB00042475D20000000005B442F4442475D20F5
:102DC00000000000765461736B5374617274536336
:102DD000686564756C657220206572726F720000A0
:102DE0002DE9F04103460D46164600240027A04673
:102DF0002A48006800F4E060B0F5E06F03D100BF3E
:102E00004FF0040830E02548006800F4E060B0F5B9
:102E1000C06F03D101274FF0030825E01F48006869
:102E200000F4E060B0F5A06F02D10227B8461BE0C5
:102E30001A48006800F4E060B0F5806F03D1032702
:102E40004FF0010810E01548006800F4E060B0F5AC
:102E5000407F03D104274FF0000805E04FF4A06045
:102E600000F020F80227B846C7F1040005FA00F484
:102E7000C8F104010F20C840304004432401084831
:102E8000C45403F01F01012088405911890001F149
:102E9000E021C1F80001BDE8F08100000CED00E088
:102EA00000E400E002490143024A1160704700005B
:102EB0000000FA050CED00E0034A0A400243034B10
:102EC0001A60BFF34F8F704780FFFF1F08ED00E0CF
:102ED0002DE9F04106460F46012E03DCFFF70EF800
:102EE000BDE8F081012444E000253CE0234A52F88B
:102EF000251057F82400FDF7C4F9002832D12048E6
:102F000050F8253022463946304698478046B8F179
:102F1000000F01DB444424E01A480068002820DB4D
:102F2000002030B1012808D002280AD0032810D18F
:102F30000BE015A0FEF72EF80CE016A0FEF72AF81D
:102F400008E017A0FEF726F804E018A0FEF722F824
:102F500000E000BF00BF094850F8251016A0FEF79A
:102F600019F800BF6D1C054850F825000028BDD198
:102F7000641CB442B8DB00BFB2E70000305F000859
:102F8000245F0008000000205B452F4442475D207D
:102F9000000000005B572F4442475D200000000006
:102FA0005B492F4442475D20000000005B442F44F2
:102FB00042475D200000000043616E6E6F74206820
:102FC000616E646C6520617267756D656E743A2020
:102FD00025730D0A000000007047000003480068D8
:102FE00040F48070014908607047000000700040A4
:102FF0002DE9F04105460E461C4807681C4800684C
:10300000001D01F01AFC50B91948006890F82C1006
:103010000120884017490968814316480160681CEF
:1030200038B936B112480168091D134801F098FCFF
:103030001AE07C190E4800684460BC4207D20C4874
:103040000168091D0D48006801F070FC0CE008489B
:103050000168091D0A48006801F068FC0948006819
:10306000844201D207480460BDE8F081D40000200A
:10307000C0000020D800002060090020C800002007
:10308000C4000020F000002010B5044601F074FCDC
:1030900024480068401C234908602348006840B960
:1030A000214804600846006801280DD100F0EEF9BF
:1030B0000AE01E48006838B91B480068C06AE16A27
:1030C000884201D81848046019480068401C184913
:1030D000086008460068A06494F82C10012088401D
:1030E00014490968084313490860E16A01EB81014A
:1030F000114A02EB8100211D01F032FC01F080FC3D
:103100000A48006868B108480068C06AE16A8842F5
:1031100007D24FF0805009490860BFF34F8FBFF3CB
:103120006F8F10BDD0000020C0000020DC00002008
:10313000EC000020D80000209006002004ED00E004
:1031400010B501F019FC10480068D0B90F4801F023
:10315000DDFB0F4801F0DAFB0C480E4908600C4813
:103160000D49086000221021052002F0F7F80649F9
:1031700008600846006820B108A10348006801F013
:1031800037FD01F03DFC10BD040100207409002052
:1031900088090020FC00002000010020546D7251BD
:1031A0000000000010B516E001F0E6FB0C48C06816
:1031B000C468201D01F041FB0A480068401E09490F
:1031C000086009480068401E0749086001F018FCC3
:1031D000204600F05FF8044800680028E4D110BDE4
:1031E0004C090020D0000020CC00002070B504461F
:1031F0000D46206C70B1216CE0680144E160D4E9B7
:103200000210884201D32168E1602846226CE168FF
:10321000FDF70CF870BD2DE9F04104460F46154648
:103220004FF00008A66B206C48B9206800282CD10C
:10323000A06802F095FC80460020A06025E07DB9E2
:103240003946226C6068FCF7F1FF216C6068084425
:103250006060D4E90101884217D32068606014E0FF
:103260003946226CE068FCF7E1FF216CE068411A06
:10327000E1602168E068884203D2216CA068411AAD
:10328000E160022D01D106B1761E701CA06340469C
:10329000BDE8F08110B50446206B01F0E9FB204643
:1032A00001F0E6FB10BD00000146084A12681268F2
:1032B0000AB9012200E000220A600A6822B9034A22
:1032C0001268D268106800E000207047FC000020FF
:1032D00030B54FF4F043174800F007042CB1C01D7F
:1032E00020F00700134C041B1B1B0246124C2260EB
:1032F0000024114D6C60D018083820F007000F4CE6
:10330000206000240D4D2D686C600C4D2D682C60E4
:103310001146441A4C60094C24680C60084D4C68F6
:103320002C60084D4C682C604FF00044064D2C601A
:1033300030BD00009C090020100100201801002071
:10334000200100201C0100202401002000BFFFF705
:1033500029FF07480068012807D94FF08050054928
:103360000860BFF34F8FBFF36F8F01F07AFAEEE77B
:103370009006002004ED00E02DE9F04106460D46E0
:1033800017469846069C0DB9246000E02760E66366
:1033900025640121204602F01BF884F850800020AB
:1033A000A064BDE8F08100002DE9F05F82460E4682
:1033B00017469B46DDF828800C9C2EB94FF45B72B3
:1033C00029A12EA0FDF7E6FDB900A522206BFCF790
:1033D0003FFF781E216B01EB800929F0070909F0F6
:1033E000070008B9012000E0002028B94FF46072FE
:1033F0001DA122A0FDF7CEFD6764002507E0715DE9
:1034000004F134004155705D00B902E06D1C102DCF
:10341000F5D300BF002143200155B8F1200F01D39F
:103420004FF01F08C4F82C80C4F85080002060655D
:10343000201D01F078FA04F1180001F074FA2461FB
:10344000C8F12000A06164620020A06584F85C00DF
:103450005A465146484600F027FC20600B9808B1B8
:103460000B980460BDE8F09F2E2E5C667265657255
:10347000746F735C7461736B732E63004572726F4B
:10348000723A25732C25640D0A00000010B5002443
:1034900007E004EB84010F4A02EB810001F036FAE9
:1034A000641C202CF5D30C4801F030FA0B4801F0D5
:1034B0002DFA0B4801F02AFA0A4801F027FA0A48C7
:1034C00001F024FA044809490860044808490860E2
:1034D00010BD0000900600201009002024090020E3
:1034E000380900204C09002060090020C400002099
:1034F000C800002010B50146164800E000680368C7
:103500008B42FBD30246436813448B4204D1436889
:103510004C682344436001460A464B6813440468E0
:10352000A34211D10C4C03682468A34208D04B6815
:103530000468646823444B6003681B680B6005E003
:10354000054B1B680B6001E003680B60884200D0EC
:10355000016010BD10010020180100202DE9F0418C
:1035600004460D4616461F464FF00008656024616C
:10357000B5420CD8F01BA169884202D34FF0010874
:1035800011E0211D0948006801F0D0F90BE0BE42AE
:1035900004D2BD4202D34FF0010804E0211D0448CB
:1035A000006801F0C3F94046BDE8F0810001002049
:1035B000FC00002070B5054601F0DEF9A86B08B9E3
:1035C000012400E0002401F01BFA204670BD70B514
:1035D000054601F0D1F9A86BE96B884201D10124BD
:1035E00000E0002401F00CFA204670BD2DE9F34103
:1035F0000D460098846C00272CB940F645321AA17C
:103600001EA0FDF7C7FCA06BE16B884201D2012030
:1036100000E0002028B940F6463213A117A0FDF7BC
:10362000B9FCA06BE16B88421BD294F945602A4635
:1036300069462046FFF7EFFD0746701C60B9606AD7
:1036400008B9012000E0002050B904F1240002F084
:10365000F3FA28B1012703E0701C40B284F845005A
:1036600000BF3846BDE8FC812E2E5C66726565722F
:10367000746F735C71756575652E63004572726F4A
:10368000723A25732C25640D0A000000F8B5054632
:103690000F4613480068C068C468201D01F0CDF8CB
:1036A000E069012818D1A06941192B463A46204605
:1036B000FFF754FF80B1002003462A4601460090E0
:1036C000204602F0DDFB06462EB94FF4F47205A148
:1036D0000AA0FDF75FFC00BF2046616A8847F8BD7D
:1036E000FC0000202E2E5C6672656572746F735C40
:1036F00074696D6572732E63000000004572726F0D
:10370000723A25732C25640D0A000000F0B587B0CD
:1037100070E0039800280CDA04AE2EB940F2C722FC
:1037200039A13FA0FDF736FCD6E90020B1689047EB
:1037300000BF039800285DDB059C606908B9012083
:1037400000E0002010B9201D01F077F802A800F079
:10375000C5F8054603980A284AD2DFE800F00905B3
:10376000072C2E4506082D2F00BF00BF00BF00BF4D
:103770000498A269811803462A462046FFF7EEFE08
:10378000C0B12046616A8847E069012812D1002053
:1037900000900498A169421800231946204602F0BF
:1037A0006FFB07462FB940F2013217A11CA0FDF7AD
:1037B000F1FB00BF1DE000BF1BE000BF0498A0614B
:1037C000A06908B1012000E0002028B94FF446723A
:1037D0000DA113A0FDF7DEFBA06941192B462A4677
:1037E0002046FFF7BBFE04E0204601F041F900E06F
:1037F00000BF00BF002203A90D48006801F0B2FF1E
:10380000002886D107B0F0BD2E2E5C667265657209
:10381000746F735C74696D6572732E6300000000D1
:103820004572726F723A25732C25640D0A000000F0
:1038300004010020F8B505460C4601F0EBFB684694
:1038400000F04CF80646009820BB44B9B54206D8B3
:1038500002F04CFA31462846FFF718FF1CE03CB155
:103860000E480068006808B9012000E00020044606
:10387000A91B22460A48006801F0D0F902F036FA86
:1038800050B94FF0805007490860BFF34F8FBFF326
:103890006F8F01E002F02AFAF8BD0000000100205D
:1038A0000401002004ED00E00A490968096809B92B
:1038B000012100E0002121B14FF0FF31064A1160E3
:1038C00006E004490968C968C868034A416811608C
:1038D00070470000C4000020F000002070B50446CE
:1038E00002F088F8054607480068854204D200F0D7
:1038F0000BF80120206001E00020206001480560F5
:10390000284670BD0C0100202DE9F8432DE0214828
:103910000068C06805681F480068C068C468201D4A
:1039200000F08BFF2046616A8847E06901281CD1BE
:10393000A0694619AE4207D966602461211D154869
:10394000006800F0F3FF10E0002003462A4601461D
:103950000090204602F094FA07462FB940F27232E6
:103960000DA113A0FDF716FB00BF0A480068006810
:1039700008B9012000E000200028C8D00548D0F890
:1039800000800F480068034908600D48C0F80080B7
:10399000BDE8F883FC0000202E2E5C66726565721F
:1039A000746F735C74696D6572732E630000000040
:1039B0004572726F723A25732C25640D0A0000005F
:1039C000000100200B480068401C08B9012000E0FD
:1039D000002020B9E52208A112A0FDF7DBFA00BF04
:1039E000202080F31188BFF34F8FBFF36F8F00BF8C
:1039F00000BFFEE7280100202E2E5C66726565720E
:103A0000746F735C706F727461626C655C52564463
:103A1000535C41524D5F434D34465C706F72742E5F
:103A2000630000004572726F723A25732C25640D95
:103A30000A00000070B5054600262C462DB940F25C
:103A4000FF620EA112A0FDF7A5FA15496069884230
:103A500001D1012000E0002070B11249A06A884223
:103A600001D1012000E0002030B9A06A08B901208E
:103A700000E0002000B10126304670BD2E2E5C66AD
:103A800072656572746F735C7461736B732E63001F
:103A90004572726F723A25732C25640D0A0000007E
:103AA000600900203809002008B500BF6846FFF70C
:103AB000FBFB044620460099FFF7BCFEFFF726FEFD
:103AC000F4E770B5044600F057FF94F945501AE04A
:103AD000A06C38B100212046FFF788FD88B101F0C5
:103AE00009F90EE0606A08B9012000E0002038B949
:103AF00004F1240002F0A0F818B101F0FBF800E096
:103B000003E0681E45B2002DE2DC00BFFF2084F810
:103B1000450000F075FF00F02FFF94F9445010E0CD
:103B2000206908B9012000E0002048B904F1100024
:103B300002F082F808B101F0DDF8681E45B200E03D
:103B400001E0002DECDC00BFFF2084F8440000F011
:103B500057FF70BD2DE9F04104464FF0000801F019
:103B600059FA3E48006808B9FFF7B2FB3C480068C4
:103B7000204000285FD1A4B1083404F0070080B1D0
:103B800004F00700C0F10800044404F0070008B97D
:103B9000012000E0002020B9952232A13BA0FDF7D2
:103BA000F9F9002C47D03D480068844243D83C4E88
:103BB0003046056801E02E462D686868A04202D2B2
:103BC00028680028F7D125480068854233D030683E
:103BD00000F10808286830606868001B102813D9B5
:103BE0002F1907F0070008B9012000E0002020B9D4
:103BF000C2221CA125A0FDF7CDF96868001B7860E2
:103C00006C603846FFF776FC244968680968081A32
:103C1000224908600846006822490968884203D2A0
:103C20001E4800681F4908600D4968680968084314
:103C300068600020286002F059F808F0070008B911
:103C4000012000E0002028B94FF4817205A10FA0E7
:103C5000FDF7A0F94046BDE8F08100001801002002
:103C6000240100202E2E5C6672656572746F735C91
:103C7000706F727461626C655C4D656D4D616E67ED
:103C80005C686561705F342E630000004572726F7E
:103C9000723A25732C25640D0A0000001C010020D7
:103CA0001001002020010020001F4FF080730360EE
:103CB000001F21F001030360001F054B036014384F
:103CC0000260001F6FF0020303602038704700009D
:103CD000C53900080348406A40F0807001494862D5
:103CE00070470000001002402DE9F04F8CB00746ED
:103CF00000200A904AA090E8004CC068CDE905BEBB
:103D0000CDF810A007900FF21C1ADAE9000ACDE9ED
:103D1000020A0FF2101ADAE9000ACDE9000A444853
:103D20004068C0F381000B900B9820B1012804D0AB
:103D300002283FD103E03F4A3EE03E4A3CE03C4897
:103D4000406800F4803CBCF5803F12D13848C06A1E
:103D500000F08048B8F1000F01D1364B00E0364B3F
:103D60003348406800F40039B9F5003F02D15B08E0
:103D700000E0324B2E484068C0F383412C48406835
:103D800000F0006008B141F010012948406800F0DF
:103D9000804008B141F020010F2901D2891C06E0C2
:103DA0000F2903D33E2901D8491C00E03F2103FB22
:103DB00001F201E01F4A00BF00BF1D484068C0F388
:103DC000031504A8465D22FA06F419484068C0F3BA
:103DD000022502A8465D24FA06F0099014484068BE
:103DE000C0F3C2251DF8056024FA06F0089037B12B
:103DF000012F06D0022F06D0032F0AD106E00A9227
:103E000008E00A9406E009980A9003E008980A90EE
:103E100000E000BF00BF0A980CB0BDE8F08F0000C2
:103E2000000000000000000001020304060708096A
:103E30000010024000127A00006CDC0200093D0014
:103E400000B51A48006840F00100184908600020D9
:103E500000F044F81548406820F00300134948601A
:103E60000846006812490840104908600846006882
:103E700020F480200860084640680E4908400B493D
:103E80004860084600680A49084008490860084632
:103E9000006820F4802008604FF41F008860084606
:103EA000C06A20F0C040C86200BD0000001002409F
:103EB000FFFFF6FE0C0000200146074A02EB9110BE
:103EC000006801F01F0301229A40104008B1012050
:103ED00070470020FCE7000000100240F0B50646E5
:103EE000002400270025B6F5006F20D005DC8EB336
:103EF000102E0BD0182E73D161E0B6F5106F4CD098
:103F0000A6F54050103800286AD134E004E01120B2
:103F1000FFF7D2FF0546641C1DB94FF6FF708442BF
:103F2000F5D11120FFF7C8FF00B1012759E005E0E6
:103F300040F60100FFF7C0FF0546641C1DB96FF095
:103F40007C408442F4D140F60100FFF7B5FF00B198
:103F5000012746E0FFE704E00120FFF7ADFF05463B
:103F6000641C15B9B4F5A06FF6D10120FFF7A4FFCA
:103F700000B1012735E005E043F21100FFF79CFF97
:103F80000546641C15B918488442F5D143F2110066
:103F9000FFF792FF00B1012723E005E040F6011092
:103FA000FFF78AFF0546641C15B90F488442F5D116
:103FB00040F60110FFF780FF00B1012711E004E097
:103FC0001920FFF779FF0546641C15B9064884429D
:103FD000F6D11920FFF770FF00B1012701E0FFE7DC
:103FE00000BF00BF3846F0BDFFFF0F00064A02EBDE
:103FF0009011096800F01F0301229A409143024B7F
:1040000003EB90121160704700100240064A02EB69
:104010009011096800F01F0301229A401143024BDE
:1040200003EB90121160704700100240064A02EB49
:104030009011096800F01F0301229A409143024B3E
:1040400003EB90121160704700100240064A02EB29
:104050009011096800F01F0301229A401143024B9E
:1040600003EB901211607047001002402DE9F041FF
:1040700005460E461746691E56F82100FCF70FF953
:104080000446002C01DB032C05DD0748016807A06E
:10409000FCF780FF05E00448046001680DA0FCF710
:1040A00079FF0020BDE8F081000000206C6F6720E0
:1040B0006C6576656C20736574206572726F722C06
:1040C000206F6C64206C6576656C206973202564B4
:1040D0000D0A00006C6F67206C6576656C20736557
:1040E0007420737563636573732C206E6577206C21
:1040F0006576656C2069732025640D0A0000000058
:10410000002000213F4A126842F480323D4B1A6081
:1041100000BF401C3B4A126802F4003119B94FF647
:10412000FF729042F5D1374A126802F400320AB9A0
:1041300000BFFEE7334AD26942F08052314BDA6168
:10414000314A126842F440422F4B1A602D4A52689D
:104150002C4B5A601A4652685A601A46526842F40A
:1041600080625A601A46526822F440325A601A46F7
:10417000526842F440325A601A465268234B1A4041
:10418000204B5A601A465268214B1A431D4B5A6005
:104190001A46126842F080721A6000BF194A12680B
:1041A00002F00072002AF9D0174A126842F48032F5
:1041B000154B1A6000BF144A526802F48032002A7C
:1041C000F9D0114A126842F400320F4B1A6000BF56
:1041D0000D4A526802F40032002AF9D0094A5268A6
:1041E00022F00302074B5A601A46526842F002025C
:1041F0005A6000BF034A526802F00802002AF9D050
:10420000704700000010024000700040FFFFC3B77D
:104210000000280810B5FFF773FF10BD02480068C2
:10422000401C01490860704718000020CA43026121
:1042300070470246D06800EA01031069084010B1D7
:104240000BB1012070470020FCE700004FF4FA6436
:10425000012000F025F94AF25A51884200D1724CEF
:10426000022000F01DF945F65F71884204D101205B
:104270006E490870FDF72EFC642000F0F5FCD2E0DA
:104280004FF47A7000F0F0FC69480068401C6849FF
:104290000860084600686548007806287DD2DFE897
:1042A00000F0038F7DAE6ABD6148006800EB4001FD
:1042B000C1EBC010B4EBC00F2DD85E4800680228D7
:1042C0001DDB022030B1012808D002280AD00328C3
:1042D00010D10BE058A0FCF75DFE0CE059A0FCF7F4
:1042E00059FE08E05AA0FCF755FE04E05BA0FCF77D
:1042F00051FE00E000BF00BF5BA0FCF74BFE0021B9
:10430000012000F0D3F80021022000F0CFF85A4835
:1043100000F0DEF82EE04748006802282ADB022081
:1043200030B1012808D002280AD0032810D10BE0B0
:1043300041A0FCF72FFE0CE042A0FCF72BFE08E0AA
:1043400043A0FCF727FE04E044A0FCF723FE00E0B6
:1043500000BF00BF3648006800EB4001C1EBC01051
:10436000A4EBC0004FF47A71B0FBF1F5294643A0ED
:10437000FCF710FE55E02E48006800EB4001C1EB51
:10438000C01040F6B831B1EBC00F05D80020284965
:1043900008601520FDF7CCFB43E041E024480068AD
:1043A00000EB4001C1EBC01040F6B831B1EBC00FDB
:1043B00005D800201E4908600620FDF7B9FB30E053
:1043C0001B48006800EB4001C1EBC0104FF47A714C
:1043D000B1EBC00F08D80020154908602F480078BD
:1043E00080F001002D4908702C48007818B1432056
:1043F000FDF79EFB02E01520FDF79AFB11E002207D
:1044000000F032FC0021012000F050F800210220D1
:1044100000F04CF8184800F05BF802E0FCF702FCF2
:1044200000BF00BF00BF2BE7C0D401002400002064
:1044300028000020000000205B452F4442475D20FB
:10444000000000005B572F4442475D200000000041
:104450005B492F4442475D20000000005B442F442D
:1044600042475D20000000006A756D7020746F2067
:10447000415050200D0A0000008000086A756D70E0
:1044800020746F20415050203A636F756E74646FD2
:10449000776E203D20256420730D0A001C0000204B
:1044A00010B504462046FCF7C5FF10BD70B50446A4
:1044B0000D4640F21B70FFF7A9FD40F21C70FFF79C
:1044C000A5FDFEF78BFD29462046FCF7CFFF70BD0A
:1044D00004464FF6FF7080F3108800BF4FF0FF30A6
:1044E00000F01F02012191403D4A430942F8231088
:1044F00000BFFFF7A5FCFDF7B3FF40F20B60FFF72D
:1045000075FD4FF4E060FFF771FD40F20170FFF7B9
:104510006DFD40F20270FFF769FD40F20370FFF796
:1045200065FD40F20E60FFF761FD40F21170FFF78C
:104530005DFD40F21270FFF759FD40F21570FFF774
:1045400055FD40F21670FFF751FD40F20260FFF793
:104550004DFD40F20360FFF749FD40F20460FFF7B4
:1045600045FD40F20560FFF741FD40F20660FFF7B0
:104570003DFD40F20760FFF739FD4FF4C160FFF7E2
:1045800035FD40F20960FFF731FD40F20A60FFF7A8
:104590002DFD40F20F60FFF729FD002008E04FF0ED
:1045A000FF320F4941F820200E4941F82020401CDD
:1045B0000828F4D365682E4600212046FEF77CFCCF
:1045C000002080F3148800BF206880F3088800BFB3
:1045D000002080F3108800BFB04700BFFEE7000056
:1045E00080E100E080E200E02DE9F04704460D465E
:1045F0000027B846B94600261D49601A8C421CD0D7
:1046000006DC1C48204470B1B0F5806F1FD10FE06C
:10461000B0F5806F16D0B0F56C4F18D10320FFF7BE
:1046200063FB074614E00220FFF75EFB07460FE03E
:104630000220FFF759FB07460AE00220FFF754FB70
:10464000074605E00220FFF74FFB074600E000BFEA
:1046500000BF07EB5500B0FBF5F64FF6F07006EA29
:10466000000806F00F0948EA0900A060BDE8F087DD
:10467000004C004000BCFFBF01464868C0F3080082
:104680007047C1F3080242607047000010B504464D
:104690002049601A8C4228D006DC1F48204490B183
:1046A000B0F5806F33D117E0B0F5806F26D0B0F54C
:1046B0006C4F2CD140F20E30FFF7C8FC40F20E30A8
:1046C000FFF7B4FC24E040F21140FFF7BFFC40F2DA
:1046D0001140FFF7ABFC1BE040F21240FFF7B6FCC5
:1046E00040F21240FFF7A2FC12E040F21340FFF745
:1046F000ADFC40F21340FFF799FC09E040F2144092
:10470000FFF7A4FC40F21440FFF790FC00E000BF6C
:1047100000BF10BD004C004000BCFFBFC16841F4A9
:104720000051C160704710B5024602EB911000685D
:1047300001F01F040123A340184008B1012010BD5F
:104740000020FCE70A460021416921F40071114371
:10475000416170470A460021416921F4807111438B
:104760004161704710B500EB9112126801F01F040F
:104770000123A3409A4300EB91131A6010BD10B5BA
:1047800000EB9112126801F01F040123A3401A43A9
:1047900000EB91131A6010BD10B500EB9152126836
:1047A000C1F304440123A3409A4300EB91531A60E0
:1047B00010BD70B5024600230024C1F389101058C3
:1047C00001F01F060125B54000EA050302EB9150F8
:1047D0000068C1F304460125B54000EA050414B1A0
:1047E0000BB1012070BD0020FCE7C26822F4C0625A
:1047F000C260C2680A43C26070470A460021C168AD
:1048000021F004011143C1607047026922F4405253
:10481000026102690A43026170470A460021C168C9
:1048200021F008011143C1607047C26822F4805230
:10483000C260C2680A43C260704701460A69D1E992
:1048400001309860D1E9010358605068884201D175
:1048500088685060002008611068401E1060106871
:10486000704710B5FDF7ECFD10BD000070B50546B2
:104870000C461248006800281EDB002030B10128D9
:1048800008D002280AD0032810D10BE00CA0FCF7B6
:1048900081FB0CE00DA0FCF77DFB08E00EA0FCF70F
:1048A00079FB04E00FA0FCF775FB00E000BF00BF40
:1048B00021460FA0FCF76EFB70BD00000000002039
:1048C0005B452F4442475D20000000005B572F44AA
:1048D00042475D20000000005B492F4442475D20B5
:1048E000000000005B442F4442475D2000000000B0
:1048F0007461736B20737461636B206F766572668D
:104900006C6F772C2025730D0A00000000F1080160
:1049100041604FF0FF31816000F10801C160016129
:1049200000210160704700210161704710B5024607
:104930000B685C1C0CB9106907E002F1080000E08C
:104940004068446824689C42FAD944684C604C68CA
:10495000A160886041600A611468641C146010BD25
:1049600042684A6093688B609368596091600861FF
:1049700003685B1C0360704710B500BF202080F304
:104980001188BFF34F8FBFF36F8F00BF0B480068D4
:10499000401C0A4908600846006801280DD10848F3
:1049A0000068C0B208B9012000E0002028B940F238
:1049B000A71204A10EA0FCF7EDFA10BD28010020FB
:1049C00004ED00E02E2E5C6672656572746F735C98
:1049D000706F727461626C655C525644535C4152F4
:1049E0004D5F434D34465C706F72742E630000005F
:1049F0004572726F723A25732C25640D0A0000000F
:104A000010B50B48006828B94FF4D77209A114A05B
:104A1000FCF7C0FA06480068401E054908600846D1
:104A2000006820B9002080F3118800BF00BF10BDCE
:104A3000280100202E2E5C6672656572746F735CAF
:104A4000706F727461626C655C525644535C415283
:104A50004D5F434D34465C706F72742E63000000EE
:104A60004572726F723A25732C25640D0A0000009E
:104A700070B506463546002E35D0083D2C461A49FD
:104A800060680968084008B1012000E0002028B9EA
:104A90004FF48B7215A11FA0FCF77CFA206808B9AF
:104AA000012000E0002028B940F217120FA119A040
:104AB000FCF770FA0C4960680968084098B12068F2
:104AC00088B90949606809688843606000F0A2FA03
:104AD0001449606809680844124908602046FEF7D6
:104AE00009FD01F003F970BD240100202E2E5C6643
:104AF00072656572746F735C706F727461626C65FD
:104B00005C4D656D4D616E675C686561705F342EEC
:104B1000630000004572726F723A25732C25640D94
:104B20000A0000001C01002000204FF0E021086175
:104B30008861064800684FF47A71B0FBF1F0401EBE
:104B40004FF0E0214861072008617047BC00002059
:104B500070B5FBF755FB0546102D11D305F1E0208C
:104B600090F8F04310480078844201DB012000E017
:104B7000002028B940F201320CA117A0FCF70AFA74
:104B80001948006800F4E06018490968884201D8B3
:104B9000012000E0002028B940F2113203A10EA04C
:104BA000FCF7F8F970BD00002C0100202E2E5C6689
:104BB00072656572746F735C706F727461626C653C
:104BC0005C525644535C41524D5F434D34465C70D9
:104BD0006F72742E630000004572726F723A257313
:104BE0002C25640D0A0000000CED00E030010020CF
:104BF000024600200BE0084B53F8303033B9064B27
:104C000043F8301003EBC0035A6002E0401C0F2849
:104C1000F1D300BF70470000180600202DE9F041D5
:104C200005460E4617462C46FFF7A6FE94F94400AB
:104C3000401C10B9002084F8440094F94500401C41
:104C400010B9002084F84500FFF7DAFEA06B28B900
:104C50003A46314604F1240000F07CF82046FEF785
:104C600030FFBDE8F081000070B504460025ACB10E
:104C70000F48006808B9012000E0002028B940F280
:104C80002D520CA110A0FCF785F900F0C3F900210A
:104C90002046FEF7ADF901F029F805463DB94FF081
:104CA00080500D490860BFF34F8FBFF36F8F70BD09
:104CB000F80000202E2E5C6672656572746F735C5E
:104CC0007461736B732E63004572726F723A257351
:104CD0002C25640D0A00000004ED00E0034909687A
:104CE000016003490968416070470000E800002046
:104CF000D40000200120014908607047E400002032
:104D000070B504460D462CB940F6AC3207A10CA094
:104D1000FCF740F90E48016818312046FFF706FEFF
:104D200001212846FEF764F970BD00002E2E5C6656
:104D300072656572746F735C7461736B732E63005C
:104D40004572726F723A25732C25640D0A000000BB
:104D5000C000002070B505460E4614462DB940F639
:104D6000D73209A10DA0FCF715F9104801681831D8
:104D70002846FFF7F5FD0CB14FF0FF3621463046CF
:104D8000FEF736F970BD00002E2E5C667265657206
:104D9000746F735C7461736B732E63004572726F12
:104DA000723A25732C25640D0A000000C000002013
:104DB00070B505462C462DB940F229721AA11FA0E4
:104DC000FCF7E8F82148006884422BD054B3FFF781
:104DD000D3FD2046FEF72EFE10B3201DFFF72DFD5C
:104DE00094F82C1001208840194909680843184993
:104DF0000860E16A01EB8101164A02EB8100211D86
:104E0000FFF7AEFD1149E06A0968C96A884207D315
:104E10004FF0805010490860BFF34F8FBFF36F8F82
:104E2000FFF7EEFD70BD00002E2E5C6672656572A8
:104E3000746F735C7461736B732E63004572726F71
:104E4000723A25732C25640D0A000000C000002072
:104E5000D80000209006002004ED00E01CB51A48A0
:104E600000210B468222CDE9001018A1194800F05C
:104E70007FFD0446012C02D100F0C8FF0446012C3E
:104E800015D100BF202080F31188BFF34F8FBFF3EF
:104E90006F8F00BF4FF0FF300F49086001200F49AE
:104EA000086000200E49086000F06EF90BE0601CFD
:104EB00008B1012000E0002028B940F6110209A144
:104EC0000DA0FCF767F81CBDF400002049444C45D8
:104ED000000000004D330008F0000020DC0000203E
:104EE000D40000202E2E5C6672656572746F735C50
:104EF0007461736B732E63004572726F723A25731F
:104F00002C25640D0A00000070B50546FFF734FD3E
:104F100015B92F48006800E028460446201DFFF719
:104F20008CFC78B9E06A00EB80002A4951F8200037
:104F300040B994F82C100120884027490968814322
:104F400025480160A06A18B104F11800FFF775FC4C
:104F5000211D2248FFF704FD94F85C00012802D1CE
:104F6000002084F85C00FFF74BFD1D48006828B165
:104F7000FFF702FDFEF798FCFFF742FD14480068BA
:104F8000844224D116480068A8B11648006808B9C0
:104F9000012000E0002028B940F2D56212A117A03C
:104FA000FBF7F8FF4FF0805018490860BFF34F8FB0
:104FB000BFF36F8F0BE00948006815490968884204
:104FC00003D100200249086001E000F02BF870BD19
:104FD000C000002090060020D800002060090020BA
:104FE000DC000020F80000202E2E5C6672656572E1
:104FF000746F735C7461736B732E63004572726FB0
:10500000723A25732C25640D0A00000004ED00E0BF
:10501000D000002002480068401C01490860704729
:10502000F800002010B52248006818B1012021497D
:1050300008603BE000201F4908601F4800680068C6
:105040001D490968096B884205D81B48016834313D
:105050000068FFF70BFC19480068B0FA80F0C0F157
:105060001F0404EB8400164951F8200008B1012008
:1050700000E0002028B940F6953212A116A0FBF7F7
:1050800089FF04EB84010E4A02EB81004168496804
:10509000416000F1080142688A4202D141684968D2
:1050A00041604168C968044A116000BF10BD00003A
:1050B000F8000020E4000020C0000020D8000020FC
:1050C000900600202E2E5C6672656572746F735CAC
:1050D0007461736B732E63004572726F723A25733D
:1050E0002C25640D0A00000010B540F61D10FEF7D7
:1050F000E3FE012802D140F61D142DE040F61E10FB
:10510000FEF7DAFE012802D140F61E1424E040F634
:105110001B10FEF7D1FE012802D140F61B141BE044
:1051200040F61C10FEF7C8FE012802D140F61C1400
:1051300012E040F61A10FEF7BFFE012802D140F639
:105140001A1409E040F61F10FEF7B6FE012802D13E
:1051500040F61F1400E000242046FCF75FFE4FF6E7
:10516000FF7000EA24410420FFF7A0F9A1B2052056
:10517000FFF79CF9FEF7AEFD04214FF47A70FDF7BE
:105180002BF9FDF765F910BD1CB550480068504972
:10519000884201D0012000E0002028B940F23512F9
:1051A0004CA157A0FBF7F6FE484800684849491E45
:1051B000884201D0012000E0002028B94FF49B7202
:1051C00044A14FA0FBF7E6FE514C20460078019029
:1051D000FF20214608700846007800909DF80000E6
:1051E00000F0F0009DF80010884201D1012000E09D
:1051F000002028B940F24F1236A141A0FBF7CAFEA9
:105200009DF8000000F02000424908700720424944
:10521000086009E040480068401E3F4908609DF86A
:1052200000004006000E00909DF8000000F0800095
:105230008028EFD038480068C0F10700042801D169
:10524000012000E0002028B94FF4B17221A12CA068
:10525000FBF7A0FE30480068C0F10700042801D128
:10526000012000E0002028B940F26B1219A124A00F
:10527000FBF790FE284800680002274908600846AE
:10528000008800F4E06008602149019808700F4828
:105290002030006840F470000C4920310860084656
:1052A000006840F070400860FFF73EFC00201B499A
:1052B0000860FAF76DFF1A48006840F0404018494E
:1052C0000860FAF751FF00201CBD000000ED00E06F
:1052D00071C20F412E2E5C6672656572746F735CCD
:1052E000706F727461626C655C525644535C4152DB
:1052F0004D5F434D34465C706F72742E6300000046
:105300004572726F723A25732C25640D0A000000F5
:1053100000E400E02C0100203001002028010020E2
:1053200034EF00E010B500BF202080F31188BFF3F8
:105330004F8FBFF36F8F00BFFEF770FF00F060FB71
:1053400018B14FF080500449086000BF002080F37E
:10535000118800BF10BD000004ED00E02DE9F84306
:1053600005460E4690460DB1012000E0002028B908
:105370004FF4BB720DA112A0FBF70CFE0EB9002773
:1053800001E005FB06F707F15400FEF7E3FB0446D6
:105390004CB1A14609F1540943464A4631462846D4
:1053A0000094FDF7E9FF2046BDE8F8832E2E5C66E9
:1053B00072656572746F735C71756575652E6300D7
:1053C0004572726F723A25732C25640D0A00000035
:1053D00070B505460E462C462CB940F203121EA1AC
:1053E00022A0FBF7D7FDFFF7C7FAD4E90F12206818
:1053F00001FB0200A0600020A06320686060E06BF9
:10540000401E226C216800FB0211E160FF2084F83D
:10541000440084F845009EB9206908B9012000E0E5
:105420000020A8B904F1100000F006FC80B14FF094
:10543000805012490860BFF34F8FBFF36F8F07E0B2
:1054400004F11000FFF762FA04F12400FFF75EFA9E
:10545000FFF7D6FA012070BD2E2E5C66726565726C
:10546000746F735C71756575652E63004572726F3C
:10547000723A25732C25640D0A00000004ED00E04B
:105480002DE9FF4782B0064688461D464FF00009C9
:1054900034462CB940F2F12264A169A0FBF77AFDF1
:1054A000B8F1000F01D1206C08B9012000E0002004
:1054B00028B940F2F2225DA161A0FBF76BFD022D3D
:1054C00002D1E06B012801D1012000E0002028B9C1
:1054D00040F2F32255A15AA0FBF75CFD00F07AFAE6
:1054E00008B9049808B9012000E0002028B940F26A
:1054F000F6224EA152A0FBF74DFD00BFFFF73CFA8C
:10550000A06BE16B884201D3022D3FD1D4F838A0C3
:105510002A4641462046FDF77EFE0746A06C90B124
:10552000022D02D1BAF1000F2AD129462046FEF7FA
:105530005DF828B34FF0805045490860BFF34F8FA6
:10554000BFF36F8F1CE0606A08B9012000E0002003
:1055500068B904F1240000F06FFB88B14FF080506F
:105560003B490860BFF34F8FBFF36F8F08E03FB137
:105570004FF0805036490860BFF34F8FBFF36F8FF5
:10558000FFF73EFA012006B0BDE8F087049818B98D
:10559000FFF736FA0020F6E7B9F1000F04D16846AC
:1055A000FFF79CFB4FF00109FFF72AFAFFF732FDE6
:1055B000FFF7E2F994F94400401C10B9002084F888
:1055C000440094F94500401C10B9002084F84500BF
:1055D000FFF716FA04A9684600F07CF9F8B92046EE
:1055E000FDF7F5FFA8B104F110000499FFF788FB5F
:1055F0002046FEF766FA00F079FB00287FF47EAFC4
:105600004FF0805012490860BFF34F8FBFF36F8F88
:1056100074E72046FEF755FA00F068FB6EE7204677
:10562000FEF74FFA00F062FB0020ACE72E2E5C661E
:1056300072656572746F735C71756575652E630054
:105640004572726F723A25732C25640D0A000000B2
:1056500004ED00E02DE9F05F80468A4615461E46BF
:1056600044462CB940F2C33235A13AA0FBF792FC74
:10567000BAF1000F01D1206C08B9012000E0002030
:1056800028B94FF471722EA132A0FBF783FC022ED1
:1056900002D1E06B012801D1012000E0002028B9EF
:1056A00040F2C53226A12BA0FBF774FCFFF750FA9D
:1056B00000BF2021EFF3118081F31188BFF34F8FDA
:1056C000BFF36F8F00BF0746A06BE16B884201D329
:1056D000022E2BD194F945B0324651462046FDF7B3
:1056E0009AFD0BF10100C8B9A06C40B131462046CB
:1056F000FDF77CFFB8B1B5B10120286013E0606A06
:1057000008B9012000E0002068B904F1240000F08D
:1057100093FA40B13DB10120286004E00BF1010093
:1057200040B284F845004FF0010901E04FF0000954
:1057300000BF87F3118800BF4846BDE8F09F000016
:105740002E2E5C6672656572746F735C717565751B
:10575000652E63004572726F723A25732C25640DB5
:105760000A0000002DE9F74183B005460E464FF0D0
:1057700000082C462CB94FF4A0624CA150A0FBF7B6
:1057800009FC0EB9206C08B9012000E0002028B9FE
:1057900040F2045245A14AA0FBF7FCFB00F01AF9C5
:1057A00008B9059808B9012000E0002028B940F2A6
:1057B00009523EA142A0FBF7EDFB00BFFFF7DCF86A
:1057C000A76BF7B131462046FDF710FD781EA063A8
:1057D000206908B9012000E0002060B904F1100040
:1057E00000F02AFA38B14FF0805039490860BFF311
:1057F0004F8FBFF36F8FFFF703F9012006B0BDE8AD
:10580000F081059818B9FFF7FBF80020F6E7B8F12A
:10581000000F04D101A8FFF761FA4FF00108FFF76C
:10582000EFF8FFF7F7FBFFF7A7F894F94400401CE7
:1058300010B9002084F8440094F94500401C10B9C8
:10584000002084F84500FFF7DBF805A901A800F067
:1058500041F8F0B92046FDF7ADFEA0B104F12400F7
:105860000599FFF74DFA2046FEF72BF900F03EFAB6
:105870000028A3D14FF0805015490860BFF34F8F27
:10588000BFF36F8F9AE72046FEF71BF900F02EFA60
:1058900094E72046FEF715F900F028FA2046FDF7B8
:1058A00089FE00288AD00020A8E700002E2E5C6622
:1058B00072656572746F735C71756575652E6300D2
:1058C0004572726F723A25732C25640D0A00000030
:1058D00004ED00E070B505460C462DB940F6724265
:1058E00018A11DA0FBF756FB2CB940F6734215A179
:1058F00019A0FBF74FFBFFF73FF81B4802686868E9
:10590000131A2068401C08B9002617E017492868B8
:105910000968884204D06868904201D801260DE0E9
:105920002068984207D92068C01A20602846FFF7EF
:10593000D5F9002602E0002020600126FFF760F87C
:10594000304670BD2E2E5C6672656572746F735C36
:105950007461736B732E63004572726F723A2573B4
:105960002C25640D0A000000D4000020E80000206F
:105970002DE9FF4F85B0804689461646DDE912AB1A
:10598000B000FEF7E7F8054655B16020FEF7E2F8F3
:1059900004460CB1256304E02846FFF769F800E0EF
:1059A00000247CB10020CDE900ABCDE902403246B5
:1059B00049464046089BFDF7F7FC2046FDF764FB8F
:1059C000012702E000BF00BFFEE7384609B0BDE88E
:1059D000F08F00000549096809B9012005E0044974
:1059E000096809B9022000E000207047DC000020AF
:1059F000F80000200149086870470000D40000202A
:105A00002DE9F0414FF0000841480068002872D1AC
:105A100040480068451C3F480560EDB93E480068B5
:105A2000006808B9012000E0002028B940F66F2284
:105A30003AA13FA0FBF7AEFA374807684048006834
:105A4000354908603E4807603E480068401C3D49B3
:105A50000860FDF729FF00BF3B48006885423CD342
:105A600000BF2D480068006808B9012000E0002050
:105A700020B14FF0FF30344908602DE0264800681F
:105A8000C068C4686668B54202D22F48066023E049
:105A9000201DFEF7D2FEA06A18B104F11800FEF72F
:105AA000CCFE94F82C10012088402849096808434E
:105AB00026490860E16A01EB8101254A02EB810079
:105AC000211DFEF74DFF2349E06A0968C96A884233
:105AD000C7D34FF00108C4E700BF1E480068C06A82
