:020000040800F2
:10000000E0970020E101000895070008EB010008D7
:10001000910700088B040008050B00080000000091
:10002000000000000000000000000000490100087E
:100030004D050008000000008D010008E9070008D8
:10004000FB010008FB010008FB010008FB010008A0
:10005000FB010008FB010008FB010008FB01000890
:10006000FB010008FB010008FB010008FB01000880
:10007000FB010008FB010008FB010008FB01000870
:10008000FB010008FB010008FB010008FB01000860
:10009000FB010008FB010008FB010008FB01000850
:1000A000FB010008FB010008FB010008FB01000840
:1000B000FB010008A1080008FB010008FB01000883
:1000C000FB010008FB010008FB010008FB01000820
:1000D000FB010008E1090008B90A0008FB0100085B
:1000E000FB010008FB010008FB010008FB01000800
:1000F000FB010008FB010008FB010008FB010008F0
:10010000FB010008FB010008FB010008FB010008DF
:10011000FB010008FB010008FB010008FB010008CF
:10012000FB010008FB010008FB010008FB010008BF
:10013000DFF810D000F016F900480047E51A000873
:10014000AFF30080E0970020224B19680868B0E800
:10015000F00F80F30988BFF36F8F4FF0000080F33A
:1001600011884EF00D0E7047000000000648006830
:10017000006880F3088862B661B6BFF34F8FBFF3A3
:100180006F8F00DF00BF00BF08ED00E0EFF30980D4
:10019000BFF36F8F0F4B1A6820E9F00F106008B59E
:1001A0004FF0200080F31188BFF34F8FBFF36F8FA4
:1001B00003F028FE4FF0000080F31188BDE80840EE
:1001C00019680868B0E8F00F80F30988BFF36F8FF3
:1001D000704700BFAC000020EFF3058070470000BF
:1001E0000648804706480047FEE7FEE7FEE7FEE7D1
:1001F000FEE7FEE7FEE7FEE7FEE7FEE7F907000899
:100200003101000840EA01039B0703D009E008C957
:10021000121F08C0042AFAD203E011F8013B00F8CB
:10022000013B521EF9D27047D2B201E000F8012B17
:10023000491EFBD270470022F6E710B513460A4666
:1002400004461946FFF7F0FF204610BD421C10F887
:10025000011B0029FBD1801A704710B5002200E075
:10026000521C835C8C5CA34201D1002BF8D1D8B224
:10027000E1B2401A10BD70B5064600F055FC0468A6
:1002800005460A220021304600F033F82C6070BD8C
:100290002DE9F05F0546002092469B4688460646BB
:1002A000814640241BE0284641464746224600F04E
:1002B0007AF853465A46C01A914110D3114618464F
:1002C000224600F061F82D1A67EB01084F462246DE
:1002D0000120002100F058F817EB00094E41201EC4
:1002E000A4F10104DFDC484631462A464346BDE816
:1002F000F09F2DE9F04791460F46804604460026C0
:1003000014F8015B2DB100F05FF80068405DC00794
:10031000F6D12B2D02D02D2D18D0641E4A46394619
:10032000204600F055F827B13968A14201D1C7F83D
:10033000008071054FF002040BD54042002803DD18
:1003400000F0F2FB0460A007BDE8F08746F4806689
:10035000E4E70028F8DA00F0E7FB04606FF0004003
:10036000F2E70000064C074D06E0E06840F00103AC
:1003700094E8070098471034AC42F6D3FFF7DCFE50
:10038000F852000818530008202A04DB203A00FA2B
:1003900002F1002070479140C2F1200320FA03F3DC
:1003A000194390407047202A04DB203A21FA02F0DA
:1003B0000021704721FA02F3D040C2F1200291409F
:1003C0000843194670470000004870476450000811
:1003D0002DE9F05F82460078002715468B460AF12A
:1003E0000104B946302801D09DB113E014F8010B87
:1003F0000127782803D0582801D045B10AE00DB173
:10040000102D07D10027102514F8010B02E0082554
:1004100000E00A250026B0460EE005FB080005FBBB
:1004200006F1012701EB10461FFA80F8B6F5803F70
:1004300000D3B94614F8010B294600F018F800283B
:10044000EBDABBF1000F05D00FB1641E00E054469B
:10045000CBF80040B9F1000F06D000F065FB022197
:100460000160C81EBDE8F09F48EA0640FAE73A2856
:1004700000D2303820F02002412A01D3A2F1370007
:10048000884201D34FF0FF30704700BFFEE770B5E0
:100490000446204600F06AFF216B088C02F0CEFC77
:1004A000216BC88B02F0CAFC4FF4C06002F0C6FC9E
:1004B000256B6A7C297CD5E9020301F063FA256B80
:1004C0006A7F297FD5E9050301F05CFA206B406A59
:1004D00020B1216B486A012101F0B2FA206802F0D4
:1004E000C5FF226B1168206802F06EFF00212068B2
:1004F00003F08BF80021206803F077F800212068D2
:1005000003F063F80021206803F014F8002120684C
:1005100003F008F80421206803F05FF80821206840
:1005200003F06BF8206802F0E9FF236B9A795979A0
:10053000187901F07BFB40F20531206803F00FF8D9
:1005400040F20631206803F00AF870BD704701469A
:10055000488808B9012070470020FCE7028000238A
:10056000438041608B1883604368C36043680361C4
:10057000704730B502460B46508808B9002030BDA0
:1005800000BF2024EFF3118084F31188BFF34F8F55
:10059000BFF36F8F00BF01461469601C10612078A3
:1005A000187094681069A04201D350681061508897
:1005B000401E508000BF81F3118800BF0120DEE79C
:1005C00030B502460B4650881488A04201DB00205B
:1005D00030BD00BF2024EFF3118084F31188BFF3F6
:1005E0004F8FBFF36F8F00BF0146D468601CD0608F
:1005F0002370D2E90240A04201D35068D0605088F5
:10060000401C508000BF81F3118800BF0120DFE74C
:100610002DE9F04704460E4617464FF000094FF00B
:10062000010901F0B1F840F2053001F015F84FF47E
:10063000417001F011F840F2023001F00DF825464A
:100640004FF0000813E056F82810284601F0BEF8D5
:1006500008F101082D1D40F2053000F0FDFF4FF4B8
:10066000417000F0F9FF40F2023000F0F5FFE019B0
:10067000A842E8D801F000F84846BDE8F08700003D
:100680004FF6FF7080F3108800BF4FF0FF3000F08E
:100690001F02012191403B4A430942F8231000BF49
:1006A00002F0E6FA40F20B6002F0B8FB4FF4E060B3
:1006B00002F0B4FB40F2017002F0B0FB40F20270B5
:1006C00002F0ACFB40F2037002F0A8FB40F21170A4
:1006D00002F0A4FB40F2127002F0A0FB40F2157091
:1006E00002F09CFB40F2167002F098FB40F20260B0
:1006F00002F094FB40F2036002F090FB40F20460D1
:1007000002F08CFB40F2056002F088FB40F20660CC
:1007100002F084FB40F2076002F080FB4FF4C160FE
:1007200002F07CFB40F2096002F078FB40F20A60C4
:1007300002F074FB40F20F6002F070FB002008E052
:100740004FF0FF320F4941F820200F4941F8202097
:10075000401C0828F4D30D4844682546002101F0C8
:10076000D1FA002080F3148800BF0849086880F39C
:10077000088800BF002080F3108800BFA84700BF92
:10078000FEE7000080E100E080E200E00080000879
:1007900000BFFEE77047000010B5002807DA0A071F
:1007A000140E054A00F00F031B1FD45403E00A0780
:1007B000130E024A135410BD18ED00E000E400E0EF
:1007C000BFF34F8F0648006800F4E0600549084316
:1007D000001D03490860BFF34F8F00BFFEE7000014
:1007E0000CED00E00000FA0510B504F015F9012841
:1007F00001D003F0B9FD10BD08B52648006840F4EB
:100800007000244908602448006840F00100224933
:10081000086000BF2048006800F002000028F9D0FE
:1008200000BF1D48406840F080001B494860002020
:10083000009002E00098401C009000985028F9D3E6
:100840001548406840F0900013494860002000902F
:1008500002E00098401C009000985028F9D300BF97
:100860000D48406820F003000B49486008460068C6
:100870000A490840084908604FF41F00886008468C
:10088000006820F48020086000204860C86202F000
:10089000D9FB08BD88ED00E000100240FFFFF6FE26
:1008A00010B50121074802F0DCFB012808D10648F9
:1008B0000068401C044908600121024802F0CEFB98
:1008C00010BD0000000400403400002010B54FF4BB
:1008D000FA7207490748FFF741FE322206490548E8
:1008E0001430FFF73BFE03480838FFF7D0FD10BD7A
:1008F00034010020440000202803002010B53222DB
:1009000007490848FFF72AFE3222074905481430F4
:10091000FFF724FE03480838FFF7B9FD10BD0000BB
:10092000F10300207C0000202304002010B5FFF715
:10093000CDFFFFF7E3FF10BD70B505460E46284614
:1009400000F0FAFC04460CB9002070BD314604F1F9
:100950000800FFF735FE08B90020F6E760680128B7
:1009600003D0211D284600F01AF80120EDE72DE9FB
:10097000F04107460D461646002400BF0BE0295DF6
:10098000384602F06EFD00BF0721384602F0BBFD7D
:100990000028F9D0641CB442F1DBBDE8F08138B521
:1009A00005460C46201DFFF7D2FD28B1206820F037
:1009B00001002060002038BD2068012803D0206895
:1009C00040F0010020606946201DFFF7D2FD01289C
:1009D00004D19DF80010284602F043FD0120EAE70B
:1009E00070B52C492C4802F0D4FDE0B12A4802F041
:1009F00033FDC4B2294908684FF4417102F0AFFDDC
:100A00002449254802F0B8FD254801780078401CAB
:100A1000234A1070501C4454401E0078932802D979
:100A20000020114608701F491B4802F0B2FD10B3A8
:100A30001A4908684FF4417102F084FD18480078A3
:100A4000C8B11948006898B10023184A14491648DB
:100A5000006803F021FE05461448006838B14FF0E5
:100A6000805013490860BFF34F8FBFF36F8F00BFF3
:100A700000200B4908700F49074802F08AFD40B179
:100A80000C49054802F078FD0449091D0248FFF7AA
:100A900086FF70BD05030500003801403C000020C2
:100AA0005A030020040304001C00002070000020F2
:100AB00004ED00E00603060010B50E490E4802F0F2
:100AC00068FD40B10C4802F0C7FCC4B209490A48AD
:100AD00002F052FD00BF0949074802F05AFD38B143
:100AE0000649054802F048FD05490348FFF757FF4E
:100AF00010BD000005030500004400400603060089
:100B00007800002000BFFEE70FB4054B10B503A925
:100B1000044A029800F01CF810BC5DF814FB0000B9
:100B2000851800082001002000487047240100209B
:100B300002E008C8121F08C1002AFAD170477047A6
:100B4000002001E001C1121F002AFBD17047000004
:100B50002DE9FF4F8DB00F460546002606E02528FB
:100B60000BD0DDE90F1290476D1C761C2878002809
:100B7000F5D111B03046BDE8F08F0024A246A14661
:100B80000122E94900E0044315F8013F203B02FA45
:100B900003F00842F7D128782A2810D06FF02F02EE
:100BA0002878A0F13001092914D80AEB8A0102EB58
:100BB000410144F0020400EB010A6D1CF0E701CF93
:100BC0005FEA000A03D544F40054CAF1000A44F075
:100BD00002046D1C28782E2817D115F8010F44F057
:100BE00004042A280ED06FF02F022878A0F13001DB
:100BF00009290AD809EB890102EB410100EB01093F
:100C00006D1CF2E757F8049B6D1C28786C280FD0F8
:100C100006DC4C2817D068280DD06A2814D104E0CF
:100C2000742810D07A280FD10DE044F400140AE0A3
:100C300044F4801401E044F440146978814202D104
:100C400004F580146D1C6D1C28786E281ED00CDCF9
:100C5000632830D004DC00288BD0582811D19FE0C5
:100C6000642867D069280CD164E073282DD004DC97
:100C70006F2872D0702804D194E075286ED078283F
:100C80006DD0DDE90F129047761C4BE1C4F30250A2
:100C9000022806D0032809D0042801CF09D0066015
:100CA00040E101CFF117C0E900613BE101CF0680CF
:100CB00038E1067036E117F8040B8DF800000020CB
:100CC0008DF80100EB46012003E057F804BB4FF01C
:100CD000FF3061074FF0000102D40DE008F101017F
:100CE000884649450FDA8045F8DB1BF808100029D3
:100CF000F4D108E008F1010188468142FADB1BF8D3
:100D000008100029F6D1DDE90F23AAEB080081467F
:100D1000214600F031F9304400EB080604E0DDE93B
:100D20000F121BF8010B9047B8F10108F7D22146CA
:100D30004846F2E00A21C4F302524FF0000B08913A
:100D4000022A04D001CFC117032A09D00AE0FF1DEF
:100D500027F00707F7E8020108E02CE01EE01FE09B
:100D600000B2C117042A01D140B2C117021E71F1AD
:100D7000000206DA0023D0EB030063EB01012D2211
:100D800002E0220504D52B228DF82420012203E065
:100D9000E20701D02022F7E7904653E00A210BE05A
:100DA000102109E010214FF0000B44F004044FF033
:100DB0000809089103E008214FF0000B0891C4F3E3
:100DC0000252022A04D001CF0021032A06D006E0F5
:100DD000FF1D27F00707F7E8020103E080B2042AAD
:100DE00000D1C0B24FF0000822072BD52A78702A14
:100DF00007D0DDF820C08CF0100C5CEA0B0C05D09D
:100E00000EE040228DF82420012208E050EA010380
:100E100006D030238DF824308DF82520022290460C
:100E2000089B83F0080353EA0B030BD150EA01023D
:100E300001D1620706D530228DF824204FF0010839
:100E4000A9F101092A78582A04D038A20B9208AADD
:100E50000A920BE03AA2F9E75B46089AFFF718FA04
:100E60000B9B9B5C0A9A521E0A92137050EA010275
:100E7000F2D10A98ADEB000000F1200B600702D51B
:100E800024F4803401E04FF00109D94502DDA9EBDB
:100E90000B0000E0002000EB0B0141440890AAEB9E
:100EA000010AE00306D4DDE90F232146504600F095
:100EB00063F806444FF0000908E009A911F8090099
:100EC000DDE90F12904709F10109761CC145F4DBF9
:100ED000E0030CD5DDE90F232146504600F04CF825
:100EE000064404E0DDE90F1230209047761C089993
:100EF000481E08900029F5DC08E00A980A99007855
:100F0000491C0A91DDE90F129047761CBBF10001E4
:100F1000ABF1010BF1DC21465046DDE90F2300F077
:100F200019F806446D1C21E60928010030313233DE
:100F30003435363738396162636465660000000015
:100F400030313233343536373839414243444546FF
:100F5000000000002DE9F041044600251E4617461A
:100F6000880404D405E039462020B0476D1C641E77
:100F7000F9D52846BDE8F0812DE9F0410446002569
:100F80001E469046C80301D5302700E0202788047C
:100F900004D505E041463846B0476D1C641EF9D5BE
:100FA0002846BDE8F08100002DE9F04107467C1C91
:100FB0000020834908602078512878D00CDC042870
:100FC00076D004DC012810D0032872D1D9E018288B
:100FD00070D04128F9D1E3E055286CD061286BD05E
:100FE00071286AD07528F0D1CCE0B4F88330802223
:100FF000E11C7448007800F031F90546B5B9724833
:101000000078012812D1B4F883306E49097881F054
:1010100001008022E11C00F021F9054605B9CAE073
:101020006848007880F00100664908706DB91521A4
:10103000664802F016FA00BF0721644802F063FA1E
:101040000028F9D00420BDE8F0815F48007801282D
:1010500004D15F4800F0FCF800F0F0F85D4800783B
:10106000401CC0B26178884201D00420EBE7607870
:1010700058490870607828B95748006800F58070B2
:10108000554908606078544909680844401E53492E
:1010900001EBC01652480068032829DB032068B121
:1010A00001280FD0022811D0032817D112E058E0F0
:1010B00045E07FE053E066E071E051E049A0FFF7D2
:1010C00023FD0CE04AA0FFF71FFD08E04BA0FFF74F
:1010D0001BFD04E04CA0FFF717FD00E000BF00BFC0
:1010E00060783D490968421831464AA0FFF70CFD77
:1010F00006F18000504988420CD91521334802F08E
:10110000B0F900BF0721314802F0FDF90028F9D0FD
:10111000042098E78022E11C3046FFF779FA01208D
:1011200002F092FC0621294802F09BF900BF07213A
:10113000264802F0E8F90028F9D0022083E70621CA
:10114000224802F08EF900BF0721204802F0DBF9A7
:101150000028F9D0002020490860032073E700BF71
:1011600000BF0621194802F07CF900BF072117488B
:1011700002F0C9F90028F9D00020174908600520BD
:1011800061E700BF00BF1048007808B901205AE7A6
:101190000D480078022801D1052054E70BE000BF7C
:1011A0000948007818B108480078012801D10320C7
:1011B00049E700E000BF00BF0348007843E70000B4
:1011C00024000020280000202000002000380140DA
:1011D00000440040300000202C0000200080000867
:1011E000000000205B452F4442475D2000000000C6
:1011F0005B572F4442475D20000000005B492F44AD
:1012000042475D20000000005B442F4442475D20C0
:101210000000000075706461746520616464722070
:101220003D202523582C2070616765204E756D2068
:101230003D202564200D0A000000020870B510242E
:1012400030252946204600F079F9012070BD0000C4
:10125000014908607047000004000020F0B5054611
:101260000C4616460021012D28D1002216E014F864
:1012700001CB82EA0C2200210EE002F4004028B1EA
:1012800041F2210080EA420082B203E04FF6FF7093
:1012900000EA4202481CC1B20829EEDB301EA6F16A
:1012A000010C0CF0FF06E2D1180240EA232087B2BD
:1012B000BA4201D00020F0BD0120FCE785B9002230
:1012C000002104E0605C1044C2B2481CC1B2B142CB
:1012D000F8DBD8B2904201D00020ECE70120EAE729
:1012E00000BF0020E7E7000010B5124800684FF487
:1012F0007A71B0FBF1F4601EB0F1807F01D3012060
:101300000FE0601E4FF0E02148610F214FF0FF30E9
:10131000FFF742FA00204FF0E021886107200861C2
:10132000002008B100BFFEE70021481EFFF734FA95
:1013300010BD0000A80000200246002110E00A486D
:1013400050F8210000B90AE0074850F82100006871
:10135000904203D1044850F82100704700BF491C57
:101360000329ECD30020F8E72801002002460021E1
:101370000EE00D4850F8210000B90BE00A4850F883
:10138000210000681368984201D101207047491C70
:101390000329EED300BF032904D2034840F82120DB
:1013A0000120F3E70020F1E728010020064A02EBC4
:1013B0009011096800F01F0301229A401143024B6B
:1013C00003EB901211607047002004E010B54FF459
:1013D0008470FFF7EBFF4FF48670FFF7E7FF40F2F2
:1013E0000D10FFF7E3FF10BD10B511A0FFF78CFB48
:1013F00011A0FFF789FB17A0FFF786FB1948FFF73D
:1014000083FB19A0FFF780FB22A0FFF77DFB0021E3
:101410002DA0FFF779FB012132A0FFF775FB022118
:1014200038A0FFF771FB03213DA0FFF76DFB10BD56
:101430006C6F670D0A00000055736167653A206C98
:101440006F67203C617267756D656E74733E0D0A3F
:1014500000000000417267756D656E74733A0D0A85
:1014600000000000A4520008092D6765743A206747
:101470006574207468652063757272656E74206C83
:101480006F67207072696E74206C6576656C0D0AEA
:1014900000000000092D736574203C6C6576656C56
:1014A0003E3A736574207468652063757272656E68
:1014B00074206C6F67207072696E74206C6576653D
:1014C0006C200D0A000000000909206C6576656C2F
:1014D000202564203A204442475F4552524F522013
:1014E000200D0A000909206C6576656C20256420B2
:1014F0003A204442475F5741524E494E4720200D03
:101500000A0000000909206C6576656C20256420BE
:101510003A204442475F494E464F20200D0A0000C2
:101520000909206C6576656C202564203A204442C8
:10153000475F4C4F4720200D0A0000002DE9F04185
:1015400005460E464FF000684FF4006000FB05872B
:1015500000F01AF940F2053000F07EF84FF44170C7
:1015600000F07AF840F2023000F076F800241BE038
:10157000384600F097F807F5006740F2053000F0B4
:101580006BF84FF4417000F067F840F2023000F061
:1015900063F8601C0A2190FBF1F201FB120008B90C
:1015A00000F0C4F9601C84B2B442E1DBBDE8F08114
:1015B00000B50346012200BF00F00CF802465B1E96
:1015C000012A01D1002BF7D1012A00D104221046B3
:1015D00000BD000000200A49C96801F0010109B1FD
:1015E00001200CE00649C96801F0100109B103208F
:1015F00005E00349C96801F0040101B10220704708
:101600000020024000B50346012200BF00F00CF8A4
:1016100002465B1E012A01D1002BF7D1012A00D11D
:101620000422104600BD000000200A49C96C01F0E8
:10163000010109B101200CE00649C96C01F010015B
:1016400009B1032005E00349C96C01F0040101B1AF
:101650000220704700200240064A02EB9011096800
:1016600000F01F0301229A401143024B03EB90123A
:1016700011607047002002400848006940F0800077
:101680000649086106480088B0F5007F04D908467D
:10169000006D40F0800008657047000000200240A7
:1016A000E0F7FF1F30B5054633480088B0F5007FEE
:1016B00044D9324885421CD23148FFF779FF0446AD
:1016C000002C56D12F48006940F002002D490861D6
:1016D00008464561006940F0400008612848FFF76E
:1016E00067FF04462748006920F002002549086189
:1016F0003FE02348FFF786FF0446002C39D12148FC
:10170000006D40F002001F49086508464565C06944
:1017100000F0020008B1084645611A48006D40F02B
:101720004000184908651648FFF76CFF0446154845
:10173000006D20F00200134908651AE01048FFF719
:1017400037FF0446ACB90F48006940F002000D496C
:10175000086108464561006940F04000086108489A
:10176000FFF726FF04460748006920F002000549FC
:101770000861204630BD0000E0F7FF1FFFFF0708AB
:101780000000FF0F002002400C48006900F08000BC
:1017900020B10B48094948600A4848600A48008857
:1017A000B0F5007F09D90548006D00F0800020B138
:1017B00003480249486403484864704700200240D7
:1017C00023016745AB89EFCDE0F7FF1F70B50446F5
:1017D0000D46002627480088B0F5007F31D92648FD
:1017E000844217D22548FFF7E3FE0646002E3ED17D
:1017F0002348006940F001002149086125601F4825
:10180000FFF7D6FE06461E48006920F001001C497D
:1018100008612CE01948FFF7F5FE06463EBB184864
:10182000006D40F001001649086525601348FFF778
:10183000E9FE06461248006D20F0010010490865D7
:1018400015E00E48FFF7B4FE064686B90C4800695D
:1018500040F001000A49086125600848FFF7A8FE2A
:1018600006460748006920F0010005490861304636
:1018700070BD0000E0F7FF1FFFFF07080000FF0F2B
:101880000020024070B504460D460C48007828B18F
:10189000E1B20B480068FFF74FF870BD21460848D9
:1018A000006801F0DEFD00BF07210548006801F077
:1018B0002AFE0028F8D00020EFE7000038000020C2
:1018C0000400002030B502460B46164C002145F2BC
:1018D0005550154D286000BF1348C06800F0010145
:1018E000601E041E01D00029F6D109B1002030BDD0
:1018F0000D4843600B4C00BF0B48C06800F002016C
:10190000601E041E01D00029F6D109B10020EEE7C7
:10191000C2F30B00044DA8604AF6AA2028600120FB
:10192000E5E70000FFFF0F00003000404AF6AA2064
:101930000149086070470000003000404CF6CC4080
:1019400001490860704700000030004070B504464F
:101950000D4616460348016803A0FFF7D5F800209E
:1019600070BD00000000002043757272656E742027
:101970006C6F67206C6576656C203A2025640D0AD3
:1019800000000000F0B5044616460025002201F0D4
:101990000F0501F0100747B1042E05D145F00305EE
:1019A000E76B1F43E76300E0354300201EE001279B
:1019B00087401F40C7B122684FEA800C0F2707FA03
:1019C0000CF7BA43870005FA07F73A43282904D1F0
:1019D000012787401F40676105E0482903D101279F
:1019E00087401F4027612260471CB8B20828DED319
:1019F000082022E0012787401F40E7B16268A0F17C
:101A000008074FEA870C0F2707FA0CF7BA43A0F133
:101A10000807BF0005FA07F73A43282904D1012730
:101A200087401F40676105E0482903D101278740AF
:101A30001F4027616260471CB8B21028DAD3F0BD9E
:101A4000F0B50A46002300240021002500F00046DE
:101A5000B6F1004F02D11D4EF16901E01B4E7168D5
:101A6000C0F3034583B200F44016B6F5401F08D119
:101A700021F0E061154E766826F0E066134F7E6037
:101A800012E000F48016B6F5801F06D1032606FA90
:101A900005F4A14341F0E06106E0460D360103FA8A
:101AA00006F6B14341F0E06122B1460D360103FA7A
:101AB00006F6314300F00046B6F1004F02D1034E66
:101AC000F16101E0014E7160F0BD000000000140D5
:101AD00070B504460D462946204600F01FF9002047
:101AE00070BD00001CB5FFF7FFFB4FF4407000F025
:101AF000FFF800F097F92D48FFF7AAFBFEF716FF55
:101B00002B480068FEF7A2FB84B2224628480168F1
:101B10002648FEF72CFF27480068FEF797FB84B2A3
:101B20002246244801682148FEF721FF02F0CCF943
:101B3000FFF74CFC2048192100234FF48272CDE9B5
:101B400000101EA1214802F035FF00201421034699
:101B50004FF48272CDE900101DA11F4802F02AFF48
:101B600002F06CF821E01D48006802281DDB02200D
:101B700030B1012808D002280AD0032810D10BE088
:101B800017A0FEF7C1FF0CE018A0FEF7BDFF08E0AC
:101B900019A0FEF7B9FF04E01AA0FEF7B5FF00E0B8
:101BA00000BF00BF1AA0FEF7AFFFDCE7003801401E
:101BB0000C000020100000200800002075706461F7
:101BC00074654D6F6E69746F720000007D3000089F
:101BD0007570646174650000E13200080000002047
:101BE0005B452F4442475D20000000005B572F44B7
:101BF00042475D20000000005B492F4442475D20C2
:101C0000000000005B442F4442475D2000000000BC
:101C1000765461736B537461727453636865647551
:101C20006C657220206572726F7200002DE9F041C0
:101C300003460D46164600240027A0462A480068A1
:101C400000F4E060B0F5E06F03D100BF4FF004088E
:101C500030E02548006800F4E060B0F5C06F03D1C3
:101C600001274FF0030825E01F48006800F4E060FA
:101C7000B0F5A06F02D10227B8461BE01A480068F1
:101C800000F4E060B0F5806F03D103274FF0010846
:101C900010E01548006800F4E060B0F5407F03D123
:101CA00004274FF0000805E04FF4A06000F020F892
:101CB0000227B846C7F1040005FA00F4C8F1040190
:101CC0000F20C8403040044324010848C45403F0A6
:101CD0001F01012088405911890001F1E021C1F85C
:101CE0000001BDE8F08100000CED00E000E400E040
:101CF00002490143024A1160704700000000FA05E2
:101D00000CED00E0034A0A400243034B1A60BFF3A4
:101D10004F8F704780FFFF1F08ED00E02DE9F04175
:101D200006460F46012E03DCFFF75EFBBDE8F0819F
:101D3000012444E000253CE0234A52F8251057F8DE
:101D40002400FEF78AFA002832D1204850F82530C6
:101D500022463946304698478046B8F1000F01DBED
:101D6000444424E01A480068002820DB002030B1F9
:101D7000012808D002280AD0032810D10BE015A0B2
:101D8000FEF7C2FE0CE016A0FEF7BEFE08E017A0AC
:101D9000FEF7BAFE04E018A0FEF7B6FE00E000BFB2
:101DA00000BF094850F8251016A0FEF7ADFE00BF91
:101DB0006D1C054850F825000028BDD1641CB442B4
:101DC000B8DB00BFB2E70000744F0008684F00089E
:101DD000000000205B452F4442475D2000000000CA
:101DE0005B572F4442475D20000000005B492F44B1
:101DF00042475D20000000005B442F4442475D20C5
:101E00000000000043616E6E6F742068616E646C48
:101E10006520617267756D656E743A2025730D0AD1
:101E200000000000704700002DE9F04105460E4615
:101E30001C4807681C480068001D01F0EEFB50B903
:101E40001948006890F82C1001208840174909684B
:101E5000814316480160681C38B936B112480168E0
:101E6000091D134801F06CFC1AE07C190E4800684B
:101E70004460BC4207D20C480168091D0D48006847
:101E800001F044FC0CE008480168091D0A4800689C
:101E900001F03CFC09480068844201D20748046014
:101EA000BDE8F081C0000020AC000020C40000208C
:101EB000A0070020B4000020B0000020DC000020BB
:101EC00010B5044601F048FC24480068401C234932
:101ED00008602348006840B921480460084600684B
:101EE00001280DD100F0EEF90AE01E48006838B96B
:101EF0001B480068C06AE16A884201D8184804603B
:101F000019480068401C1849086008460068A06429
:101F100094F82C100120884014490968084313499B
:101F20000860E16A01EB8101114A02EB8100211D89
:101F300001F006FC01F054FC0A48006868B108484A
:101F40000068C06AE16A884207D24FF080500949B0
:101F50000860BFF34F8FBFF36F8F10BDBC00002030
:101F6000AC000020C8000020D8000020C4000020E1
:101F7000D004002004ED00E010B501F0EDFB1048A6
:101F80000068D0B90F4801F0B1FB0F4801F0AEFB7B
:101F90000C480E4908600C480D49086000221021C9
:101FA000032002F0FDF9064908600846006820B1E8
:101FB00008A10348006801F00BFD01F011FC10BD01
:101FC000F0000020B4070020C8070020E80000202F
:101FD000EC000020546D72510000000010B516E0B6
:101FE00001F0BAFB0C48C068C468201D01F015FB65
:101FF0000A480068401E0949086009480068401EF8
:102000000749086001F0ECFB204600F05FF8044847
:1020100000680028E4D110BD8C070020BC0000201F
:10202000B800002070B504460D46206C70B1216CDC
:10203000E0680144E160D4E90210884201D32168DC
:10204000E1602846226CE168FEF7DCF870BD2DE9FE
:10205000F04104460F4615464FF00008A66B206C71
:1020600048B9206800282CD1A06802F09BFD80466A
:102070000020A06025E07DB93946226C6068FEF73B
:10208000C1F8216C606808446060D4E901018842AD
:1020900017D32068606014E03946226CE068FEF7D0
:1020A000B1F8216CE068411AE1602168E06888427B
:1020B00003D2216CA068411AE160022D01D106B162
:1020C000761E701CA0634046BDE8F08110B5044642
:1020D000206B01F0BDFB204601F0BAFB10BD0000F3
:1020E0000146084A126812680AB9012200E000227B
:1020F0000A600A6822B9034A1268D268106800E0D0
:1021000000207047E800002030B54FF40C4317481A
:1021100000F007042CB1C01D20F00700134C041B75
:102120001B1B0246124C22600024114D6C60D0181B
:10213000083820F007000F4C206000240D4D2D685A
:102140006C600C4D2D682C601146441A4C60094C93
:1021500024680C60084D4C682C60084D4C682C605D
:102160004FF00044064D2C6030BD0000DC0700201D
:10217000FC000020040100200C01002008010020C8
:102180001001002000BFFFF729FF07480068012861
:1021900007D94FF0805005490860BFF34F8FBFF358
:1021A0006F8F01F04EFAEEE7D004002004ED00E05E
:1021B0002DE9F04106460D4617469846069C0DB996
:1021C000246000E02760E66325640121204602F0D8
:1021D00021F984F850800020A064BDE8F08100005F
:1021E0002DE9F05F82460E4617469B46DDF82880B3
:1021F0000C9C2EB940F26B3229A12EA0FEF784FC74
:10220000B900A522206BFEF70FF8781E216B01EBB9
:10221000800929F0070909F0070008B9012000E04A
:10222000002028B940F27F321DA122A0FEF76CFCED
:102230006764002507E0715D04F134004155705D6D
:1022400000B902E06D1C102DF5D300BF0021432022
:102250000155B8F1200F01D34FF01F08C4F82C80AE
:10226000C4F8508000206065201D01F04CFA04F194
:10227000180001F048FA2461C8F12000A0616462EE
:102280000020A06584F85C005A465146484600F09C
:1022900027FC20600B9808B10B980460BDE8F09F04
:1022A0002E2E5C6672656572746F735C7461736BFD
:1022B000732E63004572726F723A25732C25640D7C
:1022C0000A00000010B5002407E004EB84010F4A67
:1022D00002EB810001F00AFA641C202CF5D30C48B3
:1022E00001F004FA0B4801F001FA0B4801F0FEF985
:1022F0000A4801F0FBF90A4801F0F8F904480949D5
:10230000086004480849086010BD0000D00400209F
:102310005007002064070020780700208C07002069
:10232000A0070020B0000020B400002010B5014636
:10233000164800E0006803688B42FBD302464368FE
:1023400013448B4204D143684C68234443600146E4
:102350000A464B6813440468A34211D10C4C03682D
:102360002468A34208D04B680468646823444B6027
:1023700003681B680B6005E0054B1B680B6001E000
:1023800003680B60884200D0016010BDFC00002093
:10239000040100202DE9F04104460D4616461F4673
:1023A0004FF0000865602461B5420CD8F01BA169AC
:1023B000884202D34FF0010811E0211D094800684E
:1023C00001F0A4F90BE0BE4204D2BD4202D34FF0AB
:1023D000010804E0211D0448006801F097F9404617
:1023E000BDE8F081EC000020E800002070B5054653
:1023F00001F0B2F9A86B08B9012400E0002401F053
:10240000EFF9204670BD70B5054601F0A5F9A86B3F
:10241000E96B884201D1012400E0002401F0E0F9D9
:10242000204670BD2DE9F3410D460098846C0027CD
:102430002CB940F645321AA11EA0FEF765FBA06B31
:10244000E16B884201D2012000E0002028B940F66B
:10245000463213A117A0FEF757FBA06BE16B884231
:102460001BD294F945602A4669462046FFF7EFFDE6
:102470000746701C60B9606A08B9012000E00020BE
:1024800050B904F1240002F0F9FB28B1012703E060
:10249000701C40B284F8450000BF3846BDE8FC819E
:1024A0002E2E5C6672656572746F735C71756575EE
:1024B000652E63004572726F723A25732C25640D88
:1024C0000A000000F8B505460F4613480068C068CA
:1024D000C468201D01F0A1F8E069012818D1A069A5
:1024E00041192B463A462046FFF754FF80B10020A1
:1024F00003462A4601460090204602F0E3FC0646C9
:102500002EB94FF4F47205A10AA0FEF7FDFA00BF40
:102510002046616A8847F8BDE80000202E2E5C66E0
:1025200072656572746F735C74696D6572732E6326
:10253000000000004572726F723A25732C25640DFD
:102540000A000000F0B587B070E0039800280CDAAC
:1025500004AE2EB940F2C72239A13FA0FEF7D4FA4B
:10256000D6E90020B168904700BF039800285DDBE2
:10257000059C606908B9012000E0002010B9201D09
:1025800001F04BF802A800F0C5F8054603980A28A8
:102590004AD2DFE800F00905072C2E4506082D2F4A
:1025A00000BF00BF00BF00BF0498A26981180346A6
:1025B0002A462046FFF7EEFEC0B12046616A8847F2
:1025C000E069012812D1002000900498A169421806
:1025D00000231946204602F075FC07462FB940F249
:1025E000013217A11CA0FEF78FFA00BF1DE000BF4B
:1025F0001BE000BF0498A061A06908B1012000E0C1
:10260000002028B94FF446720DA113A0FEF77CFA02
:10261000A06941192B462A462046FFF7BBFE04E07D
:10262000204601F015F900E000BF00BF002203A919
:102630000D48006802F0B8F8002886D107B0F0BD58
:102640002E2E5C6672656572746F735C74696D655D
:1026500072732E63000000004572726F723A257328
:102660002C25640D0A000000F0000020F8B5054696
:102670000C4601F0BFFB684600F04CF80646009897
:1026800020BB44B9B54206D802F052FB3146284679
:10269000FFF718FF1CE03CB10E480068006808B95D
:1026A000012000E000200446A91B22460A480068D9
:1026B00001F0A4F902F03CFB50B94FF080500749FB
:1026C0000860BFF34F8FBFF36F8F01E002F030FB64
:1026D000F8BD0000EC000020F000002004ED00E058
:1026E0000A490968096809B9012100E0002121B1FE
:1026F0004FF0FF31064A116006E004490968C968D5
:10270000C868034A4168116070470000B0000020AB
:10271000DC00002070B5044602F08EF9054607483B
:102720000068854204D200F00BF80120206001E02F
:102730000020206001480560284670BDF800002098
:102740002DE9F8432DE021480068C06805681F485E
:102750000068C068C468201D00F05FFF2046616A01
:102760008847E06901281CD1A0694619AE4207D903
:1027700066602461211D1548006800F0C7FF10E065
:10278000002003462A4601460090204602F09AFBAC
:1027900007462FB940F272320DA113A0FEF7B4F92B
:1027A00000BF0A480068006808B9012000E0002066
:1027B0000028C8D00548D0F800800F4800680349B9
:1027C00008600D48C0F80080BDE8F883E8000020EC
:1027D0002E2E5C6672656572746F735C74696D65CC
:1027E00072732E63000000004572726F723A257397
:1027F0002C25640D0A000000EC0000200B48006846
:10280000401C08B9012000E0002020B9CA2208A11C
:1028100012A0FEF779F900BF202080F31188BFF3E2
:102820004F8FBFF36F8F00BF00BFFEE71401002082
:102830002E2E5C6672656572746F735C706F727455
:1028400061626C655C525644535C41524D5F434D2E
:10285000335C706F72742E63000000004572726FFB
:10286000723A25732C25640D0A00000070B50546E8
:1028700000262C462DB940F2FE620EA112A0FEF7F2
:1028800043F915496069884201D1012000E0002028
:1028900070B11249A06A884201D1012000E00020F5
:1028A00030B9A06A08B9012000E0002000B101267B
:1028B000304670BD2E2E5C6672656572746F735CF7
:1028C0007461736B732E63004572726F723A257375
:1028D0002C25640D0A000000A007002078070020C6
:1028E00008B500BF6846FFF7FBFB04462046009989
:1028F000FFF7BCFEFFF726FEF4E770B5044600F0D4
:102900002BFF94F945501AE0A06C38B10021204605
:10291000FFF788FD88B101F0DDF80EE0606A08B9C4
:10292000012000E0002038B904F1240002F0A6F9EB
:1029300018B101F0CFF800E003E0681E45B2002DA9
:10294000E2DC00BFFF2084F8450000F049FF00F002
:1029500003FF94F9445010E0206908B9012000E019
:10296000002048B904F1100002F088F908B101F024
:10297000B1F8681E45B200E001E0002DECDC00BFBC
:10298000FF2084F8440000F02BFF70BD2DE9F041DA
:1029900004464FF0000801F02DFA3E48006808B9DF
:1029A000FFF7B2FB3C480068204000285FD1A4B18B
:1029B000083404F0070080B104F00700C0F10800FB
:1029C000044404F0070008B9012000E0002020B909
:1029D000952232A13BA0FEF797F8002C47D03D4846
:1029E0000068844243D83C4E3046056801E02E46DC
:1029F0002D686868A04202D228680028F7D12548CF
:102A00000068854233D0306800F1080828683060DB
:102A10006868001B102813D92F1907F0070008B9A0
:102A2000012000E0002020B9C2221CA125A0FEF751
:102A30006BF86868001B78606C603846FFF776FCBE
:102A4000244968680968081A22490860084600682D
:102A500022490968884203D21E4800681F4908605D
:102A60000D4968680968084368600020286002F022
:102A70005FF908F0070008B9012000E0002028B93C
:102A80004FF4817205A10FA0FEF73EF84046BDE865
:102A9000F081000004010020100100202E2E5C6651
:102AA00072656572746F735C706F727461626C656D
:102AB0005C4D656D4D616E675C686561705F342E5D
:102AC000630000004572726F723A25732C25640D05
:102AD0000A00000008010020FC0000200C0100207A
:102AE000001F4FF080730360001F21F0010303609B
:102AF000001F034B03601438026020387047000049
:102B0000FD2700080348406A40F080700149486290
:102B100070470000001002402DE9F04F8CB00746CE
:102B200000200A904AA090E8004CC068CDE905BE9C
:102B3000CDF810A007900FF21C1ADAE9000ACDE9CF
:102B4000020A0FF2101ADAE9000ACDE9000A444835
:102B50004068C0F381000B900B9820B1012804D08D
:102B600002283FD103E03F4A3EE03E4A3CE03C4879
:102B7000406800F4803CBCF5803F12D13848C06A00
:102B800000F08048B8F1000F01D1364B00E0364B21
:102B90003348406800F40039B9F5003F02D15B08C2
:102BA00000E0324B2E484068C0F383412C48406817
:102BB00000F0006008B141F010012948406800F0C1
:102BC000804008B141F020010F2901D2891C06E0A4
:102BD0000F2903D33E2901D8491C00E03F2103FB04
:102BE00001F201E01F4A00BF00BF1D484068C0F36A
:102BF000031504A8465D22FA06F419484068C0F39C
:102C0000022502A8465D24FA06F00990144840689F
:102C1000C0F3C2251DF8056024FA06F0089037B10C
:102C2000012F06D0022F06D0032F0AD106E00A9208
:102C300008E00A9406E009980A9003E008980A90D0
:102C400000E000BF00BF0A980CB0BDE8F08F0000A4
:102C5000000000000000000001020304060708094C
:102C60000010024000127A00006CDC0200093D00F6
:102C700000B51A48006840F00100184908600020BB
:102C800000F044F81548406820F0030013494860FC
:102C90000846006812490840104908600846006864
:102CA00020F480200860084640680E4908400B491F
:102CB0004860084600680A49084008490860084614
:102CC000006820F4802008604FF41F0088600846E8
:102CD000C06A20F0C040C86200BD00000010024081
:102CE000FFFFF6FE0C0000200146074A02EB9110A0
:102CF000006801F01F0301229A40104008B1012032
:102D000070470020FCE7000000100240F0B50646C6
:102D1000002400270025B6F5006F20D005DC8EB317
:102D2000102E0BD0182E73D161E0B6F5106F4CD079
:102D3000A6F54050103800286AD134E004E0112094
:102D4000FFF7D2FF0546641C1DB94FF6FF708442A1
:102D5000F5D11120FFF7C8FF00B1012759E005E0C8
:102D600040F60100FFF7C0FF0546641C1DB96FF077
:102D70007C408442F4D140F60100FFF7B5FF00B17A
:102D8000012746E0FFE704E00120FFF7ADFF05461D
:102D9000641C15B9B4F5A06FF6D10120FFF7A4FFAC
:102DA00000B1012735E005E043F21100FFF79CFF79
:102DB0000546641C15B918488442F5D143F2110048
:102DC000FFF792FF00B1012723E005E040F6011074
:102DD000FFF78AFF0546641C15B90F488442F5D1F8
:102DE00040F60110FFF780FF00B1012711E004E079
:102DF0001920FFF779FF0546641C15B9064884427F
:102E0000F6D11920FFF770FF00B1012701E0FFE7BD
:102E100000BF00BF3846F0BDFFFF0F00064A02EBBF
:102E20009011096800F01F0301229A409143024B60
:102E300003EB90121160704700100240064A02EB4B
:102E40009011096800F01F0301229A401143024BC0
:102E500003EB90121160704700100240064A02EB2B
:102E60009011096800F01F0301229A409143024B20
:102E700003EB90121160704700100240064A02EB0B
:102E80009011096800F01F0301229A401143024B80
:102E900003EB901211607047001002402DE9F041E1
:102EA00005460E461746691E56F82100FDF7E3F960
:102EB0000446002C01DB032C05DD0748016807A050
:102EC000FDF722FE05E00448046001680DA0FDF74F
:102ED0001BFE0020BDE8F081000000206C6F672021
:102EE0006C6576656C20736574206572726F722CE8
:102EF000206F6C64206C6576656C20697320256496
:102F00000D0A00006C6F67206C6576656C20736538
:102F10007420737563636573732C206E6577206C02
:102F20006576656C2069732025640D0A0000000039
:102F3000002000213F4A126842F480323D4B1A6063
:102F400000BF401C3B4A126802F4003119B94FF629
:102F5000FF729042F5D1374A126802F400320AB982
:102F600000BFFEE7334AD26942F08052314BDA614A
:102F7000314A126842F440422F4B1A602D4A52687F
:102F80002C4B5A601A4652685A601A46526842F4EC
:102F900080625A601A46526822F440325A601A46D9
:102FA000526842F440325A601A465268234B1A4023
:102FB000204B5A601A465268214B1A431D4B5A60E7
:102FC0001A46126842F080721A6000BF194A1268ED
:102FD00002F00072002AF9D0174A126842F48032D7
:102FE000154B1A6000BF144A526802F48032002A5E
:102FF000F9D0114A126842F400320F4B1A6000BF38
:103000000D4A526802F40032002AF9D0094A526887
:1030100022F00302074B5A601A46526842F002023D
:103020005A6000BF034A526802F00802002AF9D031
:10303000704700000010024000700040FFFFC3B75F
:103040000000340810B5FFF773FF10BD0248006898
:10305000401C01490860704718000020CA43026103
:1030600070470246D06800EA01031069084010B1B9
:103070000BB1012070470020FCE700004FF4FA6418
:10308000774800687749884200D1774C642000F087
:10309000DBFCE3E04FF47A7000F0D6FC7348006884
:1030A000401C72490860084600687148007806288C
:1030B0007CD2DFE800F003967CC561CE6B480068E7
:1030C00000EB4001C1EBC010B4EBC00F24D869483D
:1030D000006802281DDB022030B1012808D0022838
:1030E0000AD0032810D10BE063A0FDF70DFD0CE022
:1030F00064A0FDF709FD08E065A0FDF705FD04E00B
:1031000066A0FDF701FD00E000BF00BF66A0FDF76F
:10311000FBFCFDF7B5FA2EE05648006802282ADBD2
:10312000022030B1012808D002280AD0032810D18B
:103130000BE051A0FDF7E8FC0CE052A0FDF7E4FC29
:1031400008E053A0FDF7E0FC04E054A0FDF7DCFC30
:1031500000E000BF00BF4548006800EB4001C1EB44
:10316000C010A4EBC0004FF47A71B0FBF1F5294612
:1031700051A0FDF7C9FC6FE03C48006800EB40013E
:10318000C1EBC01040F6B831B1EBC00F0DD8002034
:10319000364908601521504800F063F900BF072147
:1031A0004D4800F0B0F90028F9D055E053E02F4821
:1031B000006800EB4001C1EBC01040F6B831B1EB44
:1031C000C00F0DD80020294908600621424800F0B0
:1031D00048F900BF0721404800F095F90028F9D0D0
:1031E0003AE02248006800EB4001C1EBC0104FF408
:1031F0007A71B1EBC00F08D800201C49086037482D
:10320000007880F00100354908703448007858B1E2
:103210004321314800F025F900BF07212E4800F076
:1032200072F90028F9D00AE015212B4800F019F9AD
:1032300000BF0721284800F066F90028F9D00BE00C
:10324000022000F001FC002005490860FDF718FA93
:1032500002E0FDF7B5FA00BF00BF00BF1AE70000AB
:10326000F07F012034127698C0D4010024000020A1
:1032700020000020000000205B452F4442475D20D5
:10328000000000005B572F4442475D200000000013
:103290005B492F4442475D20000000005B442F44FF
:1032A00042475D20000000006A756D7020746F2039
:1032B000415050200D0A00006A756D7020746F2017
:1032C000415050203A636F756E74646F776E203D85
:1032D00020256420730D0A000038014028000020DA
:1032E000A6B000229721012001F05AF81E4908607B
:1032F00008460068002821D11C48006800281DDB12
:10330000002030B1012808D002280AD0032810D1AB
:103310000BE017A0FDF7F8FB0CE018A0FDF7F4FB9D
:1033200008E019A0FDF7F0FB04E01AA0FDF7ECFBA4
:1033300000E000BF00BF1AA0FDF7E6FB13E04FF06E
:10334000FF3269460848006801F02EFA1C48006800
:1033500000F0CAFC6846FDF727FE1A4908701848B5
:10336000006800F015FCEAE71C00002000000020C7
:103370005B452F4442475D20000000005B572F440F
:1033800042475D20000000005B492F4442475D201A
:10339000000000005B442F4442475D200000000015
:1033A0007570646174654461744D73675F517565D0
:1033B0007565206372656174652045525221000075
:1033C00008000020200000202DE9F04704460D46AB
:1033D0000027B846B94600261D49601A8C421CD009
:1033E00006DC1C48204470B1B0F5806F1FD10FE09F
:1033F000B0F5806F16D0B0F56C4F18D10320FFF7F1
:103400008BFB074614E00220FFF786FB07460FE020
:103410000220FFF781FB07460AE00220FFF77CFB52
:10342000074605E00220FFF777FB074600E000BFF4
:1034300000BF07EB5500B0FBF5F64FF6F07006EA5B
:10344000000806F00F0948EA0900A060BDE8F0870F
:10345000004C004000BCFFBF01464868C0F30800B4
:103460007047C1F3080242607047000010B504467F
:103470002049601A8C4228D006DC1F48204490B1B5
:10348000B0F5806F33D117E0B0F5806F26D0B0F57E
:103490006C4F2CD140F20E30FFF7F0FC40F20E30B2
:1034A000FFF7DCFC24E040F21140FFF7E7FC40F2BC
:1034B0001140FFF7D3FC1BE040F21240FFF7DEFCA7
:1034C00040F21240FFF7CAFC12E040F21340FFF74F
:1034D000D5FC40F21340FFF7C1FC09E040F2144074
:1034E000FFF7CCFC40F21440FFF7B8FC00E000BF4F
:1034F00000BF10BD004C004000BCFFBFC16841F4DC
:103500000051C160704710B5024602EB911000688F
:1035100001F01F040123A340184008B1012010BD91
:103520000020FCE70A460021416921F400711143A3
:10353000416170470A460021416921F480711143BD
:103540004161704710B500EB9112126801F01F0441
:103550000123A3409A4300EB91131A6010BD10B5EC
:1035600000EB9112126801F01F040123A3401A43DB
:1035700000EB91131A6010BD10B500EB9152126868
:10358000C1F304440123A3409A4300EB91531A6012
:1035900010BD70B5024600230024C1F389101058F5
:1035A00001F01F060125B54000EA050302EB91502A
:1035B0000068C1F304460125B54000EA050414B1D2
:1035C0000BB1012070BD0020FCE7C26822F4C0628C
:1035D000C260C2680A43C26070470A460021C168DF
:1035E00021F004011143C1607047026922F4405286
:1035F000026102690A43026170470A460021C168FC
:1036000021F008011143C1607047C26822F4805262
:10361000C260C2680A43C260704701460A69D1E9C4
:1036200001309860D1E9010358605068884201D1A7
:1036300088685060002008611068401E10601068A3
:10364000704710B5FEF772F910BD000070B5054661
:103650000C461248006800281EDB002030B101280B
:1036600008D002280AD0032810D10BE00CA0FDF7E7
:103670004BFA0CE00DA0FDF747FA08E00EA0FDF7AD
:1036800043FA04E00FA0FDF73FFA00E000BF00BFDF
:1036900021460FA0FDF738FA70BD000000000020A1
:1036A0005B452F4442475D20000000005B572F44DC
:1036B00042475D20000000005B492F4442475D20E7
:1036C000000000005B442F4442475D2000000000E2
:1036D0007461736B20737461636B206F76657266BF
:1036E0006C6F772C2025730D0A00000000F1080193
:1036F00041604FF0FF31816000F10801C16001615C
:1037000000210160704700210161704710B5024639
:103710000B685C1C0CB9106907E002F1080000E0BE
:103720004068446824689C42FAD944684C604C68FC
:10373000A160886041600A611468641C146010BD57
:1037400042684A6093688B60936859609160086131
:1037500003685B1C0360704710B500BF202080F336
:103760001188BFF34F8FBFF36F8F00BF0B48006806
:10377000401C0A4908600846006801280DD1084825
:103780000068C0B208B9012000E0002028B94FF459
:10379000B37204A10EA0FDF7B7F910BD140100200B
:1037A00004ED00E02E2E5C6672656572746F735CCA
:1037B000706F727461626C655C525644535C415226
:1037C0004D5F434D335C706F72742E6300000000D8
:1037D0004572726F723A25732C25640D0A00000041
:1037E00010B50B48006828B940F26D1209A114A069
:1037F000FDF78AF906480068401E0549086008463A
:10380000006820B9002080F3118800BF00BF10BD00
:10381000140100202E2E5C6672656572746F735CF5
:10382000706F727461626C655C525644535C4152B5
:103830004D5F434D335C706F72742E630000000067
:103840004572726F723A25732C25640D0A000000D0
:1038500070B506463546002E35D0083D2C461A492F
:1038600060680968084008B1012000E0002028B91C
:103870004FF48B7215A11FA0FDF746F9206808B917
:10388000012000E0002028B940F217120FA119A072
:10389000FDF73AF90C4960680968084098B120685A
:1038A00088B90949606809688843606000F0A2FA35
:1038B0001449606809680844124908602046FEF708
:1038C00035FD01F035FA70BD100100202E2E5C662A
:1038D00072656572746F735C706F727461626C652F
:1038E0005C4D656D4D616E675C686561705F342E1F
:1038F000630000004572726F723A25732C25640DC7
:103900000A0000000801002000204FF0E0210861BB
:103910008861064800684FF47A71B0FBF1F0401EF0
:103920004FF0E0214861072008617047A80000209F
:1039300070B5FCF751FC0546102D11D305F1E020C0
:1039400090F8F04310480078844201DB012000E049
:10395000002028B94FF42A720CA117A0FDF7D4F863
:103960001948006800F4E06018490968884201D8E5
:10397000012000E0002028B94FF42E7203A10EA010
:10398000FDF7C2F870BD0000180100202E2E5C6605
:1039900072656572746F735C706F727461626C656E
:1039A0005C525644535C41524D5F434D335C706FE3
:1039B00072742E63000000004572726F723A2573B4
:1039C0002C25640D0A0000000CED00E01C01002015
:1039D000024600200BE0084B53F8303033B9064B59
:1039E00043F8301003EBC0035A6002E0401C0F287C
:1039F000F1D300BF70470000580400202DE9F041CA
:103A000005460E4617462C46FFF7A6FE94F94400DD
:103A1000401C10B9002084F8440094F94500401C73
:103A200010B9002084F84500FFF7DAFEA06B28B932
:103A30003A46314604F1240000F07CF82046FEF7B7
:103A40005CFFBDE8F081000070B504460025ACB114
:103A50000F48006808B9012000E0002028B940F2B2
:103A60002C520CA110A0FDF74FF800F0C3F9002173
:103A70002046FEF7D9F901F05BF905463DB94FF054
:103A800080500D490860BFF34F8FBFF36F8F70BD3B
:103A9000E40000202E2E5C6672656572746F735CA4
:103AA0007461736B732E63004572726F723A257383
:103AB0002C25640D0A00000004ED00E003490968AC
:103AC000016003490968416070470000D40000208C
:103AD000C00000200120014908607047D00000208C
:103AE00070B504460D462CB940F6AB3207A10CA0C8
:103AF000FDF70AF80E48016818312046FFF706FE68
:103B000001212846FEF790F970BD00002E2E5C665C
:103B100072656572746F735C7461736B732E63008E
:103B20004572726F723A25732C25640D0A000000ED
:103B3000AC00002070B505460E4614462DB940F67F
:103B4000D63209A10DA0FCF7DFFF1048016818313B
:103B50002846FFF7F5FD0CB14FF0FF362146304601
:103B6000FEF762F970BD00002E2E5C66726565720C
:103B7000746F735C7461736B732E63004572726F44
:103B8000723A25732C25640D0A000000AC00002059
:103B900070B505462C462DB94FF4E5621AA11FA059
:103BA000FCF7B2FF2148006884422BD054B3FFF7E2
:103BB000D3FD2046FEF75AFE10B3201DFFF72DFD62
:103BC00094F82C10012088401949096808431849C5
:103BD0000860E16A01EB8101164A02EB8100211DB8
:103BE000FFF7AEFD1149E06A0968C96A884207D348
:103BF0004FF0805010490860BFF34F8FBFF36F8FB5
:103C0000FFF7EEFD70BD00002E2E5C6672656572DA
:103C1000746F735C7461736B732E63004572726FA3
:103C2000723A25732C25640D0A000000AC000020B8
:103C3000C4000020D004002004ED00E01CB51A48A8
:103C400000210B468222CDE9001018A1194800F08E
:103C5000B1FE0446012C02D101F0FAF80446012C11
:103C600015D100BF202080F31188BFF34F8FBFF321
:103C70006F8F00BF4FF0FF300F49086001200F49E0
:103C8000086000200E49086000F0CEFA0BE0601CCE
:103C900008B1012000E0002028B94FF4016209A119
:103CA0000DA0FCF731FF1CBDE000002049444C454D
:103CB0000000000085210008DC000020C800002072
:103CC000C00000202E2E5C6672656572746F735C96
:103CD0007461736B732E63004572726F723A257351
:103CE0002C25640D0A00000070B50546FFF734FD71
:103CF00015B92F48006800E028460446201DFFF74C
:103D00008CFC78B9E06A00EB80002A4951F8200069
:103D100040B994F82C100120884027490968814354
:103D200025480160A06A18B104F11800FFF775FC7E
:103D3000211D2248FFF704FD94F85C00012802D100
:103D4000002084F85C00FFF74BFD1D48006828B197
:103D5000FFF702FDFEF7C4FCFFF742FD14480068C0
:103D6000844224D116480068A8B11648006808B9F2
:103D7000012000E0002028B940F2D46212A117A06F
:103D8000FCF7C2FE4FF0805018490860BFF34F8F18
:103D9000BFF36F8F0BE00948006815490968884236
:103DA00003D100200249086001E000F02BF870BD4B
:103DB000AC000020D0040020C4000020A007002098
:103DC000C8000020E40000202E2E5C66726565723B
:103DD000746F735C7461736B732E63004572726FE2
:103DE000723A25732C25640D0A00000004ED00E0F2
:103DF000BC00002002480068401C01490860704770
:103E0000E400002010B52248006818B101202149C3
:103E100008603BE000201F4908601F4800680068F8
:103E20001D490968096B884205D81B48016834316F
:103E30000068FFF70BFC19480068B0FA80F0C0F189
:103E40001F0404EB8400164951F8200008B101203A
:103E500000E0002028B940F6943212A116A0FCF729
:103E600053FE04EB84010E4A02EB8100416849686D
:103E7000416000F1080142688A4202D14168496804
:103E800041604168C968044A116000BF10BD00006C
:103E9000E4000020D0000020AC000020C40000207E
:103EA000D00400202E2E5C6672656572746F735CA0
:103EB0007461736B732E63004572726F723A25736F
:103EC0002C25640D0A00000010B540F61D10FEF709
:103ED0000BFF012822D18E48006801281DDB01203C
:103EE00030B1012808D002280AD0032810D10BE0F5
:103EF00088A0FCF709FE0CE089A0FCF705FE08E0AD
:103F00008AA0FCF701FE04E08BA0FCF7FDFD00E0B9
:103F100000BF00BF8BA0FCF7F7FDEEE040F61E10DF
:103F2000FEF7E2FE012822D1794800680128F4DB7F
:103F3000012030B1012808D002280AD0032810D16E
:103F40000BE074A0FCF7E0FD0CE075A0FCF7DCFDD5
:103F500008E076A0FCF7D8FD04E077A0FCF7D4FDDC
:103F600000E000BF00BF7EA0FCF7CEFDC5E040F63C
:103F70001B10FEF7B9FE012822D165480068012810
:103F8000CBDB012030B1012808D002280AD0032859
:103F900010D10BE05FA0FCF7B7FD0CE060A0FCF7D0
:103FA000B3FD08E061A0FCF7AFFD04E062A0FCF700
:103FB000ABFD00E000BF00BF71A0FCF7A5FD9CE0D9
:103FC00040F61C10FEF790FE012822D150480068F0
:103FD0000128A2DB012030B1012808D002280AD034
:103FE000032810D10BE04BA0FCF78EFD0CE04CA099
:103FF000FCF78AFD08E04DA0FCF786FD04E04EA02A
:10400000FCF782FD00E000BF00BF65A0FCF77CFD6F
:1040100073E040F61A10FEF767FE012822D13C48F3
:104020000068012869DB012030B1012808D002288E
:104030000AD0032810D10BE036A0FCF765FD0CE098
:1040400037A0FCF761FD08E038A0FCF75DFD04E057
:1040500039A0FCF759FD00E000BF00BF57A0FCF7F6
:1040600053FD4AE040F61F10FEF73EFE012822D124
:1040700027480068012840DB012030B1012808D022
:1040800002280AD0032810D10BE022A0FCF73CFD47
:104090000CE023A0FCF738FD08E024A0FCF734FD79
:1040A00004E025A0FCF730FD00E000BF00BF4CA0FD
:1040B000FCF72AFD21E01648006801281DDB0120DD
:1040C00030B1012808D002280AD0032810D10BE013
:1040D00010A0FCF719FD0CE011A0FCF715FD08E09D
:1040E00012A0FCF711FD04E013A0FCF70DFD00E0A9
:1040F00000BF00BF44A0FCF707FDFEF703FD04214D
:104100004FF47A70FDF7DEFBFDF718FC10BD0000E0
:10411000000000205B452F4442475D200000000066
:104120005B572F4442475D20000000005B492F444D
:1041300042475D20000000005B442F4442475D2061
:104140000000000073797374656D20726573657487
:1041500020726561736F6E3A20465744470D0A001E
:1041600073797374656D207265736574207265610F
:10417000736F6E3A2057574447540D0A00000000F1
:1041800073797374656D20726573657420726561EF
:10419000736F6E3A20706F776572206F6E0D0A0034
:1041A00073797374656D20726573657420726561CF
:1041B000736F6E3A20736F66740D0A0073797374AF
:1041C000656D20726573657420726561736F6E3AF8
:1041D0002065787465726E616C2050494E0D0A003E
:1041E00073797374656D207265736574207265618F
:1041F000736F6E3A206C6F772D706F7765722072D7
:10420000657365740D0A000073797374656D2072AF
:104210006573657420726561736F6E3A20756E6B9D
:104220006F776E0D0A0000001CB53B4C20460078ED
:104230000190FF20214608700846007800909DF804
:10424000000000F0F0009DF80010884201D101202C
:1042500000E0002028B94FF48A7230A13AA0FCF7A0
:1042600053FC9DF8000000F020003B490870072037
:104270003A49086009E039480068401E374908603B
:104280009DF800004006000E00909DF8000000F030
:1042900080008028EFD031480068C0F10700042872
:1042A00001D1012000E0002028B940F227121BA113
:1042B00025A0FCF729FC29480068C0F10700042864
:1042C00001D1012000E0002028B94FF4987213A119
:1042D0001DA0FCF719FC2148006800021F49086076
:1042E0000846008800F4E06008600B4901980870F7
:1042F0001B48006840F470001949086008460068CF
:1043000040F070400860FFF7FFFA00201549086090
:10431000FBF72CFF00201CBD00E400E02E2E5C66A5
:1043200072656572746F735C706F727461626C65D4
:104330005C525644535C41524D5F434D335C706F49
:1043400072742E63000000004572726F723A25731A
:104350002C25640D0A000000180100201C0100201B
:1043600020ED00E01401002010B500BF202080F3F4
:104370001188BFF34F8FBFF36F8F00BFFEF766FE4C
:1043800000F060FB18B14FF080500449086000BF96
:10439000002080F3118800BF10BD000004ED00E094
:1043A0002DE9F84305460E4690460DB1012000E088
:1043B000002028B94FF4BB720DA112A0FCF7A4FB9A
:1043C0000EB9002701E005FB06F707F15400FEF7E0
:1043D000DDFA04464CB1A14609F1540943464A4668
:1043E000314628460094FDF7E3FE2046BDE8F883F9
:1043F0002E2E5C6672656572746F735C717565757F
:10440000652E63004572726F723A25732C25640D18
:104410000A00000070B505460E462C462CB940F245
:1044200003121EA122A0FCF76FFBFFF795F9D4E958
:104430000F12206801FB0200A0600020A06320682A
:104440006060E06B401E226C216800FB0211E1609D
:10445000FF2084F8440084F845009EB9206908B91B
:10446000012000E00020A8B904F1100000F006FCD3
:1044700080B14FF0805012490860BFF34F8FBFF3F7
:104480006F8F07E004F11000FFF730F904F124000A
:10449000FFF72CF9FFF7A4F9012070BD2E2E5C6602
:1044A00072656572746F735C71756575652E6300F6
:1044B0004572726F723A25732C25640D0A00000054
:1044C00004ED00E02DE9FF4782B0064688461D4610
:1044D0004FF0000934462CB940F2F12264A169A0E2
:1044E000FCF712FBB8F1000F01D1206C08B90120D4
:1044F00000E0002028B940F2F2225DA161A0FCF7A3
:1045000003FB022D02D1E06B012801D1012000E064
:10451000002028B940F2F32255A15AA0FCF7F4FA82
:1045200000F07AFA08B9049808B9012000E00020E8
:1045300028B940F2F6224EA152A0FCF7E5FA00BFDE
:10454000FFF70AF9A06BE16B884201D3022D3FD13E
:10455000D4F838A02A4641462046FDF778FD0746A4
:10456000A06C90B1022D02D1BAF1000F2AD12946D8
:104570002046FDF757FF28B34FF0805045490860AB
:10458000BFF34F8FBFF36F8F1CE0606A08B9012043
:1045900000E0002068B904F1240000F06FFB88B14E
:1045A0004FF080503B490860BFF34F8FBFF36F8FD0
:1045B00008E03FB14FF0805036490860BFF34F8F9D
:1045C000BFF36F8FFFF70CF9012006B0BDE8F0874D
:1045D000049818B9FFF704F90020F6E7B9F1000FC5
:1045E00004D16846FFF76AFA4FF00109FFF7F8F8BF
:1045F000FFF700FCFFF7B0F894F94400401C10B935
:10460000002084F8440094F94500401C10B90020B3
:1046100084F84500FFF7E4F804A9684600F07CF947
:10462000F8B92046FDF7EFFEA8B104F11000049997
:10463000FFF756FA2046FEF760F900F079FB0028F4
:104640007FF47EAF4FF0805012490860BFF34F8F68
:10465000BFF36F8F74E72046FEF74FF900F068FB59
:104660006EE72046FEF749F900F062FB0020ACE758
:104670002E2E5C6672656572746F735C71756575FC
:10468000652E63004572726F723A25732C25640D96
:104690000A00000004ED00E02DE9F05F80468A4644
:1046A00015461E4644462CB940F2C33235A13AA005
:1046B000FCF72AFABAF1000F01D1206C08B90120E9
:1046C00000E0002028B94FF471722EA132A0FCF74F
:1046D0001BFA022E02D1E06B012801D1012000E07B
:1046E000002028B940F2C53226A12BA0FCF70CFA15
:1046F000FFF71EF900BF2021EFF3118081F311882D
:10470000BFF34F8FBFF36F8F00BF0746A06BE16B06
:10471000884201D3022E2BD194F945B0324651463E
:104720002046FDF794FC0BF10100C8B9A06C40B124
:1047300031462046FDF776FEB8B1B5B101202860BC
:1047400013E0606A08B9012000E0002068B904F1B4
:10475000240000F093FA40B13DB10120286004E04C
:104760000BF1010040B284F845004FF0010901E06F
:104770004FF0000900BF87F3118800BF4846BDE82D
:10478000F09F00002E2E5C6672656572746F735C1C
:1047900071756575652E63004572726F723A257387
:1047A0002C25640D0A0000002DE9F74183B0054671
:1047B0000E464FF000082C462CB94FF4A0624CA1D5
:1047C00050A0FCF7A1F90EB9206C08B9012000E057
:1047D000002028B940F2045245A14AA0FCF794F900
:1047E00000F01AF908B9059808B9012000E0002086
:1047F00028B940F209523EA142A0FCF785F900BF5A
:10480000FEF7AAFFA76BF7B131462046FDF70AFC79
:10481000781EA063206908B9012000E0002060B97B
:1048200004F1100000F02AFA38B14FF080503949F5
:104830000860BFF34F8FBFF36F8FFEF7D1FF0120EA
:1048400006B0BDE8F081059818B9FEF7C9FF002051
:10485000F6E7B8F1000F04D101A8FFF72FF94FF0E8
:104860000108FEF7BDFFFFF7C5FAFEF775FF94F9E3
:104870004400401C10B9002084F8440094F945001D
:10488000401C10B9002084F84500FEF7A9FF05A9D7
:1048900001A800F041F8F0B92046FDF7A7FDA0B14E
:1048A00004F124000599FFF71BF92046FEF725F8CF
:1048B00000F03EFA0028A3D14FF08050154908605F
:1048C000BFF34F8FBFF36F8F9AE72046FEF715F8BF
:1048D00000F02EFA94E72046FEF70FF800F028FAD1
:1048E0002046FDF783FD00288AD00020A8E70000BD
:1048F0002E2E5C6672656572746F735C717565757A
:10490000652E63004572726F723A25732C25640D13
:104910000A00000004ED00E070B505460C462DB914
:1049200040F6714218A11DA0FCF7EEF82CB940F634
:10493000724215A119A0FCF7E7F8FEF70DFF1B481E
:1049400002686868131A2068401C08B9002617E03E
:10495000174928680968884204D06868904201D8DD
:1049600001260DE02068984207D92068C01A20600F
:104970002846FFF7A3F8002602E000202060012669
:10498000FEF72EFF304670BD2E2E5C667265657296
:10499000746F735C7461736B732E63004572726F16
:1049A000723A25732C25640D0A000000C000002017
:1049B000D40000202DE9FF4F85B080468946164679
:1049C000DDE912ABB000FDF7E1FF054655B160200F
:1049D000FDF7DCFF04460CB1256304E02846FEF732
:1049E00037FF00E000247CB10020CDE900ABCDE929
:1049F0000240324649464046089BFDF7F1FB2046FF
:104A0000FDF75EFA012702E000BF00BFFEE738466F
:104A100009B0BDE8F08F00000549096809B9012017
:104A200005E00449096809B9022000E00020704748
:104A3000C8000020E4000020014908687047000019
:104A4000C00000202DE9F0414FF000084148006807
:104A5000002872D140480068451C3F480560EDB908
:104A60003E480068006808B9012000E0002028B92D
:104A700040F66E223AA13FA0FCF746F83748076897
:104A800040480068354908603E4807603E48006875
:104A9000401C3D490860FDF723FE00BF3B4800680D
:104AA00085423CD300BF2D480068006808B901204A
:104AB00000E0002020B14FF0FF30344908602DE0C5
:104AC00026480068C068C4686668B54202D22F48AC
:104AD000066023E0201DFEF7A0FDA06A18B104F1D6
:104AE0001800FEF79AFD94F82C1001208840284900
:104AF0000968084326490860E16A01EB8101254AFB
:104B000002EB8100211DFEF71BFE2349E06A0968C4
:104B1000C96A8842C7D34FF00108C4E700BF1E48E6
:104B20000068C06A00EB80001A4951F82000012893
:104B300001D94FF0010805E0FFE718480068401C64
:104B4000164908601648006808B14FF00108404651
:104B5000BDE8F081E4000020C0000020B00000208B
:104B60002E2E5C6672656572746F735C7461736B14
:104B7000732E63004572726F723A25732C25640D93
:104B80000A000000B4000020D4000020DC00002057
:104B9000C4000020D0040020AC000020CC00002085
:104BA000D000002070B505462C460026002D4BD0C5
:104BB00026480068844201D1012000E0002028B985
:104BC00040F6867222A127A0FBF79EFF606D28B9F0
:104BD00040F687721EA123A0FBF796FF606D401E72
:104BE0006065216DE06A88422ED0606D60BB201D3B
:104BF000FEF713FD78B9E06A00EB80001D4951F81B
:104C0000200040B994F82C10012088401A49096806
:104C1000814319480160206DE062E06AC0F1200024
:104C2000A06194F82C1001208840134909680843BA
:104C300011490860E16A01EB81010E4A02EB810033
:104C4000211DFEF77DFD0126304670BDAC00002021
:104C50002E2E5C6672656572746F735C7461736B23
:104C6000732E63004572726F723A25732C25640DA2
:104C70000A000000D0040020C400002070B50646E1
:104C8000F068C4682CB940F606421AA11EA0FBF7D2
:104C90003BFF04F11800FEF7C0FC1F480068A8B9EC
:104CA000201DFEF7BAFC94F82C10012088401B4907
:104CB0000968084319490860E16A01EB8101184A53
:104CC00002EB8100211DFEF73BFD04E004F1180119
:104CD0001448FEF735FD1449E06A0968C96A88423C
:104CE00004D9012501201149086000E0002528466B
:104CF00070BD00002E2E5C6672656572746F735C09
:104D00007461736B732E63004572726F723A257310
:104D10002C25640D0A000000E4000020C4000020DF
:104D2000D004002078070020AC000020D000002034
:104D300070B5002400263448006828B940F6740293
:104D400032A137A0FBF7E0FEFEF706FD2E48006813
:104D5000401E2D4908600846006800284FD134489D
:104D6000006800284BD024E03248C068C46804F1D1
:104D70001800FEF752FC201DFEF74FFC94F82C1093
:104D8000012088402C49096808432B490860E16AE2
:104D900001EB8101294A02EB8100211DFEF7D0FCC5
:104DA0002749E06A0968C96A884202D30120254977
:104DB00008602048006808B9012000E000200028B1
:104DC000D2D00CB1FDF78CFC1F48056865B100BF5F
:104DD000FFF738FE10B101201A4908606D1E002D42
:104DE000F6D10020184908601648006838B101263D
:104DF000300716490860BFF34F8FBFF36F8FFEF780
:104E0000EFFC304670BD0000E40000202E2E5C66F2
:104E100072656572746F735C7461736B732E63007B
:104E20004572726F723A25732C25640D0A000000DA
:104E3000BC00002078070020C4000020D00400201F
:104E4000AC000020D0000020CC00002004ED00E0E9
:104E50001CB50024FDF790F80B48006850B10B48D2
:104E60001F2100238222CDE9001009A10A48FFF783
:104E7000A1FD04462CB94FF4897208A10DA0FBF7DF
:104E800043FE20461CBD0000F0000020F40000207E
:104E9000546D722053766300E12800082E2E5C6664
:104EA00072656572746F735C74696D6572732E637D
:104EB000000000004572726F723A25732C25640D54
:104EC0000A0000002DE9FF4704460D4616461F461E
:104ED000DDF830804FF000092CB94FF4C37217A1F0
:104EE0001CA0FBF711FE1F48006810B30095019647
:104EF0000294062D15DAFFF78FFD022808D1002352
:104F00004246694617480068FFF7DCFA814610E020
:104F100000231A46694613480068FFF7D3FA814612
:104F200007E000233A4669460E480068FFF7B4FBE5
:104F30008146484604B0BDE8F08700002E2E5C662E
:104F400072656572746F735C74696D6572732E63DC
:104F5000000000004572726F723A25732C25640DB3
:104F60000A000000F00000209D2E00084D190008E6
:104F700000000000F0520008E852000800000000A5
:104F80006C6F67006C6F67206C6576656C00000065
:104F900000C20100250A00000008014000020000D4
:104FA00018030000000801400004000004030E067E
:104FB000020600000000000000C20100260A0000F6
:104FC00000140140200000001803000000140140FC
:104FD000400000000403110705060000080000005F
:104FE00000404040404040404040414141414140FC
:104FF00040404040404040404040404040404040B1
:10500000400502020202020202020202020202023F
:105010000220202020202020202020020202020244
:10502000020290909090909010101010101010109C
:1050300010101010101010101010101002020202A8
:1050400002028888888888880808080808080808EC
:1050500008080808080808080808080802020202E8
:1050600040000000E14F00080D0A2A2A20626F6FFD
:10507000742068656C7020202A2A2A2A2A2A2A2A63
:105080002A2A2A2A0D0A737570706F727420786D3F
:105090006F64656D2863726326636865636B53751F
:1050A0006D2920616E64207061636B616765206C9F
:1050B000656E677468203132382042797465206FDC
:1050C0006E6C790D0A5768656E2074686520737977
:1050D0007374656D207374617274732C20796F75AD
:1050E00020686176652078207365636F6E64732035
:1050F000746F2073656C6563740D0A277527206FC4
:105100007220274354524C2B43272063616E207337
:10511000746F7020737461727475702C20616E648A
:10512000207072657061726520746F2075706461A3
:105130007465200D0A2771272072657365742061DC
:105140006E6420737461727475702066726F6D2066
:10515000626F6F74200D0A276127205768656E20E3
:10516000796F7520617265207570646174696E670E
:105170002C20796F752063616E20676976652075D4
:105180007020616E6420636F6E74696E7565207344
:10519000746172747570207468652041505020737A
:1051A000797374656D200D0A0D0A00000D0A2A2A14
:1051B0002A2A2A2A2A2A2A2A2A2A2A2A2A2A2A2A4F
:1051C0002A2A2A2A2A2A2A2A2A2A2A2A2A2A2A2A3F
:1051D0002A2A2A2A2A2A2A2A2A2A0D0A2A2A2A2A6C
:1051E0002A2A2A2A2A2A2A2A202020202020626FDE
:1051F0006F746C6F616465722020202020202A2A41
:105200002A2A2A2A2A2A2A2A2A2A0D0A2A2A2A2A3B
:105210002A2A2A2A2A2A2A2A2A2A2A2A2A2A2A2AEE
:105220002A2A2A2A2A2A2A2A2A2A2A2A2A2A2A2ADE
:105230002A2A2A2A2A2A2A2A0D0A4275696C643ADD
:105240002020202044656320203520323032322057
:105250002031363A35333A32330D0A436F70797262
:10526000696768743A202863292048585A590D0AFA
:105270002A2A2A2A2A2A2A2A2A2A2A2A2A2A2A2A8E
:105280002A2A2A2A2A2A2A2A2A2A2A2A2A2A2A2A7E
:105290002A2A2A2A2A2A2A2A2A2A2A2A0D0A0D0AE8
:1052A000000000000A2A2A2A205072696E742061C8
:1052B0006C6C206C6576656C73206C6F7765722002
:1052C000616E6420657175616C207468616E207414
:1052D00068652063757272656E74206C6576656CA6
:1052E000202A2A2A0D0A00002D676574000000009C
:1052F0002D73657400000000285300080000002092
:1053000028010000300B000850540008280100203C
:10531000B8960000400B000800200000804F0008F5
:10532000D11A0008844F0008030000000038014033
:1053300000000000AC5100086850000800000000A8
:10534000000000000000000000000000000000005D
:10535000000000000000000000000000000000004D
:1053600001000000003801400000000000000000C3
:10537000000000000000000000000000000000002D
:10538000000000000000000000000000000000001D
:1053900000000000904F00080000000000440040A2
:1053A00000000000000000000000000000000000FD
:1053B00000000000000000000000000000000000ED
:1053C000000000000000000000000000B84F0008CE
:1053D000000E270700000000000000000000000091
:1053E00000000000000000000000000000000000BD
:1053F00000000000000000000000000000000000AD
:10540000000000000000000000000000000000009C
:10541000000000000000000000000000000000008C
:10542000000000000000000000000000000000007C
:10543000000000000000000000000000AAAAAAAAC4
:10544000000000000000000000000000000000005C
:0400000508000131BD
:020000040800F2
:1080000018B600204D9D01082D83000851F6010887
:10801000CB830008CF830008D38300080000000052
:10802000000000000000000000000000698100085E
:10803000D783000800000000AD810008D983000844
:10804000679D0108679D0108679D0108679D0108FC
:10805000679D0108679D0108679D0108679D0108EC
:10806000679D0108679D0108679D0108679D0108DC
:10807000679D0108679D0108679D0108679D0108CC
:10808000679D0108679D0108679D0108679D0108BC
:10809000679D0108679D0108679D0108679D0108AC
:1080A000679D0108E5570108679D01081F580108F1
:1080B000679D0108136E0108679D0108935E010822
:1080C000CD5F01085B60010897610108679D0108A9
:1080D000679D01086568010887690108679D0108B7
:1080E000679D0108679D0108679D0108679D01085C
:1080F000679D0108679D0108679D01080000000059
:10810000679D010800000000679D0108679D010848
:1081100013680108679D0108679D0108679D0108B4
:10812000679D0108679D0108679D0108679D01081B
:10813000679D0108E9830008679D0108679D0108A4
:10814000679D0108679D0108679D0108679D0108FB
:10815000DFF810D018F050FA004800476787000891
:10816000AFF3008018B60020224B19680868B0E809
:10817000F00F80F30988BFF36F8F4FF0000080F39A
:1081800011884EF00D0E7047000000000648006890
:10819000006880F3088862B661B6BFF34F8FBFF303
:1081A0006F8F00DF00BF00BF08ED00E0EFF3098034
:1081B000BFF36F8F0F4B1A6820E9F00F106008B5FE
:1081C0004FF0200080F31188BFF34F8FBFF36F8F04
:1081D00013F0CCFA4FF0000080F31188BDE808409E
:1081E00019680868B0E8F00F80F30988BFF36F8F53
:1081F000704700BF48050020EFF30580704700007E
:10820000EFF308807047EFF30980704768467047C6
:108210004FF6FF7080F3108800BF4FF0FF3000F082
:108220001F02012191403F4A430942F8231000BF39
:1082300010F061F80FF065FD40F20B6010F09EF851
:108240004FF4E06010F09AF840F2017010F096F8E8
:1082500040F2027010F092F840F2037010F08EF8C5
:1082600040F20E6010F08AF840F2117010F086F8BB
:1082700040F2127010F082F840F2157010F07EF8A3
:1082800040F2167010F07AF840F2026010F076F8C2
:1082900040F2036010F072F840F2046010F06EF8E3
:1082A00040F2056010F06AF840F2066010F066F8DF
:1082B00040F2076010F062F84FF4C16010F05EF811
:1082C00040F2096010F05AF840F20A6010F056F8D7
:1082D00040F20F6010F052F8002008E04FF0FF323B
:1082E000104941F82020104941F82020401C08285E
:1082F000F4D34FF0006044682546002111F061FA84
:10830000002080F3148800BF4FF00061086880F3FC
:10831000088800BF002080F3108800BFA84700BF76
:10832000FEE7000080E100E080E200E0704700BF6F
:10833000EFF309802D4908602D4817F0E3F92C4927
:1083400044182CA1204618F095FB294817F0DAF9BB
:108350002749441828A1204618F08CFB244817F020
:10836000D1F923494418214800682CA142692046CC
:1083700018F080FB1E4817F0C5F91D4944181B482A
:1083800000682AA18269204618F074FB184817F08B
:10839000B9F91749441817A1204618F06BFB144887
:1083A00017F0B0F984B22246114924480EF01FFE9E
:1083B0002348006817F0A6F984B2224620480168D5
:1083C0001E480EF014FE00BFFEE700BFFEE700BF30
:1083D000FEE700BFFEE7704710B513F00CFE012862
:1083E00001D014F0F8FF10BD70470000000000201D
:1083F000400600200A0A00003E3E204861726446A2
:1084000061756C7420212121202070726570617269
:10841000652072657365740A000000003E3E206CA2
:1084200072203D203078253038780A003E3E20709A
:1084300063203D203078253038780A00003801402C
:108440001C000020704710B54FF4847011F051FCEF
:108450004FF4867011F04DFC40F20D1011F049FC04
:1084600010BD10B540F61D100FF0B0FE012822D14E
:10847000F148006801281DDB012030B1012808D037
:1084800002280AD0032810D10BE0ECA018F0E2FA81
:108490000CE0EDA018F0DEFA08E0EEA018F0DAFA31
:1084A00004E0EFA018F0D6FA00E000BF00BFEFA094
:1084B00018F0D0FA9CE040F61B100FF087FE012860
:1084C00022D1DD4800680128F4DB012030B1012809
:1084D00008D002280AD0032810D10BE0D7A018F04A
:1084E000B9FA0CE0D8A018F0B5FA08E0D9A018F055
:1084F000B1FA04E0DAA018F0ADFA00E000BF00BF66
:10850000E1A018F0A7FA73E040F61C100FF05EFE31
:10851000012822D1C8480068012869DB012030B158
:10852000012808D002280AD0032810D10BE0C3A0EC
:1085300018F090FA0CE0C4A018F08CFA08E0C5A07E
:1085400018F088FA04E0C6A018F084FA00E000BF32
:1085500000BFD5A018F07EFA4AE040F61A100FF0DE
:1085600035FE012822D1B4480068012840DB0120F3
:1085700030B1012808D002280AD0032810D10BE01E
:10858000AEA018F067FA0CE0AFA018F063FA08E0AC
:10859000B0A018F05FFA04E0B1A018F05BFA00E0B8
:1085A00000BF00BFC7A018F055FA21E0A24800683C
:1085B00001281DDB012030B1012808D002280AD093
:1085C000032810D10BE09DA018F044FA0CE09EA007
:1085D00018F040FA08E09FA018F03CFA04E0A0A0D0
:1085E00018F038FA00E000BF00BFBFA018F032FA60
:1085F00010F005F904214FF47A700FF0C4FB0FF06E
:1086000084FB10BD88B000221F21022011F055FC10
:10861000BD4908600CE001F078FD14226946BA48B3
:10862000006812F0A7F8012802D1684606F04CFE57
:10863000F1E710B50446204607F088F910BD7CB577
:10864000054600240DF051FA14F08AFE002019218D
:1086500003468222CDE90010ACA1AF4812F0B2FC73
:10866000B0F1FF3F01D144F00104AC4815210023D3
:108670004FF48272CDE90010A9A1AFF2490012F0C7
